:04000000B4EF01F068
:10000800FACF6DF1FBCF6EF1E9CF6FF109EFB3F0E5
:10001800D8CF16F0E8CF17F0E0CF18F0FACF19F0E4
:10002800FBCF1AF0E9CF1BF0EACF1CF0E1CF1DF0AF
:10003800E2CF1EF0D9CF1FF0DACF20F0F3CF21F0B6
:10004800F4CF22F0F6CF23F0F7CF24F0F8CF25F045
:10005800F5CF26F0000E0001D56F000E0001D46F19
:10006800000E0001D66FF29C9EAA56D19D9AAB98BD
:10007800A7ECB5F00001D76F0001D7510A0AD8B430
:10008800CAD00001D7510D0AD8B4C5D00001D75144
:100098007F0AD8A48CD00001D851D8B4A5D0FF0EBF
:1000A800036EFD0E026E44ECB0F0000E0001D56F39
:1000B800000E0001D46F09D0F90E036EEE0E026E29
:1000C80044ECB0F00001D44BD52B0001D851136E8D
:1000D800146A1450800A156E0001D451135C000193
:1000E800D551800A1558D8B0E7D7FF0E036EFD0E1C
:1000F800026E44ECB0F0F50E036EE50E026E44ECB1
:10010800B0F00001D8070001D851010D0001600EC0
:10011800F324D96E0001000EF420DA6E000EDF6EB3
:100128000001000E036E0001600E026E44ECB0F098
:100138000F0E0001D85DD8B057D0000E0001D66F61
:100148001AD00001D651010D0001600EF324D96EBA
:100158000001000EF420DA6E0001D651010D0001F5
:10016800C40EF324E16E0001000EF420E26EDFCF2E
:10017800E7FF0001D62B0E0E0001D665E2D751EC41
:10018800B6F0000E0F6E000E14ECB6F03E0E81ECC9
:10019800B6F0010E0F6E000E14ECB6F00001000E62
:1001A800106E0001C40E0F6EA0ECB2F01DD000015D
:1001B800D75166ECB6F00F0E0001D85DD8B004D068
:1001C8000001D75181ECB6F00001D851010D0001B2
:1001D800600EF324D96E0001000EF420DA6E0001DF
:1001E800D7C0DFFF0001D82B620E0001D86592D07E
:1001F800F30E036E940E026E44ECB0F00001000E94
:10020800026E0001600E016E000E046E640E036E35
:10021800F4ECB4F07CD00001D7510A0AD8B405D068
:100228000001D7510D0AD8A430D00001D8672DD0CD
:100238000001D851010D0001600EF324D96E0001B0
:10024800000EF420DA6E0001D7C0DFFF0001000EB7
:100258000A6E0001600E096E0301030E0C6E0301A5
:10026800640E0B6E640E0D6E000E0E6E00ECAEF09A
:100278000001000E026E0001600E016E000E046E99
:10028800640E036EF4ECB4F045D00001606717D03B
:1002980000016151D8B413D00001000E0A6E0001AC
:1002A800600E096E0301030E0C6E0301640E0B6EE3
:1002B800640E0D6E010E0E6E00ECAEF012D0000151
:1002C800000E0A6E0001600E096E0301030E0C6E2B
:1002D8000301640E0B6E640E0D6E000E0E6E00ECC4
:1002E800AEF051ECB6F0000E0F6E000E14ECB6F046
:1002F8003E0E81ECB6F00001000E026E0001600EA9
:10030800016E000E046E640E036EF4ECB4F0000E81
:100318000001D86F9D8AAB88F28C26C0F5FF25C0F6
:10032800F8FF24C0F7FF23C0F6FF22C0F4FF21C066
:10033800F3FF20C0DAFF1FC0D9FF1EC0E2FF1DC0B7
:10034800E1FF1CC0EAFF1BC0E9FF1AC0FBFF19C090
:10035800FAFF18C0E0FF17C0E8FF16C0D8FF10006A
:040368003CEFB3F0C3
:10EF8E000000000000000000000000000200000071
:10EF9E000000000000000000010000000000000062
:10EFAE000000010000000000000000000000020050
:10EFBE000000000000000000000000020000000041
:10EFCE000000000000000001000000000000000032
:10EFDE000002000000000000000000000001000020
:10EFEE000001000800400000020010008001000A2D
:10EFFE00006400E80310270100100000010010005B
:10F00E0001010001000000000000010000000100ED
:10F01E0001010001000000000001000000000100DD
:10F02E0001010001000100000000000000000000CE
:10F03E0001010001000001000000000000000000BE
:10F04E0001010001000000000100000000000000AE
:10F05E00010100010000000100000000000000009E
:10F06E00010100010000000000000100010000008D
:10F07E00010100010000000000010000010000007D
:10F08E00010100010000000000000100000000006E
:10F09E00010100010000000000010000000000025C
:10F0AE00020202020200000100000000020202023F
:10F0BE000200000100000002000202020200000134
:10F0CE00000000546F207265616420616E642061DF
:10F0DE006463206368616E6E656C2C207479706554
:10F0EE002074686520636F6D6D616E640D0A20413A
:10F0FE00444320666F6C6C6F7765642062792027BD
:10F10E004368616E6E656C27200D0A00546F206394
:10F11E006F6D6D616E6420746865205254432C20AF
:10F12E00747970652074686520616374696F6E0D03
:10F13E000A20666F6C6C6F77656420627920746844
:10F14E006520706172616D6574657273200D0A0AB7
:10F15E0000546F20636F6E74726F6C206120646553
:10F16E007669636520656E746572207468652064C7
:10F17E00657669636520666F6C6C6F776564206277
:10F18E007920273D2720616E6420274F6E2F4F6612
:10F19E0066270D0A00546F20736574207465205025
:10F1AE00574D206272696768746E65737320656E61
:10F1BE007465722027526564204C45442062726942
:10F1CE006768746E657373203D2064757479637916
:10F1DE00636C65270D0A00546F2073657420436FAE
:10F1EE006E74726173742050574D20627269676835
:10F1FE00746E65737320656E7465722027436F6E2F
:10F20E007472617374203D20647574796379636CD4
:10F21E0065270D0A006675727468657220737562D3
:10F22E00206D656E757320617661696C61626C65C7
:10F23E0020627920656E746572696E6720746865E8
:10F24E0020616374696F6E20616E64206120273FB8
:10F25E002700466F72204465766963652068656C89
:10F26E007020656E746572206465766963652066CC
:10F27E006F6C6C6F776564206279206120273F2761
:10F28E00200D0A007265646C656420776861743FB6
:10F29E003F3F20446F20796F75206D65616E20525F
:10F2AE006564204C6564204272696768746E65738C
:10F2BE00733F3F3F00496E76616C696420436F6E09
:10F2CE0074726173742044757479206379636C650C
:10F2DE003A2047726561746572207468616E2031E0
:10F2EE0030300D0A00496E76616C696420436F6E92
:10F2FE0074726173742044757479204379636C65FC
:10F30E003A204C657373207468616E20300D0A00CC
:10F31E0077686572652074686520647574796379A1
:10F32E00636C652069732061206E756D6265722055
:10F33E0030202D203130300D0A00496E76616C6917
:10F34E006420447574796379636C653A20477265FD
:10F35E0061746572207468616E203130300D0A0060
:10F36E004368726973746D617320547265652043CE
:10F37E006F6C6F726564204C696768747320546F8C
:10F38E0067676C6564000D0A427566666572206F6C
:10F39E00766572666C6F77212044656C6574696E54
:10F3AE006720427566666572200D0A00692E652E0D
:10F3BE00204368726973746D617320436F6C6F7252
:10F3CE006564206C6967687473203D204F6E0D0A6A
:10F3DE0000456E7465722054696D65204D4D2F4445
:10F3EE00442F59592048483A4D4D3A535320414DD8
:10F3FE00206F720D0A00203320566F6C7420525409
:10F40E0043204261747465727920566F6C74616723
:10F41E0065203D2025642E256400253032642F257D
:10F42E003032642F32302530326420253032643A47
:10F43E00253032643A2530326420414D0025303279
:10F44E00642F253032642F3230253032642025303F
:10F45E0032643A253032643A2530326420504D0001
:10F46E00456E7465722054696D65204D4D2F444470
:10F47E002F59592048483A4D4D3A535320504D0D6F
:10F48E000A00496E76616C696420447574796379FB
:10F49E00636C653A204C657373207468616E20301E
:10F4AE000D0A00466F726D6174206973204D4D2FE9
:10F4BE0044442F59592048483A4D4D3A5353204110
:10F4CE004D0D0A004572726F723A206F6E6C792084
:10F4DE00757365206F6E6520657175616C2073693B
:10F4EE00676E0D0A00253032642F253032642F32BC
:10F4FE00302530326420253032643A253032643A79
:10F50E002530326400436F6E7472617374204475DB
:10F51E007479204379636C652073657420746F2051
:10F52E0025640D0A004368726973746D617320540B
:10F53E00726565205768697465204C6967687473D5
:10F54E00204F6666004368726973746D6173205450
:10F55E00726565205768697465204C6967687473B5
:10F56E00204F6E004572726F723A204E6F206E659C
:10F57E00676174697665206368616E6E656C730D84
:10F58E000A005265616C2054696D6520436C6F638F
:10F59E006B2048656C70204D656E750D0A0A004330
:10F5AE0068616E6E656C202564206973206E6F74C1
:10F5BE0020636F6E66696775726564000D0A456E2D
:10F5CE0074657220273F2720666F722048656C7025
:10F5DE00204D656E750D0A3E004368726973746D39
:10F5EE00617320747265652048656C70204D656E80
:10F5FE00750D0A0A004572726F723A20696E20709C
:10F60E00617273696E6720636F6D6D616E640D0A52
:10F61E00007468657265206973206E6F2071756560
:10F62E007374696F6E206D61726B0D0A00692E65C1
:10F63E002E204A6F657320726F6F6D206C6967683C
:10F64E0074203D204F6E0D0A000D0A54696D652021
:10F65E004E6F7420536574205375636365737366C0
:10F66E00756C6C79004572726F723A204E6F206E17
:10F67E00756D62657220656E74657265640D0A0043
:10F68E00692E652E204C6976696E67726F6F6D20DC
:10F69E0066616E203D204F6E0D0A004144432043AB
:10F6AE0068616E6E656C204F7574206F6620426FB8
:10F6BE00756E647300436F6E74726173742050576D
:10F6CE004D2048656C70204D656E750D0A0A000D53
:10F6DE000A54696D652053657420537563636573B1
:10F6EE007366756C6C790D0A00526564204C454446
:10F6FE002050574D2048656C70204D656E750D0A73
:10F70E000A000D0A496E76616C69642054696D6554
:10F71E0020456E74657265640D0A004C6976696EDB
:10F72E0067726F6F6D204C6967687420546F6767DE
:10F73E006C6564004C6976696E67726F6F6D2048F8
:10F74E00656C70204D656E750D0A0A004552524F5C
:10F75E00523A2043616E27742052656164205254E0
:10F76E00430D0A00692E652E20426564726F6F6D1F
:10F77E002066616E203D204F6E0D0A004A6F657344
:10F78E0020526F6F6D2048656C70204D656E750D43
:10F79E000A0A00253032642F25303264202530329B
:10F7AE00643A2530326420414D00253032642F25D5
:10F7BE0030326420253032643A2530326420504D88
:10F7CE0000692E652E20204C6976696E67726F6F08
:10F7DE006D3F0D0A0D0A00447574796379636C658B
:10F7EE002073657420746F2025640D0A00426564D1
:10F7FE00726F6F6D204C6967687420546F67676C09
:10F80E00656400426564726F6F6D2048656C702090
:10F81E004D656E750D0A0A00692E652E20525443F1
:10F82E00205365742054696D653F0D0A00414443B1
:10F83E00206368616E6E656C202564203D20256412
:10F84E00004A6F657320726F6F6D206C6967687404
:10F85E00204F6666006C6976696E67726F6F6D6CAD
:10F86E00696768743D6F6666004A6F65277320721C
:10F87E006F6F6D206C69676874204F6E004C6976EF
:10F88E00696E67726F6F6D205461736B3F3F3F00FF
:10F89E004A6F65277320726F6F6D20776861743FB2
:10F8AE003F3F004C6976696E67726F6F6D204661DF
:10F8BE006E204F666600426564726F6F6D205368EE
:10F8CE00616B6572204F6666006C6976696E677251
:10F8DE006F6F6D6C696768743D6F6E00636F6C6FF0
:10F8EE00726564206C69676874730D0A0A00436858
:10F8FE00726973746D617320576861743F3F3F0086
:10F90E006C6976696E67726F6F6D66616E3D6F665C
:10F91E006600626564726F6F6D7368616B65723DD0
:10F92E006F6666006A6F6573726F6F6D6C6967687C
:10F93E00743D6F6666004C6976696E67726F6F6DA7
:10F94E002046616E204F6E00426564726F6F6D20AF
:10F95E005368616B6572204F6E003031323334352F
:10F96E00363738394142434445460030313233341C
:10F97E003536373839616263646566004144432029
:10F98E0048656C70204D656E750D0A0A004C454435
:10F99E002048656C70204D656E750D0A0A0043682F
:10F9AE006E6C2073657420746F2025640D0A0043FD
:10F9BE0068726973746D617320547265650D0A0007
:10F9CE00692E652E204C454431203D204F6E0D0A88
:10F9DE00005254432054696D652069733A202020EB
:10F9EE002000626564726F6F6D6C696768743D6F3D
:10F9FE006666005254432069736E7420776F726B83
:10FA0E00696E67006C6976696E67726F6F6D66619D
:10FA1E006E3D6F6E00626564726F6F6D7368616BC1
:10FA2E0065723D6F6E006A6F6573726F6F6D6C6994
:10FA3E006768743D6F6E007265646C6564627269AE
:10FA4E006768746E65737300526564204C4544207C
:10FA5E00436F6E7472617374005374617274696E65
:10FA6E00672E2E2E2E2E2E2E2E004552523A20432B
:10FA7E004E5354203E20313030004552523A2044ED
:10FA8E00757479203E20313030004C564E4720524E
:10FA9E006D205461736B3F3F3F00426564726F6F20
:10FAAE006D205461736B3F3F3F00426564726F6F10
:10FABE006D2048656C703F3F3F00526564204C4599
:10FACE004420576861743F3F3F004A6F6520726F54
:10FADE006F6D20776861743F3F004368726973747D
:10FAEE006D617320547265653F00584D415320433C
:10FAFE006F6C6F722054474C44004C564E47205248
:10FB0E006D204C742054474C4400426564726F6FF4
:10FB1E006D204C742054474C440052544320427480
:10FB2E0079203D2025642E256400496E76616C692E
:10FB3E006420436F6D6D616E64004552523A2043EE
:10FB4E00616E7420706172736500426564726F6FCE
:10FB5E006D20534B52204F666600426564726F6F84
:10FB6E006D2046616E204F6666004A6F6520726F8B
:10FB7E006F6D206C74204F6666004552523A2055C8
:10FB8E007365202B2043686E6C00626564726F6F24
:10FB9E006D6C696768743D6F6E004C564E4720520F
:10FBAE006D204C742068656C7000537461727469BA
:10FBBE006E672E2E2E2E2E2E2E0043757272656EB1
:10FBCE00742054696D650D0A007768697465206C40
:10FBDE0069676874730D0A00434E5354207365743D
:10FBEE0020746F2025640044757479207365742029
:10FBFE00746F20256400584D415320576869746511
:10FC0E00204F6666004C564E4720526D204C742095
:10FC1E004F666600426564726F6F6D204C74204FA4
:10FC2E00666600626564726F6F6D66616E3D6F66CB
:10FC3E006600426564726F6F6D20534B52204F6E9B
:10FC4E0000426564726F6F6D2046616E204F6E00CC
:10FC5E004A6F6520726F6F6D206C74204F6E004579
:10FC6E0052523A204E6F206E756D6265720045528B
:10FC7E00523A206E6F206E756D626572005374611C
:10FC8E007274696E672E2E2E2E2E2E004552523A0B
:10FC9E0020434E5354203C2030004552523A2044CB
:10FCAE00757479203C203000446576696365204D7B
:10FCBE00656E75733A00584D4153205768697465E7
:10FCCE00204F6E004C564E4720526D204C74204FE4
:10FCDE006E00426564726F6F6D204C74204F6E0023
:10FCEE00626564726F6F6D66616E3D6F6E004A6F16
:10FCFE006520726F6F6D204D656E75004C564E47C8
:10FD0E00726F6F6D204D656E7500537461727469FC
:10FD1E006E672E2E2E2E2E00692E652E2041444308
:10FD2E0020300D0A004C6976696E67726F6F6D0D2B
:10FD3E000A0052544320576861743F3F3F0A004502
:10FD4E0052523A205573652031203D00584D415393
:10FD5E0020576861743F3F3F0043686E6C202564F6
:10FD6E00203D202564004C45443020546F67676C5D
:10FD7E006564004C45443120546F67676C656400C0
:10FD8E004C434420436F6E74726173740042656419
:10FD9E00726F6F6D204D656E75005374617274696C
:10FDAE006E672E2E2E2E00446576696365733A0DAE
:10FDBE000A0A004368616E6E656C733A0D0A004A5A
:10FDCE006F657320726F6F6D0D0A004C6976696EE8
:10FDDE0067726F6F6D3F005374617274696E672E38
:10FDEE002E2E00446576696365733A0D0A004163F1
:10FDFE0074696F6E733A0D0A00436F6E747261739D
:10FE0E00740D0A004A6F657320526F6F6D3F006C60
:10FE1E006976696E67726F6F6D0053746172746983
:10FE2E006E672E2E007368616B65720D0A0A0042B2
:10FE3E006564726F6F6D0D0A00426174746572793C
:10FE4E000D0A00526564204C45443D2300436F6EFD
:10FE5E0074726173742300436F6D6D616E64733AD7
:10FE6E0000436F6E74726173743F006368726973DE
:10FE7E00746D617300584D4153204D656E75004889
:10FE8E00656C70204D656E7500456E746572202729
:10FE9E003F27005374617274696E672E004C696758
:10FEAE0068740D0A0A00446576696365733A004208
:10FEBE006564726F6F6D3F004C454430204F66662F
:10FECE00004C454431204F6666006C6564303D6FD2
:10FEDE006666006C6564313D6F666600636F6E74B6
:10FEEE007261737400414443204D656E7500525427
:10FEFE0043204D656E75004C4544204D656E750072
:10FF0E005374617274696E67004C4544310D0A0A70
:10FF1E00006C696768740D0A00626564726F6F6DBC
:10FF2E00004C454430204F6E004C454431204F6EFE
:10FF3E00006C6564303D6F6E006C6564313D6F6EB4
:10FF4E0000426174746572790062617474657279CD
:10FF5E00005254430D0A0A0066616E0D0A0A0053E0
:10FF6E0065740D0A0A004C4544300D0A0052656155
:10FF7E00640D0A007265646C6564005368616B659C
:10FF8E0072004144430D0A0066616E0D0A007768E7
:10FF9E0069746500636F6C6F72004C6967687400FA
:10FFAE006C6967687400300D0A0A004C45443000D5
:10FFBE006C656430004C454431006C656431004121
:10FFCE0044433F005254433F0052656164007265E2
:10FFDE0061640061646300727463006A6F65004659
:10FFEE00616E0066616E0053657400736574000D7A
:02FFFE00000001
:020000040001F9
:10000000000E0501D36F140E0501D26F000E05011D
:10001000C96F000E0501C86F000E0501CB6F000E01
:100020000501CA6F000E0501CD6F000E0501CC6FF2
:10003000000E0501CF6F000E0501CE6F000E050109
:10004000D56F000E0501D46F000E0501D16F000EB3
:100050000501D06FF10E01017D6F5B0E01017C6F18
:10006000B3ECADF00101C1C17CF10101C0C17BF174
:1000700072ECAFF00101C1C18BF10101C0C18AF185
:1000800005ECACF00101C1C17CF10101C0C17BF103
:10009000FF0E01017E6F850E01017D6F4CECAEF00D
:1000A0000009D8B44FD10101C1C17CF10101C0C127
:1000B0007BF1FA0E01017E6FA60E01017D6FC9EC86
:1000C000B0F00009D8A4ECD00101C1C17CF101015C
:1000D000C0C17BF1FF0E01017E6FBE0E01017D6F7D
:1000E00008ECB1F00009D8B414D0020E8C1AFD0E41
:1000F00001017D6F740E01017C6FB3ECADF0FD0E5C
:1001000001018E6F740E01018D6FB5ECB4F028EF14
:1001100092F00101C1C17CF10101C0C17BF1FF0E70
:1001200001017E6F3F0E01017D6F08ECB1F0000907
:10013000D8B413D08C82FF0E01017D6F2F0E010108
:100140007C6FB3ECADF0FF0E01018E6F2F0E01013D
:100150008D6FB5ECB4F028EF92F00101C1C17CF1D4
:100160000101C0C17BF1FE0E01017E6FD80E0101BD
:100170007D6F08ECB1F00009D8B413D08C92FE0E5C
:1001800001017D6FC60E01017C6FB3ECADF0FE0E78
:1001900001018E6FC60E01018D6FB5ECB4F028EF32
:1001A00092F00101C1C17CF10101C0C17BF1FF0EE0
:1001B00001017E6FC80E01017D6F08ECB1F00009EE
:1001C000D8B414D0040E8C1AFD0E01017D6F810E7F
:1001D00001017C6FB3ECADF0FD0E01018E6F810E5D
:1001E00001018D6FB5ECB4F028EF92F00101C1C1AF
:1001F0007CF10101C0C17BF1FF0E01017E6F470E52
:1002000001017D6F08ECB1F00009D8B413D08C84E3
:10021000FF0E01017D6F370E01017C6FB3ECADF075
:10022000FF0E01018E6F370E01018D6FB5ECB4F03A
:1002300028EF92F00101C1C17CF10101C0C17BF145
:10024000FE0E01017E6FE10E01017D6F08ECB1F041
:100250000009D8B413D08C94FE0E01017D6FCF0E2F
:1002600001017C6FB3ECADF0FE0E01018E6FCF0E7D
:1002700001018D6FB5ECB4F028EF92F0FA0E010198
:100280007D6FCC0E01017C6FB3ECADF0FA0E010175
:100290008E6FCC0E01018D6FB5ECB4F028EF92F0AB
:1002A000F90E01017D6F9B0E01017C6FB3ECADF087
:1002B000FD0E01017D6FF10E01017C6FB3ECADF01D
:1002C000FF0E01017D6F740E01017C6FB3ECADF088
:1002D000FF0E01017D6F170E01017C6FB3ECADF0D5
:1002E000F10E01017D6F5F0E01017C6FB3ECADF08B
:1002F000F90E01017D6FCE0E01017C6FB3ECADF004
:10030000FF0E01018B6F050E01018A6F38ECA0F022
:10031000FE0E01018B6FB40E01018A6F38ECA0F064
:10032000FF0E01018B6FB90E01018A6F38ECA0F04E
:10033000FF0E01018B6FC30E01018A6F38ECA0F034
:1003400028EF92F00101C1C17CF10101C0C17BF134
:10035000FE0E01017E6F1D0E01017D6F4CECAEF0B3
:100360000009D8B4D5D10101C1C17CF10101C0C1DE
:100370007BF1FA0E01017E6FA60E01017D6FC9ECC3
:10038000B0F00009D8A46AD10101C1C17CF101011A
:10039000C0C17BF1F80E01017E6FD70E01017D6FA8
:1003A00008ECB1F00009D8A411D00101C1C17CF161
:1003B0000101C0C17BF1F80E01017E6F630E0101E6
:1003C0007D6F08ECB1F00009D8B453D0F29EF00E66
:1003D0000101876FAD0E0101866F010E33ECA8F0AD
:1003E000F00E0101876FAD0E0101866F010E33EC37
:1003F000A8F0F00E0101876FAD0E0101866F010EAE
:1004000033ECA8F0F00E0101876FAD0E0101866F8D
:10041000010E33ECA8F0F00E0101876FAD0E010163
:10042000866F010E33ECA8F0F00E0101876FAD0E60
:100430000101866F010E33ECA8F0F00E0101876F09
:10044000AD0E0101866F010E33ECA8F0F28EF70EAF
:1004500001017D6F290E01017C6FB3ECADF0FB0E45
:1004600001018E6F080E01018D6FB5ECB4F028EF1D
:1004700092F00101C1C17CF10101C0C17BF1FA0E12
:1004800001017E6F120E01017D6F08ECB1F00009D1
:10049000D8B45CD0F29EF00E0101876F9D0E010171
:1004A000866F010EFFECAFF0F00E0101876F9D0E1D
:1004B0000101866F010EFFECAFF0F00E0101876FB6
:1004C0009D0E0101866F010EFFECAFF0F00E0101F1
:1004D000876F9D0E0101866F010EFFECAFF0F00EED
:1004E0000101876F9D0E0101866F010EFFECAFF0D9
:1004F000F00E0101876F9D0E0101866F010EFFEC6A
:10050000AFF0F00E0101876F9D0E0101866F010EA5
:10051000FFECAFF0F00E0101876F9D0E0101866FB9
:10052000010EFFECAFF0F28EF90E01017D6F440E6B
:1005300001017C6FB3ECADF0FC0E01018E6FD20EA9
:1005400001018D6FB5ECB4F028EF92F00101C1C14B
:100550007CF10101C0C17BF1F90E01017E6F0E0E2D
:1005600001017D6F08ECB1F00009D8B465D0F29EAE
:10057000F00E0101876F8D0E0101866F010EFFECF9
:10058000AFF0F00E0101876F8D0E0101866F010E35
:10059000FFECAFF0F00E0101876F8D0E0101866F49
:1005A000010EFFECAFF0F00E0101876F8D0E01011F
:1005B000866F010EFFECAFF0F00E0101876F8D0E1C
:1005C0000101866F010EFFECAFF0F00E0101876FA5
:1005D0008D0E0101866F010EFFECAFF0F00E0101F0
:1005E000876F8D0E0101866F010EFFECAFF0F00EEC
:1005F0000101876F8D0E0101866F010EFFECAFF0D8
:10060000F00E0101876F8D0E0101866F010EFFEC68
:10061000AFF0F28EF80E01017D6FB10E01017C6F1B
:10062000B3ECADF0FC0E01018E6F130E01018D6F66
:10063000B5ECB4F028EF92F0F80E01017D6F8B0E4F
:1006400001017C6FB3ECADF0FA0E01018E6F980ED4
:1006500001018D6FB5ECB4F028EF92F0F70E0101B7
:100660007D6F420E01017C6FB3ECADF0FD0E010118
:100670007D6FF10E01017C6FB3ECADF0FF0E010157
:100680007D6F1F0E01017C6FB3ECADF0FF0E010119
:100690007D6F660E01017C6FB3ECADF0F10E0101D0
:1006A0007D6F5F0E01017C6FB3ECADF0F60E0101C2
:1006B0007D6F8E0E01017C6FB3ECADF0FB0E01017E
:1006C0008E6FA80E01018D6FB5ECB4F0FD0E010127
:1006D0008B6F0A0E01018A6F38ECA0F0FE0E01014B
:1006E0008B6FB40E01018A6F38ECA0F0FF0E010190
:1006F0008B6FA80E01018A6F38ECA0F0FF0E01018C
:100700008B6FED0E01018A6F38ECA0F028EF92F0AC
:100710000101C1C17CF10101C0C17BF1FF0E0101EA
:100720007E6F270E01017D6F4CECAEF00009D8B44E
:10073000E2D20101C1C17CF10101C0C17BF1FA0E1D
:1007400001017E6FA60E01017D6FC9ECB0F00009BA
:10075000D8A467D20101C1C17CF10101C0C17BF104
:10076000FF0E01017E6FAE0E01017D6FC9ECB0F08E
:100770000009D8A411D00101C1C17CF10101C0C19F
:100780007BF1FF0E01017E6FF10E01017D6FC9EC5F
:10079000B0F00009D8B433D20101C1C17CF101012C
:1007A000C0C17BF1FB0E01017E6F980E01017D6FD0
:1007B00008ECB1F00009D8A411D00101C1C17CF14D
:1007C0000101C0C17BF1F90E01017E6FF00E010144
:1007D0007D6F08ECB1F00009D8B453D0F29EF00E52
:1007E0000101876FB90E0101866F010E33ECA8F08D
:1007F000F00E0101876FB90E0101866F010E33EC17
:10080000A8F0F00E0101876FB90E0101866F010E8D
:1008100033ECA8F0F00E0101876FB90E0101866F6D
:10082000010E33ECA8F0F00E0101876FB90E010143
:10083000866F010E33ECA8F0F00E0101876FB90E40
:100840000101866F010E33ECA8F0F00E0101876FF5
:10085000B90E0101866F010E33ECA8F0F28EF70E8F
:1008600001017D6FFB0E01017C6FB3ECADF0FB0E5F
:1008700001018E6F180E01018D6FB5ECB4F028EFF9
:1008800092F00101C1C17CF10101C0C17BF1FC0EFC
:1008900001017E6FEE0E01017D6F08ECB1F00009E1
:1008A000D8B45CD0F29EF00E0101876F3D0E0101BD
:1008B000866F010EFFECAFF0F00E0101876F3D0E69
:1008C0000101866F010EFFECAFF0F00E0101876FA2
:1008D0003D0E0101866F010EFFECAFF0F00E01013D
:1008E000876F3D0E0101866F010EFFECAFF0F00E39
:1008F0000101876F3D0E0101866F010EFFECAFF025
:10090000F00E0101876F3D0E0101866F010EFFECB5
:10091000AFF0F00E0101876F3D0E0101866F010EF1
:10092000FFECAFF0F00E0101876F3D0E0101866F05
:10093000010EFFECAFF0F28EFC0E01017D6F4F0E49
:1009400001017C6FB3ECADF0FC0E01018E6FE00E87
:1009500001018D6FB5ECB4F028EF92F00101C1C137
:100960007CF10101C0C17BF1FC0E01017E6F310EF3
:1009700001017D6F08ECB1F00009D8B465D0F29E9A
:10098000F00E0101876F2D0E0101866F010EFFEC45
:10099000AFF0F00E0101876F2D0E0101866F010E81
:1009A000FFECAFF0F00E0101876F2D0E0101866F95
:1009B000010EFFECAFF0F00E0101876F2D0E01016B
:1009C000866F010EFFECAFF0F00E0101876F2D0E68
:1009D0000101866F010EFFECAFF0F00E0101876F91
:1009E0002D0E0101866F010EFFECAFF0F00E01013C
:1009F000876F2D0E0101866F010EFFECAFF0F00E38
:100A00000101876F2D0E0101866F010EFFECAFF023
:100A1000F00E0101876F2D0E0101866F010EFFECB4
:100A2000AFF0F28EFB0E01017D6F680E01017C6F4D
:100A3000B3ECADF0FC0E01018E6F220E01018D6F43
:100A4000B5ECB4F028EF92F00101C1C17CF10101D5
:100A5000C0C17BF1FA0E01017E6F230E01017D6F93
:100A600008ECB1F00009D8B45CD0F29EF00E0101A0
:100A7000876F5D0E0101866F010EFFECAFF0F00E87
:100A80000101876F5D0E0101866F010EFFECAFF073
:100A9000F00E0101876F5D0E0101866F010EFFEC04
:100AA000AFF0F00E0101876F5D0E0101866F010E40
:100AB000FFECAFF0F00E0101876F5D0E0101866F54
:100AC000010EFFECAFF0F00E0101876F5D0E01012A
:100AD000866F010EFFECAFF0F00E0101876F5D0E27
:100AE0000101866F010EFFECAFF0F00E0101876F80
:100AF0005D0E0101866F010EFFECAFF0F28EF90E74
:100B000001017D6F560E01017C6FB3ECADF0FC0E60
:100B100001018E6F400E01018D6FB5ECB4F028EF2E
:100B200092F00101C1C17CF10101C0C17BF1F90E5C
:100B300001017E6F200E01017D6F08ECB1F000090C
:100B4000D8B428EF92F0F29EF00E0101876F4D0E9F
:100B50000101866F010EFFECAFF0F00E0101876F0F
:100B60004D0E0101866F010EFFECAFF0F00E01019A
:100B7000876F4D0E0101866F010EFFECAFF0F00E96
:100B80000101876F4D0E0101866F010EFFECAFF082
:100B9000F00E0101876F4D0E0101866F010EFFEC13
:100BA000AFF0F00E0101876F4D0E0101866F010E4F
:100BB000FFECAFF0F00E0101876F4D0E0101866F63
:100BC000010EFFECAFF0F00E0101876F4D0E010139
:100BD000866F010EFFECAFF0F28EF80E01017D6F13
:100BE000C40E01017C6FB3ECADF0FB0E01018E6F02
:100BF000580E01018D6FB5ECB4F028EF92F0FA0EAB
:100C000001017D6FA80E01017C6FB3ECADF0FA0E0F
:100C100001018E6FA80E01018D6FB5ECB4F028EFC5
:100C200092F0F80E01017D6F110E01017C6FB3ECA3
:100C3000ADF0FD0E01017D6FF10E01017C6FB3EC93
:100C4000ADF0FF0E01017D6F1F0E01017C6FB3EC53
:100C5000ADF0FF0E01017D6F960E01017C6FB3ECCC
:100C6000ADF0FE0E01017D6F330E01017C6FB3EC20
:100C7000ADF0F10E01017D6F5F0E01017C6FB3ECF1
:100C8000ADF0F70E01017D6F720E01017C6FB3ECC8
:100C9000ADF0FA0E01018E6FB80E01018D6FB5EC4B
:100CA000B4F0FD0E01018B6F9B0E01018A6F38ECD1
:100CB000A0F0FE0E01018B6FB40E01018A6F38ECBB
:100CC000A0F0FF0E01018B6FA80E01018A6F38ECB6
:100CD000A0F0FF0E01018B6FED0E01018A6F38EC61
:100CE000A0F0FF0E01018B6F890E01018A6F38ECB5
:100CF000A0F028EF92F00101C1C17CF10101C0C157
:100D00007BF1FF0E01017E6FA20E01017D6FC9EC28
:100D1000B0F00009D8A422D00101C1C17CF10101C9
:100D2000C0C17BF1FF0E01017E6F9C0E01017D6F42
:100D3000C9ECB0F00009D8A411D00101C1C17CF107
:100D40000101C0C17BF1FE0E01017E6F790E010130
:100D50007D6FC9ECB0F00009D8B4D4D10101C1C194
:100D60007CF10101C0C17BF1FA0E01017E6FA60E7C
:100D700001017D6FC9ECB0F00009D8A471D1010167
:100D8000C1C17CF10101C0C17BF1FF0E01017E6F89
:100D9000A20E01017D6FC9ECB0F00009D8B464D097
:100DA0000101C1C17CF10101C0C17BF1FD0E010156
:100DB0007E6F580E01017D6FC9ECB0F00009D8B408
:100DC00053D0F29EF00E0101876FC50E0101866FB0
:100DD000010E33ECA8F0F00E0101876FC50E010182
:100DE000866F010E33ECA8F0F00E0101876FC50E7F
:100DF0000101866F010E33ECA8F0F00E0101876F40
:100E0000C50E0101866F010E33ECA8F0F00E010152
:100E1000876FC50E0101866F010E33ECA8F0F00E4E
:100E20000101876FC50E0101866F010E33ECA8F03A
:100E3000F00E0101876FC50E0101866F010E33ECC4
:100E4000A8F0F28EF30E01017D6F6E0E01017C6F32
:100E5000B3ECADF0FA0E01018E6FF80E01018D6F4B
:100E6000B5ECB4F028EF92F00101C1C17CF10101B1
:100E7000C0C17BF1FF0E01017E6F9C0E01017D6FF1
:100E8000C9ECB0F00009D8B464D00101C1C17CF153
:100E90000101C0C17BF1FF0E01017E6F430E010114
:100EA0007D6FC9ECB0F00009D8B453D0F29EF00EBB
:100EB0000101876F1D0E0101866F010EFFECAFF07F
:100EC000F00E0101876F1D0E0101866F010EFFEC10
:100ED000AFF0F00E0101876F1D0E0101866F010E4C
:100EE000FFECAFF0F00E0101876F1D0E0101866F60
:100EF000010EFFECAFF0F00E0101876F1D0E010136
:100F0000866F010EFFECAFF0F00E0101876F1D0E32
:100F10000101866F010EFFECAFF0F00E0101876F4B
:100F20001D0E0101866F010EFFECAFF0F28EF50E83
:100F300001017D6F530E01017C6FB3ECADF0FC0E2F
:100F400001018E6FC40E01018D6FB5ECB4F028EF76
:100F500092F00101C1C17CF10101C0C17BF1FF0E22
:100F600001017E6F9C0E01017D6FC9ECB0F000099C
:100F7000D8B464D00101C1C17CF10101C0C17BF1D1
:100F8000FE0E01017E6FDC0E01017D6FC9ECB0F039
:100F90000009D8B453D0F29EF00E0101876F0D0EF8
:100FA0000101866F010EFFECAFF0F00E0101876FBB
:100FB0000D0E0101866F010EFFECAFF0F00E010186
:100FC000876F0D0E0101866F010EFFECAFF0F00E82
:100FD0000101876F0D0E0101866F010EFFECAFF06E
:100FE000F00E0101876F0D0E0101866F010EFFECFF
:100FF000AFF0F00E0101876F0D0E0101866F010E3B
:10100000FFECAFF0F00E0101876F0D0E0101866F4E
:10101000010EFFECAFF0F28EF50E01017D6F330E85
:1010200001017C6FB3ECADF0FC0E01018E6F040E7C
:1010300001018D6FB5ECB4F028EF92F0F80E0101CC
:101040007D6FFC0E01017C6FB3ECADF0FD0E010174
:101050008E6F5A0E01018D6FB5ECB4F028EF92F04F
:10106000F50E01017D6FE70E01017C6FB3ECADF071
:10107000FD0E01017D6FF10E01017C6FB3ECADF04F
:10108000FB0E01017D6FD70E01017C6FB3ECADF05B
:10109000F80E01017D6FEA0E01017C6FB3ECADF03B
:1010A000F10E01017D6F5F0E01017C6FB3ECADF0BD
:1010B000F30E01017D6FBA0E01017C6FB3ECADF050
:1010C000FE0E01018B6F830E01018A6F38ECA0F0D8
:1010D000FE0E01018B6FB40E01018A6F38ECA0F097
:1010E000FF0E01018B6F9C0E01018A6F38ECA0F09E
:1010F000FF0E01018B6FA20E01018A6F38ECA0F088
:1011000028EF92F00101C1C17CF10101C0C17BF166
:10111000F50E01017E6FC60E01017D6F4CECAEF045
:101120000009D8B431D10101C1C17CF10101C0C1B4
:101130007BF1FA0E01017E6FA60E01017D6FC9ECF5
:10114000B0F00009D8A4EED00101C1C17CF10101C9
:10115000C0C17BF1FF0E01017E6F820E01017D6F28
:101160004CECAEF00009D8A411D00101C1C17CF152
:101170000101C0C17BF1FA0E01017E6F450E010134
:101180007D6F4CECAEF00009D8B4BAD00101C1C1FA
:101190007CF10101C0C17BF1FD0E01017E6F580E93
:1011A00001017D6FC9ECB0F00009D8A408D0F60E9B
:1011B00001017D6F1F0E01017C6FB3ECADF00101E9
:1011C000C1C182F10101C0C181F138ECA2F001017D
:1011D00081C1D4F5010182C1D5F50501D4057D0E8B
:1011E000D8B4D519D8A412D0F60E01017D6F730EB4
:1011F00001017C6FB3ECADF0FC0E01018E6F7C0E33
:1012000001018D6FB5ECB4F028EF92F00501D551D6
:10121000800A800F650ED8B4D45DD8A012D0F30E2A
:1012200001017D6F480E01017C6FB3ECADF0FA0E49
:1012300001018E6F880E01018D6FB5ECB4F028EFBF
:1012400092F00501D551800AF36E800EF35C000E1A
:10125000D8B4D45DD8B012D0F40E01017D6F900ED9
:1012600001017C6FB3ECADF0FC0E01018E6FA80E96
:1012700001018D6FB5ECB4F028EF92F00501D45167
:10128000DEECAAF00501050E0101886F0501000ED4
:101290000101876FF70E01018A6FE50E0101896F69
:1012A000D4C58BF1D5C58CF131EC92F00501050E5A
:1012B00001017D6F0501000E01017C6FB3ECADF003
:1012C0000501050E0101886F0501000E0101876F00
:1012D000FB0E01018A6FF50E0101896FD4C58BF1F8
:1012E000D5C58CF131EC92F00501050E01018E6F30
:1012F0000501000E01018D6FB5ECB4F028EF92F0FE
:10130000F20E01017D6F920E01017C6FB3ECADF026
:10131000FA0E01018E6FC80E01018D6FB5ECB4F0AD
:1013200028EF92F0F60E01017D6FF70E01017C6F40
:10133000B3ECADF0F10E01017D6FA30E01017C6FE6
:10134000B3ECADF0F30E01017D6F1E0E01017C6F59
:10135000B3ECADF0FA0E01018B6F560E01018A6FEE
:1013600038ECA0F0FE0E01018B6F650E01018A6F53
:1013700038ECA0F0FE0E01018B6F510E01018A6F57
:1013800038ECA0F028EF92F00101C1C17CF101011D
:10139000C0C17BF1FE0E01017E6FEA0E01017D6F7F
:1013A0004CECAEF00009D8B4FDD00101C1C17CF114
:1013B0000101C0C17BF1FA0E01017E6FA60E010191
:1013C0007D6FC9ECB0F00009D8A4BAD00101C1C149
:1013D0007CF10101C0C17BF1FD0E01017E6F580E51
:1013E00001017D6FC9ECB0F00009D8A408D001015B
:1013F000C1C18BF10101C0C18AF15CECA1F0010116
:10140000C1C182F10101C0C181F138ECA2F001013A
:1014100081C1D0F5010182C1D1F50501D0057D0E54
:10142000D8B4D119D8A412D0F60E01017D6F730E75
:1014300001017C6FB3ECADF0FC0E01018E6F6D0EFF
:1014400001018D6FB5ECB4F028EF92F00501D15198
:10145000800A800F650ED8B4D05DD8A012D0F20EED
:1014600001017D6FC30E01017C6FB3ECADF0FA0E8C
:1014700001018E6F780E01018D6FB5ECB4F028EF8D
:1014800092F00501D151800AF36E800EF35C000EDC
:10149000D8B4D05DD8B012D0F20E01017D6FF30E3A
:1014A00001017C6FB3ECADF0FC0E01018E6F9A0E62
:1014B00001018D6FB5ECB4F028EF92F00501D05129
:1014C000AAECA8F00501050E0101886F0501000EC8
:1014D0000101876FF50E01018A6F130E0101896FFB
:1014E000D0C58BF1D1C58CF131EC92F00501050E20
:1014F00001017D6F0501000E01017C6FB3ECADF0C1
:101500000501050E0101886F0501000E0101876FBD
:10151000FB0E01018A6FE60E0101896FD4C58BF1C4
:10152000D5C58CF131EC92F00501050E01018E6FED
:101530000501000E01018D6FB5ECB4F028EF92F0BB
:10154000F60E01017D6FC30E01017C6FB3ECADF0AF
:10155000F10E01017D6FE50E01017C6FB3ECADF082
:10156000F30E01017D6F1E0E01017C6FB3ECADF037
:10157000FD0E01018B6F8E0E01018A6F38ECA0F019
:10158000FE0E01018B6F650E01018A6F38ECA0F031
:10159000FE0E01018B6F5B0E01018A6F38ECA0F02B
:1015A00028EF92F00101C1C17CF10101C0C17BF1C2
:1015B000FF0E01017E6FE10E01017D6F4CECAEF07C
:1015C0000009D8B46FD10101C1C17CF10101C0C1D2
:1015D0007BF1FA0E01017E6FA60E01017D6FC9EC51
:1015E000B0F00009D8A41CD10101C1C17CF10101F6
:1015F000C0C17BF1FD0E01017E6F580E01017D6FB0
:10160000C9ECB0F00009D8A408D00101C1C18BF128
:101610000101C0C18AF15CECA1F00101C1C182F1FC
:101620000101C0C181F138ECA2F0010181C1D2F504
:10163000010182C1D3F50501D3517D0A020ED8B450
:10164000D219D8A412D0F40E01017D6FD20E01017F
:101650007C6FB3ECADF0FD0E01018E6F4D0E0101FC
:101660008D6FB5ECB4F028EF92F00501D351800AEC
:10167000F36E800EF35C000ED8B4D25DD8B012D0F9
:10168000F50E01017D6F720E01017C6FB3ECADF0C0
:10169000FB0E01018E6F880E01018D6FB5ECB4F069
:1016A00028EF92F00501D351800A030F000ED8B441
:1016B000D25DD8A012D0F60E01017D6F030E01019C
:1016C0007C6FB3ECADF0FB0E01018E6F480E010193
:1016D0008D6FB5ECB4F028EF92F00501D351D21123
:1016E000D8B43ED00501050E0101886F0501000E3A
:1016F0000101876FF50E01018A6FAD0E0101896F3F
:10170000D2C58BF1D3C58CF131EC92F00501050EF9
:1017100001017D6F0501000E01017C6FB3ECADF09E
:101720000501050E0101886F0501000E0101876F9B
:10173000F90E01018A6FAC0E0101896FD4C58BF1DE
:10174000D5C58CF131EC92F00501050E01018E6FCB
:101750000501000E01018D6FB5ECB4F028EF92F099
:101760008D82E80E01017B6F030E01017C6F000E7C
:1017700001017D6F000E01017E6FC0ECB1F005012B
:10178000D251D5ECB2F0010180C1C8F5010181C18F
:10179000C9F50501050E0101886F0501000E010163
:1017A000876FF80E01018A6F3B0E0101896FD2C568
:1017B0008BF1D3C58CF1C8C58DF1C9C58EF131EC63
:1017C00092F08D920501050E01017D6F0501000E5D
:1017D00001017C6FB3ECADF00501050E0101886FCE
:1017E0000501000E0101876FFD0E01018A6F670E72
:1017F0000101896FD2C58BF1D3C58CF1C8C58DF1BC
:10180000C9C58EF131EC92F00501050E01018E6F14
:101810000501000E01018D6FB5ECB4F028EF92F0D8
:10182000F90E01017D6F8A0E01017C6FB3ECADF002
:10183000FD0E01017D6FC10E01017C6FB3ECADF0B7
:10184000FF0E01017D6FB40E01017C6FB3ECADF0B2
:10185000F00E01017D6FD10E01017C6FB3ECADF094
:10186000FD0E01017D6F260E01017C6FB3ECADF022
:10187000FE0E01018B6FF30E01018A6F38ECA0F0B0
:10188000FE0E01018B6F650E01018A6F38ECA0F02E
:10189000FC0E01018B6FA60E01018A6F38ECA0F0DF
:1018A00028EF92F00101C1C17CF10101C0C17BF1BF
:1018B000FF0E01017E6FE50E01017D6F4CECAEF075
:1018C0000009D8B4E8D20101C1C17CF10101C0C155
:1018D0007BF1FA0E01017E6FA60E01017D6FC9EC4E
:1018E000B0F00009D8A46ED20101C1C17CF10101A0
:1018F000C0C17BF1FF0E01017E6F570E01017D6FAC
:10190000C9ECB0F00009D8B4DDD0020ED5ECB2F0CD
:10191000080E010180250501CA6F000E0101812119
:101920000501CB6F000E0101996FA00E01019A6FA6
:10193000400E01019B6F000E01018A6F800E0101B4
:101940008B6F440E01018C6FCAC583F1CBC584F146
:1019500090ECB5F083C187F184C188F185C189F12C
:1019600048ECA5F087C196F188C197F189C198F13B
:101970008DECA4F096C1A5F197C1A6F198C1A7F18D
:10198000CFECA3F0A5C1C2F1A6C1C3F1A7C1C4F1B8
:10199000A8C1C5F1C2C1CCF5C3C1CDF5000E01018E
:1019A000996FFA0E01019A6F430E01019B6F000EB1
:1019B00001018A6F800E01018B6F440E01018C6F53
:1019C000CAC583F1CBC584F190ECB5F083C187F132
:1019D00084C188F185C189F148ECA5F087C196F1F1
:1019E00088C197F189C198F18DECA4F096C1A5F159
:1019F00097C1A6F198C1A7F1CFECA3F0A5C1C2F1A0
:101A0000A6C1C3F1A7C1C4F1A8C1C5F1C2C1CEF539
:101A1000C3C1CFF5CEC582F1CFC583F1000E010160
:101A2000856F640E0101846F6DECB3F0010182C11A
:101A3000CEF5010183C1CFF50501050E0101886FC7
:101A40000501000E0101876FF40E01018A6F040E7B
:101A50000101896FCCC58BF1CDC58CF1CEC58DF15F
:101A6000CFC58EF131EC92F00501050E01017D6FBD
:101A70000501000E01017C6FB3ECADF00501050E10
:101A80000101886F0501000E0101876FFB0E010146
:101A90008A6F280E0101896FCCC58BF1CDC58CF101
:101AA000CEC58DF1CFC58EF131EC92F00501050E5A
:101AB00001018E6F0501000E01018D6FB5ECB4F0D0
:101AC00028EF92F00101C1C17CF10101C0C17BF19D
:101AD000FF0E01017E6FDC0E01017D6FC9ECB0F0DD
:101AE0000009D8B4BAD01EECA9F00009D8A49ED041
:101AF0000501050E0101AF6F0501000E0101AE6F7A
:101B000021EE00F011EEB0F0090EDECFE6FFE82E78
:101B1000FCD7000E0101B96F21ECA7F00501050EFD
:101B200001017D6F0501000E01017C6FB3ECADF08A
:101B3000F70E01017D6FE20E01017C6FB3ECADF099
:101B4000000E0101896F000E2DECB5F0F90E0101B8
:101B50008A6FDF0E0101896F46ECB1F0010104517B
:101B6000D8B42AD00501050E0101886F0501000EC9
:101B70000101876FF70E01018A6FB80E0101896FAD
:101B8000010107C18BF101018C6B010106C18DF1CF
:101B900001018E6B010102C18FF10101906B010106
:101BA00001C191F10101926B010100C193F10101A9
:101BB000946B31EC92F029D00501050E0101886F7C
:101BC0000501000E0101876FF70E01018A6FA10E5A
:101BD0000101896F010107C18BF101018C6B0101CA
:101BE00006C18DF101018E6B010102C18FF101016E
:101BF000906B010101C191F10101926B010100C1E2
:101C000093F10101946B31EC92F0000E0101896FA8
:101C1000010E2DECB5F00501050E01018A6F0501DD
:101C2000000E0101896F46ECB1F0F5D3F70E01010A
:101C30007D6F5A0E01017C6FB3ECADF0000E010117
:101C4000896F010E2DECB5F0FA0E01018A6F010EBD
:101C50000101896F46ECB1F0DED30101C1C17CF115
:101C60000101C0C17BF1FF0E01017E6FF90E010180
:101C70007D6FC9ECB0F00009D8B49BD0F30E010120
:101C80007D6FDF0E01017C6FB3ECADF0F40E01014E
:101C90007D6F6E0E01017C6FB3ECADF00101C1C12F
:101CA0007CF10101C0C17BF1000E01017E6F640E69
:101CB00001017D6FCCECB3F0F50E01017D6FE50EF7
:101CC00001017C6FB3ECADF0C0C1D9FFC1C1DAFF37
:101CD000DF50D8B4F9D70101C1C17CF10101C0C105
:101CE0007BF172ECAFF00101C1C17CF10101C0C117
:101CF0007BF16BEC9AF00009D8B44AD021EE00F0E9
:101D000011EE83F0090EDECFE6FFE82EFCD7D6EC0D
:101D10009EF00009D8A433D0F60E01017D6FDD0ED0
:101D200001017C6FB3ECADF01EECA9F00501050ECE
:101D30000101AF6F0501000E0101AE6F21EE00F051
:101D400011EEB0F0090EDECFE6FFE82EFCD7000E54
:101D50000101B96F21ECA7F00501050E01017D6FAE
:101D60000501000E01017C6FB3ECADF0F70E01012F
:101D70007D6FE20E01017C6FB3ECADF069D3F60E1E
:101D800001017D6F570E01017C6FB3ECADF060D3A4
:101D9000F70E01017D6F100E01017C6FB3ECADF009
:101DA000F40E01017D6FB10E01017C6FB3ECADF05B
:101DB0004FD3FD0E01017D6F400E01017C6FB3EC2E
:101DC000ADF046D3F50E01017D6F900E01017C6FE1
:101DD000B3ECADF0FD0E01017D6FFC0E01017C6FD7
:101DE000B3ECADF0FE0E01017D6F470E01017C6F7B
:101DF000B3ECADF0FF0E01017D6F7B0E01017C6F36
:101E0000B3ECADF0FF0E01017D6F6D0E01017C6F33
:101E1000B3ECADF0F10E01017D6F1A0E01017C6F84
:101E2000B3ECADF0F20E01017D6F230E01017C6F6A
:101E3000B3ECADF0F80E01017D6F260E01017C6F51
:101E4000B3ECADF0FE0E01018B6FFC0E01018A6F49
:101E500038ECA0F0FE0E01018B6F650E01018A6F58
:101E600038ECA0F0FF0E01018B6F4F0E01018A6F5D
:101E700038ECA0F0FF0E01018B6FD70E01018A6FC5
:101E800038ECA0F0FF0E01018B6FF50E01018A6F97
:101E900038ECA0F0DDD20101C1C17CF10101C0C16B
:101EA0007BF1FF0E01017E6FE90E01017D6F4CECAD
:101EB000AEF00009D8B44DD10101C1C17CF10101DE
:101EC000C0C17BF1FA0E01017E6FA60E01017D6F8C
:101ED000C9ECB0F00009D8A4FBD00101C1C17CF16C
:101EE0000101C0C17BF1FA0E01017E6F340E0101C8
:101EF0007D6F08ECB1F00009D8B464D0F29EF00E0A
:101F00000101876F7D0E0101866F010EFFECAFF0BE
:101F1000F00E0101876F7D0E0101866F010EFFEC4F
:101F2000AFF0F00E0101876F7D0E0101866F010E8B
:101F3000FFECAFF0F00E0101876F7D0E0101866F9F
:101F4000010EFFECAFF0F00E0101876F7D0E010175
:101F5000866F010EFFECAFF0F00E0101876F7D0E72
:101F60000101866F010EFFECAFF0F00E0101876FEB
:101F70007D0E0101866F010EFFECAFF0F00E010146
:101F8000876F7D0E0101866F010EFFECAFF0F00E42
:101F90000101876F7D0E0101866F010EFFECAFF02E
:101FA000F28EF80E01017D6F770E01017C6FB3ECAC
:101FB000ADF0FC0E01018E6F5E0E01018D6FB5EC70
:101FC000B4F046D20101C1C17CF10101C0C17BF175
:101FD000F90E01017E6F320E01017D6F08ECB1F048
:101FE0000009D8B464D0F29EF00E0101876F6D0E27
:101FF0000101866F010EFFECAFF0F00E0101876F5B
:102000006D0E0101866F010EFFECAFF0F00E0101C5
:10201000876F6D0E0101866F010EFFECAFF0F00EC1
:102020000101876F6D0E0101866F010EFFECAFF0AD
:10203000F00E0101876F6D0E0101866F010EFFEC3E
:10204000AFF0F00E0101876F6D0E0101866F010E7A
:10205000FFECAFF0F00E0101876F6D0E0101866F8E
:10206000010EFFECAFF0F00E0101876F6D0E010164
:10207000866F010EFFECAFF0F00E0101876F6D0E61
:102080000101866F010EFFECAFF0F28EF80E010138
:102090007D6F4F0E01017C6FB3ECADF0FB0E0101C3
:1020A0008E6F780E01018D6FB5ECB4F0D1D1F80EC2
:1020B00001017D6F9E0E01017C6FB3ECADF0FA0E55
:1020C00001018E6FD80E01018D6FB5ECB4F0C0D157
:1020D000F70E01017D6F8A0E01017C6FB3ECADF04C
:1020E000FD0E01017D6FF10E01017C6FB3ECADF0CF
:1020F000FE0E01017D6FAB0E01017C6FB3ECADF004
:10210000F10E01017D6F5F0E01017C6FB3ECADF04C
:10211000F60E01017D6F3B0E01017C6FB3ECADF05B
:10212000FC0E01018B6FFC0E01018A6F38ECA0F0F0
:10213000FE0E01018B6FB40E01018A6F38ECA0F026
:10214000FF0E01018B6FA80E01018A6F38ECA0F021
:102150007FD10101C1C17CF10101C0C17BF1FA0E47
:1021600001017E6FA60E01017D6F08ECB1F0000940
:10217000D8B45ED1FD0E01017D6FB50E01017C6FFB
:10218000B3ECADF0FE0E01017D6F3D0E01017C6FE1
:10219000B3ECADF0FD0E01017D6F330E01017C6FDC
:1021A000B3ECADF0FD0E01017D6FCD0E01017C6F32
:1021B000B3ECADF0F90E01017D6FBD0E01017C6F36
:1021C000B3ECADF0FE0E01017D6F070E01017C6FD7
:1021D000B3ECADF0FF0E01017D6F900E01017C6F3D
:1021E000B3ECADF0FF0E01017D6F5F0E01017C6F5E
:1021F000B3ECADF0F20E01017D6F600E01017C6F5A
:10220000B3ECADF0F70E01017D6FCF0E01017C6FD5
:10221000B3ECADF0FB0E01017D6FC80E01017C6FC8
:10222000B3ECADF0000E0101896F000E2DECB5F09E
:10223000FE0E01018A6F8D0E0101896F46ECB1F02F
:102240001EECA9F00009D8A4D0D00501050E0101AB
:10225000AF6F0501000E0101AE6F21EE00F011EE2F
:10226000B0F0090EDECFE6FFE82EFCD7000E01012C
:10227000B96F21ECA7F00501050E01017D6F050185
:10228000000E01017C6FB3ECADF0F70E01017D6F24
:10229000E20E01017C6FB3ECADF001010451D8B442
:1022A0002AD00501050E0101886F0501000E01010C
:1022B000876FF70E01018A6FB80E0101896F010166
:1022C00007C18BF101018C6B010106C18DF1010188
:1022D0008E6B010102C18FF10101906B010101C1FF
:1022E00091F10101926B010100C193F10101946B25
:1022F00031EC92F029D00501050E0101886F05012E
:10230000000E0101876FF70E01018A6FA10E010116
:10231000896F010107C18BF101018C6B010106C1BD
:102320008DF101018E6B010102C18FF10101906BF2
:10233000010101C191F10101926B010100C193F111
:102340000101946B31EC92F0000E0101896F010ED6
:102350002DECB5F00501050E01018A6F0501000E97
:102360000101896F46ECB1F0FC0E01018B6FB60ED6
:1023700001018A6F38ECA0F0FE0E01018B6FBD0EDB
:1023800001018A6F38ECA0F0FD0E01018B6FD90EB0
:1023900001018A6F38ECA0F0FE0E01018B6F120E66
:1023A00001018A6F38ECA0F0FA0E01018B6FE80E84
:1023B00001018A6F38ECA0F0FE0E01018B6F6F0EE9
:1023C00001018A6F38ECA0F0FF0E01018B6FCD0E7A
:1023D00001018A6F38ECA0F0FF0E01018B6FD20E65
:1023E00001018A6F38ECA0F016D0F70E01017D6F65
:1023F0005A0E01017C6FB3ECADF0000E0101896F44
:10240000010E2DECB5F0FA0E01018A6F010E0101EB
:10241000896F46ECB1F0000E0101C86F000E01019A
:10242000C96F000E0101CA6F000E0101CB6F10D001
:10243000FB0E01017D6F380E01017C6FB3ECADF036
:10244000FB0E01018E6F380E01018D6FB5ECB4F0FB
:10245000F70E01017D6FE00E01017C6FB3ECADF072
:1024600012000101010E0101A36F01018B0E010198
:10247000A26FACEF97F00101AB51250AD8B40CD094
:1024800087C1D9FF88C1DAFF0101ABC1DFFF0101BC
:10249000874B882BACEF97F0000E0101A66F000E62
:1024A0000101A56F000E0101AD6F000E0101AC6FBF
:1024B0000ED00101AC8708D00101AC8105D001012B
:1024C000AD8702D00101AC850101894B8A2B010146
:1024D00089C1F6FF01018AC1F7FF000EF86E0800FE
:1024E000F550200AD8B4E8D7030AD8B4E8D70E0AC2
:1024F000D8B4DFD71D0AD8B4E5D70101ACA702D004
:102500000101AC95010189C1F6FF01018AC1F7FF04
:10251000000EF86E0800F550D5ECB5F0D8A04CD000
:10252000000E0101A66F000E0101A56FA5C17BF190
:10253000A6C17CF1000E01017E6F0A0E01017D6FC4
:1025400012ECB5F001017BC1A5F101017CC1A6F13E
:10255000D00E0101976FFF0E986F010189C1F6FF40
:1025600001018AC1F7FF000EF86E0800F550010165
:10257000996F9A6B010197510101992701019851B7
:1025800001019A23010199510101A52701019A51E5
:102590000101A6230101894B8A2B010189C1F6FFA4
:1025A00001018AC1F7FF000EF86E0800F550D5EC66
:1025B000B5F0D8A021D0BAD7010189C1F6FF010139
:1025C0008AC1F7FF000EF86E0800F5502A0AD8A459
:1025D00013D0A2C1D9FFA3C1DAFF0101DECFA5F15B
:1025E0000101DDCFA6F1020E0101A227000E0101BB
:1025F000A3230101894B8A2B010189C1F6FF010147
:102600008AC1F7FF000EF86E0800F5502E0AD8A414
:102610004DD00101AD8D0101894B8A2B010189C18A
:10262000F6FF01018AC1F7FF000EF86E0800F550B1
:102630002A0AD8A411D0A2C1D9FFA3C1DAFFDF5062
:102640000101A46F020E0101A227000E0101A323C4
:102650000101894B8A2BD8D0000E0101A46F17D03D
:10266000010189C1F6FF01018AC1F7FF000EF86E72
:102670000800F5CF97F10101A4510A0DF3500101B3
:102680009725D00F0101A46F0101894B8A2B01010D
:1026900089C1F6FF01018AC1F7FF000EF86E08003C
:1026A000F550D5ECB5F0D8A0AFD0DAD7000E0101C7
:1026B000A46FAAD00101AC8DD1D00101AC8B010176
:1026C000AC8FCCD00101A451D8B41AD00101A4C15F
:1026D00097F10101986B97BF98070101A95101017A
:1026E000975D0101AA5101019859D8B009D00101A3
:1026F000A4510101A96F0101AA6B0101A9BFAA0799
:102700000101A5510101A95D0101A6510101AA59CB
:10271000D8B00AD0010121EEA9F0DE500101A55F79
:10272000DD500101A65B06D0000E0101A66F000E70
:102730000101A56F0101ACA70AD024D087C1D9FF40
:1027400088C1DAFF200EDF6E0101874B882B010163
:10275000A507D8A0A6070101A529D8B4A629D8B4F1
:1027600011D0ECD7A7C1D9FFA8C1DAFF87C1E1FF1B
:1027700088C1E2FFDFCFE7FF0101A74BA82B0101D2
:10278000874B882B0101A907D8A0AA070101A92915
:10279000D8B4AA29D8A4E6D70101ACB70AD0DCD3B3
:1027A00087C1D9FF88C1DAFF200EDF6E0101874B98
:1027B000882B0101A507D8A0A6070101A529D8B437
:1027C000A629D8B4C9D3ECD7A2C1D9FFA3C1DAFFD7
:1027D000DF500101AB6F020E0101A227000E0101C3
:1027E000A3230101010E0101A86F0101AB0E01013C
:1027F000A76F000E0101AA6F010E0101A96F62D738
:10280000C00E0101AC132AD0010189C1F6FF0101FC
:102810008AC1F7FF0101894B8A2B000EF86E080070
:102820000101F5CFABF10101AB51000AD8B4A7D338
:10283000580AD8B442D73B0AD8B4C6D7070AD8B486
:102840000DD00D0AD8B40AD0060AD8B433D71A0A64
:10285000D8B4D6D70D0AD8B432D7C3D7C00E010129
:10286000AC150101976F000E0101AD150101986FC4
:10287000010198519711D8A425D0A2C1D9FFA3C1B5
:10288000DAFF0101DECFA7F10101DDCFA8F1020ED1
:102890000101A227000E0101A3230101A851800A12
:1028A000F36E800EF35C000ED8B4A75DD8B01AD0DA
:1028B000030E0101AC130101A76D0101A81FD8B0DF
:1028C000A82B10D0A2C1D9FFA3C1DAFF0101DECF2E
:1028D000A7F10101DDCFA8F1020E0101A227000E30
:1028E0000101A3230101A4677DD00101A851A71113
:1028F000D8A478D00101A42B75D0010E0101AB6FD3
:102900000101AB51050AD8B47CD00101AB51020DD5
:10291000FB0EF324F66EEF0EF420F76EF86A000E4D
:10292000F8220900F5CF97F10900F5CF98F10101E0
:1029300097510101A75D010198510101A859D8A043
:1029400060D00101AB2BDCD7010E0101AB6F01019F
:10295000AB51040AD8B455D00101AB51020D050E9C
:10296000F324F66EF00EF420F76EF86A000EF822EB
:102970000900F5CF97F10900F5CF98F101019751C2
:102980000101A75D010198510101A859D8A039D0D2
:102990000101AB2BDCD7010E0101AB6F0101AB5183
:1029A000060AD8B42ED00101AB51020DEF0EF3246C
:1029B000F66EEF0EF420F76EF86A000EF8220900AA
:1029C000F5CF97F10900F5CF98F101019751010179
:1029D000A75D010198510101A859D8A012D00101A9
:1029E000AB2BDCD70101AC51C00B000AD8B485D7A2
:1029F000400AD8B4D0D7C00AD8B4A6D7400AD8B4B1
:102A00007CD70101AB51800A0101976F0101A451EC
:102A1000800A0101975DD8B003D0A4C1ABF10DD0FD
:102A20000101A451800A0101976F0101AB51800A95
:102A30000101975DD8A0ABC1A4F10101A651A51178
:102A4000D8B413D0030E0101AC150101976F000E2D
:102A50000101AD150101986F010198519711D8B48A
:102A600004D00101A507D8A0A6070101ADAD22D071
:102A7000800E0101A4BF7F0E0101976F0101A551D6
:102A80000101A45D0101A651800A01019759D8B046
:102A90000BD00101A4510101A55F000E0101A4BFEB
:102AA000FF0E0101A65B06D0000E0101A66F000E0D
:102AB0000101A56FC40E0101976F080E986F010107
:102AC000ACC199F10101ADC19AF101019751010128
:102AD00099170101985101019A1701019A51080AA9
:102AE000400ED8B49919D8A40AD00101A651A51155
:102AF000D8B437D00101A507D8A0A60732D0C00EA0
:102B00000101976F080E986F0101ACC199F10101A5
:102B1000ADC19AF101019751010199170101985135
:102B200001019A1701019A51080A800ED8B4991927
:102B3000D8A417D00101A651800A800F030ED8B483
:102B4000A55DD8A008D00101FE0E0101A527FF0E4A
:102B50000101A62306D0000E0101A66F000E01019F
:102B6000A56F800E0101ABBF7F0E0101976F0101C0
:102B7000A5510101AB5D0101A651800A01019759E0
:102B8000D8B00BD00101AB510101A55F000E0101CE
:102B9000ABBFFF0E0101A65B06D0000E0101A66FC0
:102BA000000E0101A56F0101ACA56FD0030E01015C
:102BB000AC150101976F000E0101AD150101986F71
:102BC000010198519711D8B406D087C1D9FF88C1A7
:102BD000DAFF2D0E08D00101ACA107D087C1D9FFC3
:102BE00088C1DAFF200EDF6E39D0C00E0101976F69
:102BF000080E986F0101ACC199F10101ADC19AF1C4
:102C000001019751010199170101985101019A178A
:102C100001019A51080A800ED8B49919D8A421D07C
:102C200087C1D9FF88C1DAFF300EDF6E0101874B03
:102C3000882B0101ACBB05D0000E01019D6F780E01
:102C400004D0000E01019D6F580E01019C6F87C1D9
:102C5000D9FF88C1DAFF01019CC1DFFF0101874B69
:102C6000882B01010101A651A511D8B451D187C10A
:102C7000D9FF88C1DAFF300EDF6E0101874B882B48
:102C80000101A507D8A0A607EDD70101A651A511FE
:102C9000D8B415D00101ACB712D087C1D9FF88C113
:102CA000DAFF200EDF6E0101874B882B0101A5079B
:102CB000D8A0A6070101A651A511D8A4EED7030EEE
:102CC0000101AC150101976F000E0101AD15010165
:102CD000986F010198519711D8B406D087C1D9FFD8
:102CE00088C1DAFF2D0E08D00101ACA109D087C13F
:102CF000D9FF88C1DAFF200EDF6E0101874B882BD8
:102D0000C00E0101976F080E986F0101ACC199F1D7
:102D10000101ADC19AF1010197510101991701011A
:102D2000985101019A1701019A51080A400ED8B42E
:102D30009919D8A407D087C1D9FF88C1DAFF300E0E
:102D4000DF6EE3D0C00E0101976F080E986F01018E
:102D5000ACC199F10101ADC19AF101019751010195
:102D600099170101985101019A1701019A51080A16
:102D7000800ED8B49919D8A4CBD087C1D9FF88C107
:102D8000DAFF300EDF6E0101874B882B0101ACBBEF
:102D900005D0000E01019F6F780E04D0000E0101D6
:102DA0009F6F580E01019E6F87C1D9FF88C1DAFF5E
:102DB00001019EC1DFFFA9D00101A451020DFB0E4C
:102DC000F324F66EEF0EF420F76EF86A000EF82288
:102DD00009000101F5CF7DF10A000101F5CF7EF177
:102DE000A7C17BF1A8C17CF184ECB1F001017BC1EA
:102DF00082F101017CC183F1000E0101856F0A0E91
:102E00000101846F6DECB3F00101825164D0A7C160
:102E10007BF1A8C17CF10101A451020D050EF32440
:102E2000F66EF00EF420F76EF86A000EF822090034
:102E30000101F5CF7DF10A000101F5CF7EF184ECAF
:102E4000B1F001017B510F0B01019B6F0101ACBB84
:102E500005D0F90E0101A16F790E04D0F90E010120
:102E6000A16F680E0101A06F01019B51010D0101CD
:102E7000A0C197F10101A1C198F1F3500101972779
:102E8000F4500101982397C1F6FF98C1F7FF000E97
:102E9000F86E08000101F5CFABF130D0A7C17BF18E
:102EA000A8C17CF10101A451020DEF0EF324F66ECE
:102EB000EF0EF420F76EF86A000EF8220900010107
:102EC000F5CF7DF10A000101F5CF7EF184ECB1F080
:102ED00001017B51070B300F0101AB6F0FD00101D6
:102EE000AC51C00B000AD8B467D7400AD8B4D6D7C3
:102EF000C00AD8B48CD7400AD8B45ED787C1D9FFEE
:102F000088C1DAFF0101ABC1DFFF0101874B882BCC
:102F10000101A4070101A429D8A4E1D70101ACA7AC
:102F20001BD00101A651800A800F010ED8B4A55D07
:102F3000D8A012D087C1D9FF88C1DAFF200EDF6E7A
:102F40000101874B882B0101A507D8A0A607010125
:102F5000A651A511D8A4EED7010189C1F6FF010140
:102F60008AC1F7FF0101894B8A2B000EF86E080019
:102F70000101F5CFABF10101AB673BEF92F087C1E7
:102F8000D9FF88C1DAFF000EDF6E12000A0E0101C0
:102F90007B6F000E01017C6F000E01017D6F000E42
:102FA00001017E6FC0ECB1F0A70E01018D6F610EC3
:102FB0008E6F000E8F6F000E906F01018D51010119
:102FC000C85D01018E510101C95901018F510101F3
:102FD000CA59010190510101CB59D8B00ED0010E50
:102FE0000101C827000E0101C9230101CA23010103
:102FF000CB23010E0101096F12000101C951610AC1
:10300000A70ED8B4C819CA11CB11D8A41200010E4A
:103010000101C827000E0101C9230101CA230101D2
:10302000CB23000E0101096F01010B670FD0000EC9
:1030300001010A6F39ECB6F0000E0101896F000E34
:103040002DECB5F03E0E5CECB6F0120001010A2B3F
:1030500001010A05D8A413D039ECB6F0000E010125
:10306000896F010E2DECB5F00101010E01018A6F8F
:1030700001010D0E0101896F46ECB1F013D201017F
:103080000A51020AD8A433D039ECB6F0000E01017F
:10309000896F000E2DECB5F00101010E01018A6F60
:1030A00001010D0E0101896F46ECB1F0000E010126
:1030B000896F010E2DECB5F00101010E01018A6F3F
:1030C00001011D0E0101896F46ECB1F00101010EF5
:1030D00001017C6F01010D0E01017B6F000E0101EA
:1030E0007E6F100E01017D6FCCECB3F0DBD10101DE
:1030F0000A51030AD8A433D039ECB6F0000E01010E
:10310000896F000E2DECB5F00101010E01018A6FEF
:1031100001011D0E0101896F46ECB1F0000E0101A5
:10312000896F010E2DECB5F00101010E01018A6FCE
:1031300001012D0E0101896F46ECB1F00101010E74
:1031400001017C6F01011D0E01017B6F000E010169
:103150007E6F100E01017D6FCCECB3F0A3D10101A5
:103160000A51040AD8A433D039ECB6F0000E01019C
:10317000896F000E2DECB5F00101010E01018A6F7F
:1031800001012D0E0101896F46ECB1F0000E010125
:10319000896F010E2DECB5F00101010E01018A6F5E
:1031A00001013D0E0101896F46ECB1F00101010EF4
:1031B00001017C6F01012D0E01017B6F000E0101E9
:1031C0007E6F100E01017D6FCCECB3F06BD101016D
:1031D0000A51050AD8A433D039ECB6F0000E01012B
:1031E000896F000E2DECB5F00101010E01018A6F0F
:1031F00001013D0E0101896F46ECB1F0000E0101A5
:10320000896F010E2DECB5F00101010E01018A6FED
:1032100001014D0E0101896F46ECB1F00101010E73
:1032200001017C6F01013D0E01017B6F000E010168
:103230007E6F100E01017D6FCCECB3F033D1010134
:103240000A51060AD8A433D039ECB6F0000E0101B9
:10325000896F000E2DECB5F00101010E01018A6F9E
:1032600001014D0E0101896F46ECB1F0000E010124
:10327000896F010E2DECB5F00101010E01018A6F7D
:1032800001015D0E0101896F46ECB1F00101010EF3
:1032900001017C6F01014D0E01017B6F000E0101E8
:1032A0007E6F100E01017D6FCCECB3F0FBD00101FD
:1032B0000A51070AD8A431D039ECB6F0000E01014A
:1032C000896F000E2DECB5F00101010E01018A6F2E
:1032D00001015D0E0101896F46ECB1F0000E0101A4
:1032E000896F010E2DECB5F0000E01018A6F270EDB
:1032F0000101896F46ECB1F00101010E01017C6F03
:1033000001015D0E01017B6F000E01017E6F100E49
:1033100001017D6FCCECB3F0C5D001010A51080A60
:10332000D8A42DD039ECB6F0000E0101896F000E43
:103330002DECB5F0000E01018A6F270E0101896F97
:1033400046ECB1F0000E0101896F010E2DECB5F0D5
:10335000000E01018A6F370E0101896F46ECB1F052
:10336000000E01017C6F270E01017B6F000E010131
:103370007E6F100E01017D6FCCECB3F093D0010194
:103380000A51090AD8A42FD039ECB6F0000E010179
:10339000896F000E2DECB5F0000E01018A6F370E1B
:1033A0000101896F46ECB1F0000E0101896F010E39
:1033B0002DECB5F00001000E01018A6F0001E90E4D
:1033C0000101896F46ECB1F0000E01017C6F370EF0
:1033D00001017B6F000E01017E6F100E01017D6FF8
:1033E000CCECB3F05FD001010A510A0AD8A433D063
:1033F00039ECB6F0000E0101896F000E2DECB5F02E
:103400000001000E01018A6F0001E90E0101896FC0
:1034100046ECB1F0000E0101896F010E2DECB5F004
:103420000001000E01018A6F0001D90E0101896FB0
:1034300046ECB1F00001000E01017C6F0001E90EC5
:1034400001017B6F000E01017E6F100E01017D6F87
:10345000CCECB3F027D001010A510B0AD8A422D03A
:1034600039ECB6F0000E0101896F000E2DECB5F0BD
:103470000001000E01018A6F0001D90E0101896F60
:1034800046ECB1F00001000E01017C6F0001D90E85
:1034900001017B6F000E01017E6F100E01017D6F37
:1034A000CCECB3F001010A5101010B5DD8B006D09C
:1034B000000E01010B6F000E01010A6F980E010151
:1034C000C86F3A0E0101C96F000E0101CA6F000EEC
:1034D0000101CB6F1200000E01017E6F7BC1D9FF8D
:1034E0007CC1DAFFDF50D8B40AD0200E7BC1D9FFEF
:1034F0007CC1DAFFDF6203D001017B4B7C2B7BC1F7
:10350000D9FF7CC1DAFF2F0EDF6418D07BC1D9FF51
:103510007CC1DAFFDF5001017D6F3A0E01017D5D54
:10352000D8B00CD07BC1D9FF7CC1DAFFDF50D00FFF
:1035300001017E6F01017B4B7C2B02D0000E12003B
:103540007BC1D9FF7CC1DAFF2F0EDF641ED07BC1A7
:10355000D9FF7CC1DAFFDF5001017D6F3A0E010116
:103560007D5DD8B012D00A0E01017E03F350010137
:103570007E6F7BC1D9FF7CC1DAFFDF50D00F010124
:103580007E2701017B4B7C2B0AD02F0E7BC1D9FFFC
:103590007CC1DAFFDF6201D002D0000E12007EC1D2
:1035A00086F12F0E7BC1D9FF7CC1DAFFDF6204D028
:1035B00001017B4B7C2B02D0000E12007BC1D9FF96
:1035C0007CC1DAFF2F0EDF6418D07BC1D9FF7CC12C
:1035D000DAFFDF5001017D6F3A0E01017D5DD8B049
:1035E0000CD07BC1D9FF7CC1DAFFDF50D00F0101C5
:1035F0007E6F01017B4B7C2B02D0000E12007BC141
:10360000D9FF7CC1DAFF2F0EDF641ED07BC1D9FF4A
:103610007CC1DAFFDF5001017D6F3A0E01017D5D53
:10362000D8B012D00A0E01017E03F35001017E6F63
:103630007BC1D9FF7CC1DAFFDF50D00F01017E27AB
:1036400001017B4B7C2B0AD02F0E7BC1D9FF7CC1A3
:10365000DAFFDF6201D002D0000E12007EC185F1D8
:103660002F0E7BC1D9FF7CC1DAFFDF6204D00101DC
:103670007B4B7C2B02D0000E12007BC1D9FF7CC19A
:10368000DAFF2F0EDF6418D07BC1D9FF7CC1DAFFCF
:10369000DF5001017D6F3A0E01017D5DD8B00CD085
:1036A0007BC1D9FF7CC1DAFFDF50D00F01017E6FF3
:1036B00001017B4B7C2B02D0000E12007BC1D9FF95
:1036C0007CC1DAFF2F0EDF641ED07BC1D9FF7CC125
:1036D000DAFFDF5001017D6F3A0E01017D5DD8B048
:1036E00012D00A0E01017E03F35001017E6F7BC1EF
:1036F000D9FF7CC1DAFFDF50D00F01017E27010125
:103700007B4B7C2B02D0000E12007EC187F1200E75
:103710007BC1D9FF7CC1DAFFDF6203D001017B4BA3
:103720007C2B7BC1D9FF7CC1DAFF2F0EDF6418D060
:103730007BC1D9FF7CC1DAFFDF5001017D6F3A0EFA
:1037400001017D5DD8B00CD07BC1D9FF7CC1DAFF0F
:10375000DF50D00F01017E6F01017B4B7C2B02D02B
:10376000000E12007BC1D9FF7CC1DAFF2F0EDF648F
:103770001ED07BC1D9FF7CC1DAFFDF5001017D6F14
:103780003A0E01017D5DD8B012D00A0E01017E0310
:10379000F35001017E6F7BC1D9FF7CC1DAFFDF509E
:1037A000D00F01017E2701017B4B7C2B0AD03A0E02
:1037B0007BC1D9FF7CC1DAFFDF6201D002D0000EED
:1037C00012007EC181F13A0E7BC1D9FF7CC1DAFFC4
:1037D000DF6204D001017B4B7C2B02D0000E120073
:1037E0007BC1D9FF7CC1DAFF2F0EDF6418D07BC10B
:1037F000D9FF7CC1DAFFDF5001017D6F3A0E010174
:103800007D5DD8B00CD07BC1D9FF7CC1DAFFDF5021
:10381000D00F01017E6F01017B4B7C2B02D0000E8B
:1038200012007BC1D9FF7CC1DAFF2F0EDF641ED0EE
:103830007BC1D9FF7CC1DAFFDF5001017D6F3A0EF9
:1038400001017D5DD8B012D00A0E01017E03F35054
:1038500001017E6F7BC1D9FF7CC1DAFFDF50D00F41
:1038600001017E2701017B4B7C2B0AD03A0E7BC1E4
:10387000D9FF7CC1DAFFDF6201D002D0000E120056
:103880007EC180F13A0E7BC1D9FF7CC1DAFFDF62D5
:1038900004D001017B4B7C2B02D0000E12007BC1B7
:1038A000D9FF7CC1DAFF2F0EDF6418D07BC1D9FFAE
:1038B0007CC1DAFFDF5001017D6F3A0E01017D5DB1
:1038C000D8B00CD07BC1D9FF7CC1DAFFDF50D00F5C
:1038D00001017E6F01017B4B7C2B02D0000E120098
:1038E0007BC1D9FF7CC1DAFF2F0EDF641ED07BC104
:1038F000D9FF7CC1DAFFDF5001017D6F3A0E010173
:103900007D5DD8B012D00A0E01017E03F350010193
:103910007E6F7BC1D9FF7CC1DAFFDF50D00F010180
:103920007E2701017B4B7C2B02D0000E12007EC152
:103930007FF1200E7BC1D9FF7CC1DAFFDF6203D0AB
:1039400001017B4B7C2B610E7BC1D9FF7CC1DAFF6F
:10395000DF620ED001017B4B7C2B6D0E7BC1D9FF4A
:103960007CC1DAFFDF6202D0000E14D0000E12001C
:10397000700E7BC1D9FF7CC1DAFFDF6210D001017C
:103980007B4B7C2B6D0E7BC1D9FF7CC1DAFFDF62E4
:1039900004D0010E0101836F04D0000E1200000E4E
:1039A00012000D0E0101865DD8B018D0200E010165
:1039B000855DD8B013D0640E0101875DD8B00ED0FC
:1039C0000D0E0101815DD8B009D03C0E0101805D72
:1039D000D8B004D03B0E01017F6502D0000E12006A
:1039E00086C107F185C106F187C108F181C102F1E5
:1039F00080C101F17FC100F183C104F1010E120009
:103A0000000E0101C66F000E0101C76F95ECB6F004
:103A10009DECB3F05FECACF0010E10ECADF000ECFF
:103A2000B6F088ECB6F0F4ECA5F0F8ECB3F079EC75
:103A3000B6F0000E0101C66F22D08C828C94500E1D
:103A400001017B6FC30E01017C6F000E01017D6FD0
:103A5000000E01017E6FC0ECB1F08C848C92500E90
:103A600001017B6FC30E01017C6F000E01017D6FB0
:103A7000000E01017E6FC0ECB1F00101C62B090EF2
:103A80000101C665DAD7410EAAECA8F0140E0101B7
:103A90007B6F000E01017C6F000E01017D6F000E37
:103AA00001017E6FC0ECB1F0000E0101896F000EC4
:103AB0002DECB5F0FF0E01018A6F0E0E0101896F2A
:103AC00046ECB1F0A00E01017B6F860E01017C6F08
:103AD000010E01017D6F000E01017E6FC0ECB1F09F
:103AE000000E0101896F000E2DECB5F0FE0E0101F4
:103AF0008A6FA10E0101896F46ECB1F0A00E0101A1
:103B00007B6F860E01017C6F010E01017D6F000E3F
:103B100001017E6FC0ECB1F0000E0101896F000E53
:103B20002DECB5F0FE0E01018A6F280E0101896FA0
:103B300046ECB1F0A00E01017B6F860E01017C6F97
:103B4000010E01017D6F000E01017E6FC0ECB1F02E
:103B5000000E0101896F000E2DECB5F0FD0E010184
:103B60008A6FE50E0101896F46ECB1F0A00E0101EC
:103B70007B6F860E01017C6F010E01017D6F000ECF
:103B800001017E6FC0ECB1F0000E0101896F000EE3
:103B90002DECB5F0FD0E01018A6FA80E0101896FB1
:103BA00046ECB1F0A00E01017B6F860E01017C6F27
:103BB000010E01017D6F000E01017E6FC0ECB1F0BE
:103BC000000E0101896F000E2DECB5F0FD0E010114
:103BD0008A6F180E0101896F46ECB1F0A00E010149
:103BE0007B6F860E01017C6F010E01017D6F000E5F
:103BF00001017E6FC0ECB1F0000E0101896F000E73
:103C00002DECB5F0FC0E01018A6F8B0E0101896F5E
:103C100046ECB1F0A00E01017B6F860E01017C6FB6
:103C2000010E01017D6F000E01017E6FC0ECB1F04D
:103C3000000E0101896F000E2DECB5F0FB0E0101A5
:103C40008A6FB80E0101896F46ECB1F0A00E010138
:103C50007B6F860E01017C6F010E01017D6F000EEE
:103C600001017E6FC0ECB1F0000E0101896F000E02
:103C70002DECB5F0FA0E01018A6F670E0101896F14
:103C800046ECB1F0A00E01017B6F860E01017C6F46
:103C9000010E01017D6F000E01017E6FC0ECB1F0DD
:103CA000000E0101896F010E2DECB5F0FE0E010131
:103CB0008A6F970E0101896F46ECB1F0A00E0101E9
:103CC0007B6F860E01017C6F010E01017D6F000E7E
:103CD00001017E6FC0ECB1F0F50E01017D6FCA0EDF
:103CE00001017C6FB3ECADF0640E0101C76F15D01C
:103CF0000101C751DEECAAF0500E01017B6FC30E2B
:103D000001017C6F000E01017D6F000E01017E6FCD
:103D1000C0ECB1F0050E0101C75F0101C767E8D72C
:103D2000F90E8C1660ECB5F060ECB5F060ECB5F017
:103D300039ECB6F0000E0101896F000E2DECB5F0E4
:103D40003E0E5CECB6F0C6EC97F003016451D8B4BB
:103D5000FAD7030164510D0AD8B40FD0030164519E
:103D60000A0AD8B40AD00301030E0101C16F03018E
:103D7000640E0101C06F00EC80F00301030E01012D
:103D80007C6F0301640E01017B6F000E01017E6FE9
:103D9000640E01017D6FCCECB3F0F50E01017D6F77
:103DA000E30E01017C6FB3ECADF0CDD7000E010145
:103DB000976F010183C17BF101017C6B000E010152
:103DC0007E6F0A0E01017D6F47ECABF07BC18CF179
:103DD0007CC18DF1010183C17BF101017C6B000E7F
:103DE00001017E6F0A0E01017D6F91ECA9F00101C6
:103DF0007B39F00B01018C250101906F000E010150
:103E00007E6F90C17FF1680EB8ECACF00101976F46
:103E100001019751D8B402D0010E1200010184C1F2
:103E20007BF101017C6B000E01017E6F0A0E010126
:103E30007D6F47ECABF07BC18CF17CC18DF1010152
:103E400084C17BF101017C6B000E01017E6F0A0EC3
:103E500001017D6F91ECA9F001017B39F00B0101AB
:103E60008C250101916F010E01017E6F91C17FF1DF
:103E7000680EB8ECACF00101976F01019751D8B40E
:103E800002D0020E120087C18CF1050E01018D6F68
:103E90000101D8908C3701018D2FFAD7010185C11E
:103EA0007BF101017C6B000E01017E6F0A0E0101A6
:103EB0007D6F47ECABF07BC18EF17CC18FF10101CE
:103EC00085C17BF101017C6B000E01017E6F0A0E42
:103ED00001017D6F91ECA9F001017B39F00B01012B
:103EE0008E2501018C250101926F020E01017E6F6A
:103EF00092C17FF1680EB8ECACF00101976F01013F
:103F00009751D8B402D0030E120088C193F1030E6A
:103F100001017E6F93C17FF1680EB8ECACF0010136
:103F2000976F01019751D8B402D0040E120001011D
:103F300089C17BF101017C6B000E01017E6F0A0ECD
:103F400001017D6F47ECABF07BC18CF17CC18DF141
:103F5000010189C17BF101017C6B000E01017E6FC3
:103F60000A0E01017D6F91ECA9F001017B39F00B84
:103F700001018C250101946F040E01017E6F94C133
:103F80007FF1680EB8ECACF00101976F0101975119
:103F9000D8B402D0050E120001018AC17BF10101E3
:103FA0007C6B000E01017E6F0A0E01017D6F47ECF4
:103FB000ABF07BC18CF17CC18DF101018AC17BF139
:103FC00001017C6B000E01017E6F0A0E01017D6F05
:103FD00091ECA9F001017B39F00B01018C25010165
:103FE000956F050E01017E6F95C17FF1680EB8ECEB
:103FF000ACF00101976F01019751D8B402D0060EC1
:10400000120001018BC17BF101017C6B000E0101EB
:104010007E6F0A0E01017D6F47ECABF07BC18CF126
:104020007CC18DF101018BC17BF101017C6B000E24
:1040300001017E6F0A0E01017D6F91ECA9F0010173
:104040007B39F00B01018C250101966F060E0101F1
:104050007E6F96C17FF1680EB8ECACF00101976FEE
:1040600001019751D8B402D0070E1200000E1200C1
:10407000010109671200980E0101C86F3A0E010193
:10408000C96F000E0101CA6F000E0101CB6F010163
:104090000B2B01010B05D8A417D001018BC184F1B2
:1040A00001018AC183F10101010E0101866F010145
:1040B0000D0E0101856F100E0101876F000E0101C9
:1040C000886FA9ECABF0120001010B51020AD8A4D1
:1040D00017D001018BC184F101018AC183F1010173
:1040E000010E0101866F01011D0E0101856F100E89
:1040F0000101876F000E0101886FA9ECABF012007F
:1041000001010B51030AD8A417D001018BC184F11E
:1041100001018AC183F10101010E0101866F0101D4
:104120002D0E0101856F100E0101876F000E010138
:10413000886FA9ECABF0120001010B51040AD8A45E
:1041400017D001018BC184F101018AC183F1010102
:10415000010E0101866F01013D0E0101856F100EF8
:104160000101876F000E0101886FA9ECABF012000E
:1041700001010B51050AD8A417D001018BC184F1AC
:1041800001018AC183F10101010E0101866F010164
:104190004D0E0101856F100E0101876F000E0101A8
:1041A000886FA9ECABF0120001010B51060AD8A4EC
:1041B00017D001018BC184F101018AC183F1010192
:1041C000010E0101866F01015D0E0101856F100E68
:1041D0000101876F000E0101886FA9ECABF012009E
:1041E00001010B51070AD8A415D001018BC184F13C
:1041F00001018AC183F1000E0101866F270E0101C2
:10420000856F100E0101876F000E0101886FA9EC08
:10421000ABF0120001010B51080AD8A415D001011E
:104220008BC184F101018AC183F1000E0101866F07
:10423000370E0101856F100E0101876F000E01011D
:10424000886FA9ECABF0120001010B51090AD8A448
:1042500017D001018BC184F101018AC183F10001F2
:10426000000E0101866F0001E90E0101856F100E3D
:104270000101876F000E0101886FA9ECABF01200FD
:1042800001010B510A0AD8A4120001018BC184F16B
:1042900001018AC183F10001000E0101866F000156
:1042A000D90E0101856F100E0101876F000E01010B
:1042B000886FA9ECABF01200000E0201656F000ED2
:1042C0000201666FC80E0201646F0201020E010155
:1042D0007C6F0201000E01017B6F000E01017E6FF9
:1042E000640E01017D6FCCECB3F02FD0020165515B
:1042F000010DF35001018A25D96EF45001018B2183
:10430000DA6E2F0EDF640ED002016551010DF350FD
:1043100001018A25D96EF45001018B21DA6E390E24
:10432000DF640ED002016551010DF35001018A25B1
:10433000D96EF45001018B21DA6E2D0EDF6203D0AD
:1043400065C264F210D00201652B02016551010DB6
:10435000F35001018A25D96EF45001018B21DA6EE8
:10436000DF50D8A4C3D702016451C80AD8B41200E0
:10437000000E0201666F1AD002016651010DF35062
:1043800001018A25D96EF45001018B21DA6E0201F8
:104390006651010D0201000EF324E16E0201020ECE
:1043A000F420E26EDFCFE7FF0201662B02016451C9
:1043B0000201665DD8A0E0D702016451010D02013F
:1043C000000EF324D96E0201020EF420DA6E3D0EC7
:1043D000DF6E64C266F231D002016651010DF35006
:1043E00001018A25D96EF45001018B21DA6E020198
:1043F000665101018C6F8D6B010E01018C27000E3F
:104400008D230201000E01018C25E16E0201020ED6
:1044100001018D21E26EDFCFE7FF02016651010D40
:10442000F35001018A25D96EF45001018B21DA6E17
:10443000DF50D8B406D00201662B620E0201666519
:10444000CBD70201020E0101846F0201000E0101AF
:10445000836F01018BC186F101018AC185F1640E70
:104460000101876F000E0101886FA9ECABF012000B
:10447000000E0101876F000E01018A6F000E01011D
:10448000896F000E0101886F03D00101814B822BDF
:1044900081C1D9FF82C1DAFFDF503D0AD8B407D00D
:1044A00081C1D9FF82C1DAFFDF50D8A4EED781C124
:1044B000D9FF82C1DAFFDF50D8A407D07D0E0101F9
:1044C000826F000E0101816F12000101814B822B6E
:1044D000200E81C1D9FF82C1DAFFDF6201D07ED018
:1044E0003D0E81C1D9FF82C1DAFFDF6207D07D0EA8
:1044F0000101826F020E0101816F12002D0E81C138
:10450000D9FF82C1DAFFDF6204D0010E0101886F9A
:1045100065D081C1D9FF82C1DAFFDF50D8A461D054
:104520007D0E0101826F010E0101816F120089C1B0
:104530007BF18AC17CF1000E01017E6F0A0E010140
:104540007D6F12ECB5F001017BC189F101017CC1E5
:104550008AF181C1D9FF82C1DAFF2F0EDF642CD02E
:1045600081C1D9FF82C1DAFFDF500101836F3A0EAA
:104570000101835DD8B020D0D00E0101836FFF0E02
:10458000846F81C1D9FF82C1DAFFDF500101856FDD
:10459000866B0101835101018527010184510101CD
:1045A00086230101855101018927010186510101FD
:1045B0008A230101872B07D07D0E0101826F030E34
:1045C0000101816F1200050E0101876507D07D0E84
:1045D0000101826F040E0101816F12000101814B04
:1045E000822B81C1D9FF82C1DAFFDF50D8A49FD7C7
:1045F00001018851D8B406D00101896D01018A1FDB
:10460000D8B08A2B89C181F18AC182F11200000ED3
:1046100001018A6F01018851800A800F0BE1000EB1
:104620000101875D07E1000E0101865D03E1000ED7
:104630000101855DD8B012D00101881F0101871FDB
:104640000101861F0101856D000E01018623010114
:10465000872301018823010E01018A6F0101845122
:10466000800A800F0BE1000E0101835D07E1000E5F
:104670000101825D03E1000E0101815DD8B012D01D
:104680000101841F0101831F0101821F0101816D4E
:10469000000E010182230101832301018423010E05
:1046A00001018A1B000E01018B6F000E01018C6F4E
:1046B000000E01018D6F000E01018E6F0101885106
:1046C000851186118711D8B44ED0010E0101896F72
:1046D0000CD00101D8900101853701018637010115
:1046E0008737010188370101892B010188AFF1D794
