:04000000B4EF01F068
:10000800FACF6EF1FBCF6FF1E9CF70F189EFB4F061
:10001800D8CF16F0E8CF17F0E0CF18F0FACF19F0E4
:10002800FBCF1AF0E9CF1BF0EACF1CF0E1CF1DF0AF
:10003800E2CF1EF0D9CF1FF0DACF20F0F3CF21F0B6
:10004800F4CF22F0F6CF23F0F7CF24F0F8CF25F045
:10005800F5CF26F0000E0001D56F000E0001D46F19
:10006800000E0001D66FF29C9EAA56D19D9AAB98BD
:100078007BECB7F00001D76F0001D7510A0AD8B45A
:10008800CAD00001D7510D0AD8B4C5D00001D75144
:100098007F0AD8A48CD00001D851D8B4A5D0FF0EBF
:1000A8000D6EFD0E0C6E7DECB0F0000E0001D56FEC
:1000B800000E0001D46F09D0F90E0D6EEE0E0C6E15
:1000C8007DECB0F00001D44BD52B0001D851136E54
:1000D800146A1450800A156E0001D451135C000193
:1000E800D551800A1558D8B0E7D7FF0E0D6EFD0E12
:1000F8000C6E7DECB0F0F50E0D6EE50E0C6E7DEC21
:10010800B0F00001D8070001D851010D0001600EC0
:10011800F324D96E0001000EF420DA6E000EDF6EB3
:100128000001000E0D6E0001600E0C6E7DECB0F04B
:100138000F0E0001D85DD8B057D0000E0001D66F61
:100148001AD00001D651010D0001600EF324D96EBA
:100158000001000EF420DA6E0001D651010D0001F5
:10016800C40EF324E16E0001000EF420E26EDFCF2E
:10017800E7FF0001D62B0E0E0001D665E2D71AEC78
:10018800B8F0000E0F6E000EE8ECB7F03E0E51EC22
:10019800B8F0010E0F6E000EE8ECB7F00001000E8B
:1001A800106E0001C40E0F6EEDECB3F01DD000010F
:1001B800D7512FECB8F00F0E0001D85DD8B004D09D
:1001C8000001D75151ECB8F00001D851010D0001E0
:1001D800600EF324D96E0001000EF420DA6E0001DF
:1001E800D7C0DFFF0001D82B620E0001D86592D07E
:1001F800F30E0D6E940E0C6E7DECB0F00001000E47
:10020800026E0001600E016E000E046E640E036E35
:10021800C8ECB6F07CD00001D7510A0AD8B405D092
:100228000001D7510D0AD8A430D00001D8672DD0CD
:100238000001D851010D0001600EF324D96E0001B0
:10024800000EF420DA6E0001D7C0DFFF0001000EB7
:100258000A6E0001600E096E0301030E0C6E0301A5
:10026800640E0B6E640E0D6E000E0E6E0BECAFF08E
:100278000001000E026E0001600E016E000E046E99
:10028800640E036EC8ECB6F045D00001606717D065
:1002980000016151D8B413D00001000E0A6E0001AC
:1002A800600E096E0301030E0C6E0301640E0B6EE3
:1002B800640E0D6E010E0E6E0BECAFF012D0000145
:1002C800000E0A6E0001600E096E0301030E0C6E2B
:1002D8000301640E0B6E640E0D6E000E0E6E0BECB9
:1002E800AFF01AECB8F0000E0F6E000EE8ECB7F0A5
:1002F8003E0E51ECB8F00001000E026E0001600ED7
:10030800016E000E046E640E036EC8ECB6F0000EAB
:100318000001D86F9D8AAB88F28C26C0F5FF25C0F6
:10032800F8FF24C0F7FF23C0F6FF22C0F4FF21C066
:10033800F3FF20C0DAFF1FC0D9FF1EC0E2FF1DC0B7
:10034800E1FF1CC0EAFF1BC0E9FF1AC0FBFF19C090
:10035800FAFF18C0E0FF17C0E8FF16C0D8FF10006A
:04036800BCEFB4F042
:10EF8E000000000000000000000000000200000071
:10EF9E000000000000000000010000000000000062
:10EFAE000000010000000000000000000000020050
:10EFBE000000000000000000000000020000000041
:10EFCE000000000000000001000000000000000032
:10EFDE000002000000000000000000000001000020
:10EFEE000001000800400000020010008001000A2D
:10EFFE00006400E80310270100100000010010005B
:10F00E0001010001000000000000010000000100ED
:10F01E0001010001000000000001000000000100DD
:10F02E0001010001000100000000000000000000CE
:10F03E0001010001000001000000000000000000BE
:10F04E0001010001000000000100000000000000AE
:10F05E00010100010000000100000000000000009E
:10F06E00010100010000000000000100010000008D
:10F07E00010100010000000000010000010000007D
:10F08E00010100010000000000000100000000006E
:10F09E00010100010000000000010000000000025C
:10F0AE00020202020200000100000000020202023F
:10F0BE000200000100000002000202020200000134
:10F0CE00000000546F207265616420616E642061DF
:10F0DE006463206368616E6E656C2C207479706554
:10F0EE002074686520636F6D6D616E640D0A20413A
:10F0FE00444320666F6C6C6F7765642062792027BD
:10F10E004368616E6E656C27200D0A00546F206394
:10F11E006F6D6D616E6420746865205254432C20AF
:10F12E00747970652074686520616374696F6E0D03
:10F13E000A20666F6C6C6F77656420627920746844
:10F14E006520706172616D6574657273200D0A0AB7
:10F15E0000546F20636F6E74726F6C206120646553
:10F16E007669636520656E746572207468652064C7
:10F17E00657669636520666F6C6C6F776564206277
:10F18E007920273D2720616E6420274F6E2F4F6612
:10F19E0066270D0A00546F20736574207465205025
:10F1AE00574D206272696768746E65737320656E61
:10F1BE007465722027526564204C45442062726942
:10F1CE006768746E657373203D2064757479637916
:10F1DE00636C65270D0A00546F2073657420436FAE
:10F1EE006E74726173742050574D20627269676835
:10F1FE00746E65737320656E7465722027436F6E2F
:10F20E007472617374203D20647574796379636CD4
:10F21E0065270D0A006675727468657220737562D3
:10F22E00206D656E757320617661696C61626C65C7
:10F23E0020627920656E746572696E6720746865E8
:10F24E0020616374696F6E20616E64206120273FB8
:10F25E002700466F72204465766963652068656C89
:10F26E007020656E746572206465766963652066CC
:10F27E006F6C6C6F776564206279206120273F2761
:10F28E00200D0A007265646C656420776861743FB6
:10F29E003F3F20446F20796F75206D65616E20525F
:10F2AE006564204C6564204272696768746E65738C
:10F2BE00733F3F3F00496E76616C696420436F6E09
:10F2CE0074726173742044757479206379636C650C
:10F2DE003A2047726561746572207468616E2031E0
:10F2EE0030300D0A00496E76616C696420436F6E92
:10F2FE0074726173742044757479204379636C65FC
:10F30E003A204C657373207468616E20300D0A00CC
:10F31E0077686572652074686520647574796379A1
:10F32E00636C652069732061206E756D6265722055
:10F33E0030202D203130300D0A00496E76616C6917
:10F34E006420447574796379636C653A20477265FD
:10F35E0061746572207468616E203130300D0A0060
:10F36E004368726973746D617320547265652043CE
:10F37E006F6C6F726564204C696768747320546F8C
:10F38E0067676C6564000D0A427566666572206F6C
:10F39E00766572666C6F77212044656C6574696E54
:10F3AE006720427566666572200D0A00692E652E0D
:10F3BE00204368726973746D617320436F6C6F7252
:10F3CE006564206C6967687473203D204F6E0D0A6A
:10F3DE0000456E7465722054696D65204D4D2F4445
:10F3EE00442F59592048483A4D4D3A535320414DD8
:10F3FE00206F720D0A00203320566F6C7420525409
:10F40E0043204261747465727920566F6C74616723
:10F41E0065203D2025642E256400253032642F257D
:10F42E003032642F32302530326420253032643A47
:10F43E00253032643A2530326420414D0025303279
:10F44E00642F253032642F3230253032642025303F
:10F45E0032643A253032643A2530326420504D0001
:10F46E00456E7465722054696D65204D4D2F444470
:10F47E002F59592048483A4D4D3A535320504D0D6F
:10F48E000A00496E76616C696420447574796379FB
:10F49E00636C653A204C657373207468616E20301E
:10F4AE000D0A00466F726D6174206973204D4D2FE9
:10F4BE0044442F59592048483A4D4D3A5353204110
:10F4CE004D0D0A004572726F723A206F6E6C792084
:10F4DE00757365206F6E6520657175616C2073693B
:10F4EE00676E0D0A00253032642F253032642F32BC
:10F4FE00302530326420253032643A253032643A79
:10F50E002530326400436F6E7472617374204475DB
:10F51E007479204379636C652073657420746F2051
:10F52E0025640D0A004368726973746D617320540B
:10F53E00726565205768697465204C6967687473D5
:10F54E00204F6666004368726973746D6173205450
:10F55E00726565205768697465204C6967687473B5
:10F56E00204F6E004572726F723A204E6F206E659C
:10F57E00676174697665206368616E6E656C730D84
:10F58E000A005265616C2054696D6520436C6F638F
:10F59E006B2048656C70204D656E750D0A0A004330
:10F5AE0068616E6E656C202564206973206E6F74C1
:10F5BE0020636F6E66696775726564000D0A456E2D
:10F5CE0074657220273F2720666F722048656C7025
:10F5DE00204D656E750D0A3E004368726973746D39
:10F5EE00617320747265652048656C70204D656E80
:10F5FE00750D0A0A004572726F723A20696E20709C
:10F60E00617273696E6720636F6D6D616E640D0A52
:10F61E00007468657265206973206E6F2071756560
:10F62E007374696F6E206D61726B0D0A00692E65C1
:10F63E002E204A6F657320726F6F6D206C6967683C
:10F64E0074203D204F6E0D0A000D0A54696D652021
:10F65E004E6F7420536574205375636365737366C0
:10F66E00756C6C79004572726F723A204E6F206E17
:10F67E00756D62657220656E74657265640D0A0043
:10F68E00692E652E204C6976696E67726F6F6D20DC
:10F69E0066616E203D204F6E0D0A004144432043AB
:10F6AE0068616E6E656C204F7574206F6620426FB8
:10F6BE00756E647300436F6E74726173742050576D
:10F6CE004D2048656C70204D656E750D0A0A000D53
:10F6DE000A54696D652053657420537563636573B1
:10F6EE007366756C6C790D0A00526564204C454446
:10F6FE002050574D2048656C70204D656E750D0A73
:10F70E000A000D0A496E76616C69642054696D6554
:10F71E0020456E74657265640D0A004C6976696EDB
:10F72E0067726F6F6D204C6967687420546F6767DE
:10F73E006C6564004C6976696E67726F6F6D2048F8
:10F74E00656C70204D656E750D0A0A004552524F5C
:10F75E00523A2043616E27742052656164205254E0
:10F76E00430D0A00692E652E20426564726F6F6D1F
:10F77E002066616E203D204F6E0D0A004A6F657344
:10F78E0020526F6F6D2048656C70204D656E750D43
:10F79E000A0A00253032642F25303264202530329B
:10F7AE00643A2530326420414D00253032642F25D5
:10F7BE0030326420253032643A2530326420504D88
:10F7CE0000692E652E20204C6976696E67726F6F08
:10F7DE006D3F0D0A0D0A00447574796379636C658B
:10F7EE002073657420746F2025640D0A00426564D1
:10F7FE00726F6F6D204C6967687420546F67676C09
:10F80E00656400426564726F6F6D2048656C702090
:10F81E004D656E750D0A0A00692E652E20525443F1
:10F82E00205365742054696D653F0D0A00414443B1
:10F83E00206368616E6E656C202564203D20256412
:10F84E00004A6F657320726F6F6D206C6967687404
:10F85E00204F6666006C6976696E67726F6F6D6CAD
:10F86E00696768743D6F6666004A6F65277320721C
:10F87E006F6F6D206C69676874204F6E004C6976EF
:10F88E00696E67726F6F6D205461736B3F3F3F00FF
:10F89E004A6F65277320726F6F6D20776861743FB2
:10F8AE003F3F004C6976696E67726F6F6D204661DF
:10F8BE006E204F666600426564726F6F6D205368EE
:10F8CE00616B6572204F6666006C6976696E677251
:10F8DE006F6F6D6C696768743D6F6E00636F6C6FF0
:10F8EE00726564206C69676874730D0A0A00436858
:10F8FE00726973746D617320576861743F3F3F0086
:10F90E006C6976696E67726F6F6D66616E3D6F665C
:10F91E006600626564726F6F6D7368616B65723DD0
:10F92E006F6666006A6F6573726F6F6D6C6967687C
:10F93E00743D6F6666004C6976696E67726F6F6DA7
:10F94E002046616E204F6E00426564726F6F6D20AF
:10F95E005368616B6572204F6E003031323334352F
:10F96E00363738394142434445460030313233341C
:10F97E003536373839616263646566004144432029
:10F98E0048656C70204D656E750D0A0A004C454435
:10F99E002048656C70204D656E750D0A0A0043682F
:10F9AE006E6C2073657420746F2025640D0A0043FD
:10F9BE0068726973746D617320547265650D0A0007
:10F9CE00692E652E204C454431203D204F6E0D0A88
:10F9DE00005254432054696D652069733A202020EB
:10F9EE002000626564726F6F6D6C696768743D6F3D
:10F9FE006666005254432069736E7420776F726B83
:10FA0E00696E67006C6976696E67726F6F6D66619D
:10FA1E006E3D6F6E00626564726F6F6D7368616BC1
:10FA2E0065723D6F6E006A6F6573726F6F6D6C6994
:10FA3E006768743D6F6E007265646C6564627269AE
:10FA4E006768746E65737300526564204C4544207C
:10FA5E00436F6E7472617374005374617274696E65
:10FA6E00672E2E2E2E2E2E2E2E004552523A20432B
:10FA7E004E5354203E20313030004552523A2044ED
:10FA8E00757479203E20313030004C564E4720524E
:10FA9E006D205461736B3F3F3F00426564726F6F20
:10FAAE006D205461736B3F3F3F00426564726F6F10
:10FABE006D2048656C703F3F3F00526564204C4599
:10FACE004420576861743F3F3F004A6F6520726F54
:10FADE006F6D20776861743F3F004368726973747D
:10FAEE006D617320547265653F00584D415320433C
:10FAFE006F6C6F722054474C44004C564E47205248
:10FB0E006D204C742054474C4400426564726F6FF4
:10FB1E006D204C742054474C440052544320427480
:10FB2E0079203D2025642E256400496E76616C692E
:10FB3E006420436F6D6D616E64004552523A2043EE
:10FB4E00616E7420706172736500426564726F6FCE
:10FB5E006D20534B52204F666600426564726F6F84
:10FB6E006D2046616E204F6666004A6F6520726F8B
:10FB7E006F6D206C74204F6666004552523A2055C8
:10FB8E007365202B2043686E6C00626564726F6F24
:10FB9E006D6C696768743D6F6E004C564E4720520F
:10FBAE006D204C742068656C7000537461727469BA
:10FBBE006E672E2E2E2E2E2E2E0043757272656EB1
:10FBCE00742054696D650D0A007768697465206C40
:10FBDE0069676874730D0A00434E5354207365743D
:10FBEE0020746F2025640044757479207365742029
:10FBFE00746F20256400584D415320576869746511
:10FC0E00204F6666004C564E4720526D204C742095
:10FC1E004F666600426564726F6F6D204C74204FA4
:10FC2E00666600626564726F6F6D66616E3D6F66CB
:10FC3E006600426564726F6F6D20534B52204F6E9B
:10FC4E0000426564726F6F6D2046616E204F6E00CC
:10FC5E004A6F6520726F6F6D206C74204F6E004579
:10FC6E0052523A204E6F206E756D6265720045528B
:10FC7E00523A206E6F206E756D626572005374611C
:10FC8E007274696E672E2E2E2E2E2E004552523A0B
:10FC9E0020434E5354203C2030004552523A2044CB
:10FCAE00757479203C203000446576696365204D7B
:10FCBE00656E75733A00584D4153205768697465E7
:10FCCE00204F6E004C564E4720526D204C74204FE4
:10FCDE006E00426564726F6F6D204C74204F6E0023
:10FCEE00626564726F6F6D66616E3D6F6E004A6F16
:10FCFE006520726F6F6D204D656E75004C564E47C8
:10FD0E00726F6F6D204D656E7500537461727469FC
:10FD1E006E672E2E2E2E2E00692E652E2041444308
:10FD2E0020300D0A004C6976696E67726F6F6D0D2B
:10FD3E000A0052544320576861743F3F3F0A004502
:10FD4E0052523A205573652031203D00584D415393
:10FD5E0020576861743F3F3F0043686E6C202564F6
:10FD6E00203D202564004C45443020546F67676C5D
:10FD7E006564004C45443120546F67676C656400C0
:10FD8E004C434420436F6E74726173740042656419
:10FD9E00726F6F6D204D656E75005374617274696C
:10FDAE006E672E2E2E2E00446576696365733A0DAE
:10FDBE000A0A004368616E6E656C733A0D0A004A5A
:10FDCE006F657320726F6F6D0D0A004C6976696EE8
:10FDDE0067726F6F6D3F005374617274696E672E38
:10FDEE002E2E00446576696365733A0D0A004163F1
:10FDFE0074696F6E733A0D0A00436F6E747261739D
:10FE0E00740D0A004A6F657320526F6F6D3F006C60
:10FE1E006976696E67726F6F6D0053746172746983
:10FE2E006E672E2E007368616B65720D0A0A0042B2
:10FE3E006564726F6F6D0D0A00426174746572793C
:10FE4E000D0A00526564204C45443D2300436F6EFD
:10FE5E0074726173742300436F6D6D616E64733AD7
:10FE6E0000436F6E74726173743F006368726973DE
:10FE7E00746D617300584D4153204D656E75004889
:10FE8E00656C70204D656E7500456E746572202729
:10FE9E003F27005374617274696E672E004C696758
:10FEAE0068740D0A0A00446576696365733A004208
:10FEBE006564726F6F6D3F004C454430204F66662F
:10FECE00004C454431204F6666006C6564303D6FD2
:10FEDE006666006C6564313D6F666600636F6E74B6
:10FEEE007261737400414443204D656E7500525427
:10FEFE0043204D656E75004C4544204D656E750072
:10FF0E005374617274696E67004C4544310D0A0A70
:10FF1E00006C696768740D0A00626564726F6F6DBC
:10FF2E00004C454430204F6E004C454431204F6EFE
:10FF3E00006C6564303D6F6E006C6564313D6F6EB4
:10FF4E0000426174746572790062617474657279CD
:10FF5E00005254430D0A0A0066616E0D0A0A0053E0
:10FF6E0065740D0A0A004C4544300D0A0052656155
:10FF7E00640D0A007265646C6564005368616B659C
:10FF8E0072004144430D0A0066616E0D0A007768E7
:10FF9E0069746500636F6C6F72004C6967687400FA
:10FFAE006C6967687400300D0A0A004C45443000D5
:10FFBE006C656430004C454431006C656431004121
:10FFCE0044433F005254433F0052656164007265E2
:10FFDE0061640061646300727463006A6F65004659
:10FFEE00616E0066616E0053657400736574000D7A
:02FFFE00000001
:020000040001F9
:10000000000E0501D36F140E0501D26F000E05011D
:10001000C96F000E0501C86F000E0501CB6F000E01
:100020000501CA6F000E0501CD6F000E0501CC6FF2
:10003000000E0501CF6F000E0501CE6F000E050109
:10004000D56F000E0501D46F000E0501D16F000EB3
:100050000501D06FF10E0101886F5B0E0101876F02
:1000600015ECAEF00101C2C17DF10101C1C17CF10D
:10007000C5ECB0F00101C2C18CF10101C1C18BF12D
:1000800063ECADF00101C2C17DF10101C1C17CF1A0
:10009000FF0E01017F6F850E01017E6F57ECAFF0FF
:1000A0000009D8B44FD10101C2C17DF10101C1C124
:1000B0007CF1FA0E01017F6FA60E01017E6FD8EC74
:1000C000B1F00009D8A4ECD00101C2C17DF1010159
:1000D000C1C17CF1FF0E01017F6FBE0E01017E6F79
:1000E00017ECB2F00009D8B414D0020E8C1AFD0E31
:1000F0000101886F740E0101876F15ECAEF0FD0EE3
:1001000001018F6F740E01018E6F89ECB6F028EF3C
:1001100092F00101C2C17DF10101C1C17CF1FF0E6C
:1001200001017F6F3F0E01017E6F17ECB2F00009F5
:10013000D8B413D08C82FF0E0101886F2F0E0101FD
:10014000876F15ECAEF0FF0E01018F6F2F0E0101CE
:100150008E6F89ECB6F028EF92F00101C2C17DF1FB
:100160000101C1C17CF1FE0E01017F6FD80E0101BA
:100170007E6F17ECB2F00009D8B413D08C92FE0E4B
:100180000101886FC60E0101876F15ECAEF0FE0EFF
:1001900001018F6FC60E01018E6F89ECB6F028EF5A
:1001A00092F00101C2C17DF10101C1C17CF1FF0EDC
:1001B00001017F6FC80E01017E6F17ECB2F00009DC
:1001C000D8B414D0040E8C1AFD0E0101886F810E74
:1001D0000101876F15ECAEF0FD0E01018F6F810EEE
:1001E00001018E6F89ECB6F028EF92F00101C2C1D7
:1001F0007DF10101C1C17CF1FF0E01017F6F470E4E
:1002000001017E6F17ECB2F00009D8B413D08C84D2
:10021000FF0E0101886F370E0101876F15ECAEF0FC
:10022000FF0E01018F6F370E01018E6F89ECB6F062
:1002300028EF92F00101C2C17DF10101C1C17CF141
:10024000FE0E01017F6FE10E01017E6F17ECB2F02F
:100250000009D8B413D08C94FE0E0101886FCF0E24
:100260000101876F15ECAEF0FE0E01018F6FCF0E0E
:1002700001018E6F89ECB6F028EF92F0FA0E0101C1
:10028000886FCC0E0101876F15ECAEF0FA0E0101FC
:100290008F6FCC0E01018E6F89ECB6F028EF92F0D3
:1002A000F90E0101886F9B0E0101876F15ECAEF00E
:1002B000FD0E0101886FF10E0101876F15ECAEF0A4
:1002C000FF0E0101886F740E0101876F15ECAEF00F
:1002D000FF0E0101886F170E0101876F15ECAEF05C
:1002E000F10E0101886F5F0E0101876F15ECAEF012
:1002F000F90E0101886FCE0E0101876F15ECAEF08B
:10030000FF0E01018C6F050E01018B6F47ECA0F011
:10031000FE0E01018C6FB40E01018B6F47ECA0F053
:10032000FF0E01018C6FB90E01018B6F47ECA0F03D
:10033000FF0E01018C6FC30E01018B6F47ECA0F023
:1003400028EF92F00101C2C17DF10101C1C17CF130
:10035000FE0E01017F6F1D0E01017E6F57ECAFF0A5
:100360000009D8B4D5D10101C2C17DF10101C1C1DB
:100370007CF1FA0E01017F6FA60E01017E6FD8ECB1
:10038000B1F00009D8A46AD10101C2C17DF1010117
:10039000C1C17CF1F80E01017F6FD70E01017E6FA4
:1003A00017ECB2F00009D8A411D00101C2C17DF14F
:1003B0000101C1C17CF1F80E01017F6F630E0101E3
:1003C0007E6F17ECB2F00009D8B453D0F29EF00E55
:1003D0000101886FAD0E0101876F010E27ECA9F0B6
:1003E000F00E0101886FAD0E0101876F010E27EC41
:1003F000A9F0F00E0101886FAD0E0101876F010EAB
:1004000027ECA9F0F00E0101886FAD0E0101876F96
:10041000010E27ECA9F0F00E0101886FAD0E01016D
:10042000876F010E27ECA9F0F00E0101886FAD0E69
:100430000101876F010E27ECA9F0F00E0101886F12
:10044000AD0E0101876F010E27ECA9F0F28EF70EB9
:100450000101886F290E0101876F15ECAEF0FB0ECC
:1004600001018F6F080E01018E6F89ECB6F028EF45
:1004700092F00101C2C17DF10101C1C17CF1FA0E0E
:1004800001017F6F120E01017E6F17ECB2F00009BF
:10049000D8B45CD0F29EF00E0101886F9D0E010170
:1004A000876F010E52ECB1F0F00E0101886F9D0EC6
:1004B0000101876F010E52ECB1F0F00E0101886F5F
:1004C0009D0E0101876F010E52ECB1F0F00E01019B
:1004D000886F9D0E0101876F010E52ECB1F0F00E96
:1004E0000101886F9D0E0101876F010E52ECB1F082
:1004F000F00E0101886F9D0E0101876F010E52EC15
:10050000B1F0F00E0101886F9D0E0101876F010EA1
:1005100052ECB1F0F00E0101886F9D0E0101876F62
:10052000010E52ECB1F0F28EF90E0101886F440E0B
:100530000101876F15ECAEF0FC0E01018F6FD20E3A
:1005400001018E6F89ECB6F028EF92F00101C2C173
:100550007DF10101C1C17CF1F90E01017F6F0E0E29
:1005600001017E6F17ECB2F00009D8B465D0F29E9D
:10057000F00E0101886F8D0E0101876F010E52ECA4
:10058000B1F0F00E0101886F8D0E0101876F010E31
:1005900052ECB1F0F00E0101886F8D0E0101876FF2
:1005A000010E52ECB1F0F00E0101886F8D0E0101C9
:1005B000876F010E52ECB1F0F00E0101886F8D0EC5
:1005C0000101876F010E52ECB1F0F00E0101886F4E
:1005D0008D0E0101876F010E52ECB1F0F00E01019A
:1005E000886F8D0E0101876F010E52ECB1F0F00E95
:1005F0000101886F8D0E0101876F010E52ECB1F081
:10060000F00E0101886F8D0E0101876F010E52EC13
:10061000B1F0F28EF80E0101886FB10E0101876F03
:1006200015ECAEF0FC0E01018F6F130E01018E6F01
:1006300089ECB6F028EF92F0F80E0101886F8B0E6E
:100640000101876F15ECAEF0FA0E01018F6F980E65
:1006500001018E6F89ECB6F028EF92F0F70E0101E0
:10066000886F420E0101876F15ECAEF0FD0E01019F
:10067000886FF10E0101876F15ECAEF0FF0E0101DE
:10068000886F1F0E0101876F15ECAEF0FF0E0101A0
:10069000886F660E0101876F15ECAEF0F10E010157
:1006A000886F5F0E0101876F15ECAEF0F60E010149
:1006B000886F8E0E0101876F15ECAEF0FB0E010105
:1006C0008F6FA80E01018E6F89ECB6F0FD0E01014F
:1006D0008C6F0A0E01018B6F47ECA0F0FE0E01013A
:1006E0008C6FB40E01018B6F47ECA0F0FF0E01017F
:1006F0008C6FA80E01018B6F47ECA0F0FF0E01017B
:100700008C6FED0E01018B6F47ECA0F028EF92F09B
:100710000101C2C17DF10101C1C17CF1FF0E0101E6
:100720007F6F270E01017E6F57ECAFF00009D8B440
:10073000E2D20101C2C17DF10101C1C17CF1FA0E19
:1007400001017F6FA60E01017E6FD8ECB1F00009A8
:10075000D8A467D20101C2C17DF10101C1C17CF100
:10076000FF0E01017F6FAE0E01017E6FD8ECB1F07C
:100770000009D8A411D00101C2C17DF10101C1C19C
:100780007CF1FF0E01017F6FF10E01017E6FD8EC4D
:10079000B1F00009D8B433D20101C2C17DF1010129
:1007A000C1C17CF1FB0E01017F6F980E01017E6FCC
:1007B00017ECB2F00009D8A411D00101C2C17DF13B
:1007C0000101C1C17CF1F90E01017F6FF00E010141
:1007D0007E6F17ECB2F00009D8B453D0F29EF00E41
:1007E0000101886FB90E0101876F010E27ECA9F096
:1007F000F00E0101886FB90E0101876F010E27EC21
:10080000A9F0F00E0101886FB90E0101876F010E8A
:1008100027ECA9F0F00E0101886FB90E0101876F76
:10082000010E27ECA9F0F00E0101886FB90E01014D
:10083000876F010E27ECA9F0F00E0101886FB90E49
:100840000101876F010E27ECA9F0F00E0101886FFE
:10085000B90E0101876F010E27ECA9F0F28EF70E99
:100860000101886FFB0E0101876F15ECAEF0FB0EE6
:1008700001018F6F180E01018E6F89ECB6F028EF21
:1008800092F00101C2C17DF10101C1C17CF1FC0EF8
:1008900001017F6FEE0E01017E6F17ECB2F00009CF
:1008A000D8B45CD0F29EF00E0101886F3D0E0101BC
:1008B000876F010E52ECB1F0F00E0101886F3D0E12
:1008C0000101876F010E52ECB1F0F00E0101886F4B
:1008D0003D0E0101876F010E52ECB1F0F00E0101E7
:1008E000886F3D0E0101876F010E52ECB1F0F00EE2
:1008F0000101886F3D0E0101876F010E52ECB1F0CE
:10090000F00E0101886F3D0E0101876F010E52EC60
:10091000B1F0F00E0101886F3D0E0101876F010EED
:1009200052ECB1F0F00E0101886F3D0E0101876FAE
:10093000010E52ECB1F0F28EFC0E0101886F4F0EE9
:100940000101876F15ECAEF0FC0E01018F6FE00E18
:1009500001018E6F89ECB6F028EF92F00101C2C15F
:100960007DF10101C1C17CF1FC0E01017F6F310EEF
:1009700001017E6F17ECB2F00009D8B465D0F29E89
:10098000F00E0101886F2D0E0101876F010E52ECF0
:10099000B1F0F00E0101886F2D0E0101876F010E7D
:1009A00052ECB1F0F00E0101886F2D0E0101876F3E
:1009B000010E52ECB1F0F00E0101886F2D0E010115
:1009C000876F010E52ECB1F0F00E0101886F2D0E11
:1009D0000101876F010E52ECB1F0F00E0101886F3A
:1009E0002D0E0101876F010E52ECB1F0F00E0101E6
:1009F000886F2D0E0101876F010E52ECB1F0F00EE1
:100A00000101886F2D0E0101876F010E52ECB1F0CC
:100A1000F00E0101886F2D0E0101876F010E52EC5F
:100A2000B1F0F28EFB0E0101886F680E0101876F35
:100A300015ECAEF0FC0E01018F6F220E01018E6FDE
:100A400089ECB6F028EF92F00101C2C17DF10101FD
:100A5000C1C17CF1FA0E01017F6F230E01017E6F8F
:100A600017ECB2F00009D8B45CD0F29EF00E010190
:100A7000886F5D0E0101876F010E52ECB1F0F00E30
:100A80000101886F5D0E0101876F010E52ECB1F01C
:100A9000F00E0101886F5D0E0101876F010E52ECAF
:100AA000B1F0F00E0101886F5D0E0101876F010E3C
:100AB00052ECB1F0F00E0101886F5D0E0101876FFD
:100AC000010E52ECB1F0F00E0101886F5D0E0101D4
:100AD000876F010E52ECB1F0F00E0101886F5D0ED0
:100AE0000101876F010E52ECB1F0F00E0101886F29
:100AF0005D0E0101876F010E52ECB1F0F28EF90E1E
:100B00000101886F560E0101876F15ECAEF0FC0EE7
:100B100001018F6F400E01018E6F89ECB6F028EF56
:100B200092F00101C2C17DF10101C1C17CF1F90E58
:100B300001017F6F200E01017E6F17ECB2F00009FA
:100B4000D8B428EF92F0F29EF00E0101886F4D0E9E
:100B50000101876F010E52ECB1F0F00E0101886FB8
:100B60004D0E0101876F010E52ECB1F0F00E010144
:100B7000886F4D0E0101876F010E52ECB1F0F00E3F
:100B80000101886F4D0E0101876F010E52ECB1F02B
:100B9000F00E0101886F4D0E0101876F010E52ECBE
:100BA000B1F0F00E0101886F4D0E0101876F010E4B
:100BB00052ECB1F0F00E0101886F4D0E0101876F0C
:100BC000010E52ECB1F0F00E0101886F4D0E0101E3
:100BD000876F010E52ECB1F0F28EF80E0101886FB2
:100BE000C40E0101876F15ECAEF0FB0E01018F6F93
:100BF000580E01018E6F89ECB6F028EF92F0FA0ED4
:100C00000101886FA80E0101876F15ECAEF0FA0E96
:100C100001018F6FA80E01018E6F89ECB6F028EFED
:100C200092F0F80E0101886F110E0101876F15EC2B
:100C3000AEF0FD0E0101886FF10E0101876F15EC1A
:100C4000AEF0FF0E0101886F1F0E0101876F15ECDA
:100C5000AEF0FF0E0101886F960E0101876F15EC53
:100C6000AEF0FE0E0101886F330E0101876F15ECA7
:100C7000AEF0F10E0101886F5F0E0101876F15EC78
:100C8000AEF0F70E0101886F720E0101876F15EC4F
:100C9000AEF0FA0E01018F6FB80E01018E6F89EC74
:100CA000B6F0FD0E01018C6F9B0E01018B6F47ECBE
:100CB000A0F0FE0E01018C6FB40E01018B6F47ECAA
:100CC000A0F0FF0E01018C6FA80E01018B6F47ECA5
:100CD000A0F0FF0E01018C6FED0E01018B6F47EC50
:100CE000A0F0FF0E01018C6F890E01018B6F47ECA4
:100CF000A0F028EF92F00101C2C17DF10101C1C154
:100D00007CF1FF0E01017F6FA20E01017E6FD8EC16
:100D1000B1F00009D8A422D00101C2C17DF10101C6
:100D2000C1C17CF1FF0E01017F6F9C0E01017E6F3E
:100D3000D8ECB1F00009D8A411D00101C2C17DF1F5
:100D40000101C1C17CF1FE0E01017F6F790E01012D
:100D50007E6FD8ECB1F00009D8B4D4D10101C2C182
:100D60007DF10101C1C17CF1FA0E01017F6FA60E78
:100D700001017E6FD8ECB1F00009D8A471D1010156
:100D8000C2C17DF10101C1C17CF1FF0E01017F6F84
:100D9000A20E01017E6FD8ECB1F00009D8B464D086
:100DA0000101C2C17DF10101C1C17CF1FD0E010152
:100DB0007F6F580E01017E6FD8ECB1F00009D8B4F6
:100DC00053D0F29EF00E0101886FC50E0101876FAE
:100DD000010E27ECA9F0F00E0101886FC50E01018C
:100DE000876F010E27ECA9F0F00E0101886FC50E88
:100DF0000101876F010E27ECA9F0F00E0101886F49
:100E0000C50E0101876F010E27ECA9F0F00E01015C
:100E1000886FC50E0101876F010E27ECA9F0F00E57
:100E20000101886FC50E0101876F010E27ECA9F043
:100E3000F00E0101886FC50E0101876F010E27ECCE
:100E4000A9F0F28EF30E0101886F6E0E0101876F1B
:100E500015ECAEF0FA0E01018F6FF80E01018E6FE6
:100E600089ECB6F028EF92F00101C2C17DF10101D9
:100E7000C1C17CF1FF0E01017F6F9C0E01017E6FED
:100E8000D8ECB1F00009D8B464D00101C2C17DF141
:100E90000101C1C17CF1FF0E01017F6F430E010111
:100EA0007E6FD8ECB1F00009D8B453D0F29EF00EAA
:100EB0000101886F1D0E0101876F010E52ECB1F028
:100EC000F00E0101886F1D0E0101876F010E52ECBB
:100ED000B1F0F00E0101886F1D0E0101876F010E48
:100EE00052ECB1F0F00E0101886F1D0E0101876F09
:100EF000010E52ECB1F0F00E0101886F1D0E0101E0
:100F0000876F010E52ECB1F0F00E0101886F1D0EDB
:100F10000101876F010E52ECB1F0F00E0101886FF4
:100F20001D0E0101876F010E52ECB1F0F28EF50E2D
:100F30000101886F530E0101876F15ECAEF0FC0EB6
:100F400001018F6FC40E01018E6F89ECB6F028EF9E
:100F500092F00101C2C17DF10101C1C17CF1FF0E1E
:100F600001017F6F9C0E01017E6FD8ECB1F000098A
:100F7000D8B464D00101C2C17DF10101C1C17CF1CD
:100F8000FE0E01017F6FDC0E01017E6FD8ECB1F027
:100F90000009D8B453D0F29EF00E0101886F0D0EF7
:100FA0000101876F010E52ECB1F0F00E0101886F64
:100FB0000D0E0101876F010E52ECB1F0F00E010130
:100FC000886F0D0E0101876F010E52ECB1F0F00E2B
:100FD0000101886F0D0E0101876F010E52ECB1F017
:100FE000F00E0101886F0D0E0101876F010E52ECAA
:100FF000B1F0F00E0101886F0D0E0101876F010E37
:1010000052ECB1F0F00E0101886F0D0E0101876FF7
:10101000010E52ECB1F0F28EF50E0101886F330E25
:101020000101876F15ECAEF0FC0E01018F6F040E0D
:1010300001018E6F89ECB6F028EF92F0F80E0101F5
:10104000886FFC0E0101876F15ECAEF0FD0E0101FB
:101050008F6F5A0E01018E6F89ECB6F028EF92F077
:10106000F50E0101886FE70E0101876F15ECAEF0F8
:10107000FD0E0101886FF10E0101876F15ECAEF0D6
:10108000FB0E0101886FD70E0101876F15ECAEF0E2
:10109000F80E0101886FEA0E0101876F15ECAEF0C2
:1010A000F10E0101886F5F0E0101876F15ECAEF044
:1010B000F30E0101886FBA0E0101876F15ECAEF0D7
:1010C000FE0E01018C6F830E01018B6F47ECA0F0C7
:1010D000FE0E01018C6FB40E01018B6F47ECA0F086
:1010E000FF0E01018C6F9C0E01018B6F47ECA0F08D
:1010F000FF0E01018C6FA20E01018B6F47ECA0F077
:1011000028EF92F00101C2C17DF10101C1C17CF162
:10111000F50E01017F6FC60E01017E6F57ECAFF037
:101120000009D8B431D10101C2C17DF10101C1C1B1
:101130007CF1FA0E01017F6FA60E01017E6FD8ECE3
:10114000B1F00009D8A4EED00101C2C17DF10101C6
:10115000C1C17CF1FF0E01017F6F820E01017E6F24
:1011600057ECAFF00009D8A411D00101C2C17DF144
:101170000101C1C17CF1FA0E01017F6F450E010131
:101180007E6F57ECAFF00009D8B4BAD00101C2C1EC
:101190007DF10101C1C17CF1FD0E01017F6F580E8F
:1011A00001017E6FD8ECB1F00009D8A408D0F60E8A
:1011B0000101886F1F0E0101876F15ECAEF0010170
:1011C000C2C183F10101C1C182F12CECA3F0010184
:1011D00082C1D4F5010183C1D5F50501D4057D0E89
:1011E000D8B4D519D8A412D0F60E0101886F730EA9
:1011F0000101876F15ECAEF0FC0E01018F6F7C0EC4
:1012000001018E6F89ECB6F028EF92F00501D551FF
:10121000800A800F650ED8B4D45DD8A012D0F30E2A
:101220000101886F480E0101876F15ECAEF0FA0ED0
:1012300001018F6F880E01018E6F89ECB6F028EFE7
:1012400092F00501D551800AF36E800EF35C000E1A
:10125000D8B4D45DD8B012D0F40E0101886F900ECE
:101260000101876F15ECAEF0FC0E01018F6FA80E27
:1012700001018E6F89ECB6F028EF92F00501D45190
:101280003CECACF00501050E0101896F0501000E73
:101290000101886FF70E01018B6FE50E01018A6F66
:1012A000D4C58CF1D5C58DF131EC92F00501050E58
:1012B0000101886F0501000E0101876F15ECAEF08A
:1012C0000501050E0101896F0501000E0101886FFE
:1012D000FB0E01018B6FF50E01018A6FD4C58CF1F5
:1012E000D5C58DF131EC92F00501050E01018F6F2E
:1012F0000501000E01018E6F89ECB6F028EF92F027
:10130000F20E0101886F920E0101876F15ECAEF0AD
:10131000FA0E01018F6FC80E01018E6F89ECB6F0D5
:1013200028EF92F0F60E0101886FF70E0101876F2A
:1013300015ECAEF0F10E0101886FA30E0101876F6D
:1013400015ECAEF0F30E0101886F1E0E0101876FE0
:1013500015ECAEF0FA0E01018C6F560E01018B6F89
:1013600047ECA0F0FE0E01018C6F650E01018B6F42
:1013700047ECA0F0FE0E01018C6F510E01018B6F46
:1013800047ECA0F028EF92F00101C2C17DF101010C
:10139000C1C17CF1FE0E01017F6FEA0E01017E6F7B
:1013A00057ECAFF00009D8B4FDD00101C2C17DF106
:1013B0000101C1C17CF1FA0E01017F6FA60E01018E
:1013C0007E6FD8ECB1F00009D8A4BAD00101C2C137
:1013D0007DF10101C1C17CF1FD0E01017F6F580E4D
:1013E00001017E6FD8ECB1F00009D8A408D001014A
:1013F000C2C18CF10101C1C18BF150ECA2F001011D
:10140000C2C183F10101C1C182F12CECA3F0010141
:1014100082C1D0F5010183C1D1F50501D0057D0E52
:10142000D8B4D119D8A412D0F60E0101886F730E6A
:101430000101876F15ECAEF0FC0E01018F6F6D0E90
:1014400001018E6F89ECB6F028EF92F00501D151C1
:10145000800A800F650ED8B4D05DD8A012D0F20EED
:101460000101886FC30E0101876F15ECAEF0FA0E13
:1014700001018F6F780E01018E6F89ECB6F028EFB5
:1014800092F00501D151800AF36E800EF35C000EDC
:10149000D8B4D05DD8B012D0F20E0101886FF30E2F
:1014A0000101876F15ECAEF0FC0E01018F6F9A0EF3
:1014B00001018E6F89ECB6F028EF92F00501D05152
:1014C0009EECA9F00501050E0101896F0501000ED2
:1014D0000101886FF50E01018B6F130E01018A6FF8
:1014E000D0C58CF1D1C58DF131EC92F00501050E1E
:1014F0000101886F0501000E0101876F15ECAEF048
:101500000501050E0101896F0501000E0101886FBB
:10151000FB0E01018B6FE60E01018A6FD4C58CF1C1
:10152000D5C58DF131EC92F00501050E01018F6FEB
:101530000501000E01018E6F89ECB6F028EF92F0E4
:10154000F60E0101886FC30E0101876F15ECAEF036
:10155000F10E0101886FE50E0101876F15ECAEF009
:10156000F30E0101886F1E0E0101876F15ECAEF0BE
:10157000FD0E01018C6F8E0E01018B6F47ECA0F008
:10158000FE0E01018C6F650E01018B6F47ECA0F020
:10159000FE0E01018C6F5B0E01018B6F47ECA0F01A
:1015A00028EF92F00101C2C17DF10101C1C17CF1BE
:1015B000FF0E01017F6FE10E01017E6F57ECAFF06E
:1015C0000009D8B46FD10101C2C17DF10101C1C1CF
:1015D0007CF1FA0E01017F6FA60E01017E6FD8EC3F
:1015E000B1F00009D8A41CD10101C2C17DF10101F3
:1015F000C1C17CF1FD0E01017F6F580E01017E6FAC
:10160000D8ECB1F00009D8A408D00101C2C18CF116
:101610000101C1C18BF150ECA2F00101C2C183F103
:101620000101C1C182F12CECA3F0010182C1D2F50C
:10163000010183C1D3F50501D3517D0A020ED8B44F
:10164000D219D8A412D0F40E0101886FD20E010174
:10165000876F15ECAEF0FD0E01018F6F4D0E01018D
:101660008E6F89ECB6F028EF92F00501D351800A15
:10167000F36E800EF35C000ED8B4D25DD8B012D0F9
:10168000F50E0101886F720E0101876F15ECAEF047
:10169000FB0E01018F6F880E01018E6F89ECB6F091
:1016A00028EF92F00501D351800A030F000ED8B441
:1016B000D25DD8A012D0F60E0101886F030E010191
:1016C000876F15ECAEF0FB0E01018F6F480E010124
:1016D0008E6F89ECB6F028EF92F00501D351D2114C
:1016E000D8B43ED00501050E0101896F0501000E39
:1016F0000101886FF50E01018B6FAD0E01018A6F3C
:10170000D2C58CF1D3C58DF131EC92F00501050EF7
:101710000101886F0501000E0101876F15ECAEF025
:101720000501050E0101896F0501000E0101886F99
:10173000F90E01018B6FAC0E01018A6FD4C58CF1DB
:10174000D5C58DF131EC92F00501050E01018F6FC9
:101750000501000E01018E6F89ECB6F028EF92F0C2
:101760008D82E80E01017C6F030E01017D6F000E7A
:1017700001017E6F000E01017F6F0DECB3F00501DA
:10178000D25122ECB4F001018BC1C8F501018CC12A
:10179000C9F50501050E0101896F0501000E010162
:1017A000886FF80E01018B6F3B0E01018A6FD2C565
:1017B0008CF1D3C58DF1C8C58EF1C9C58FF131EC5F
:1017C00092F08D920501050E0101886F0501000E52
:1017D0000101876F15ECAEF00501050E0101896F5F
:1017E0000501000E0101886FFD0E01018B6F670E70
:1017F00001018A6FD2C58CF1D3C58DF1C8C58EF1B8
:10180000C9C58FF131EC92F00501050E01018F6F12
:101810000501000E01018E6F89ECB6F028EF92F001
:10182000F90E0101886F8A0E0101876F15ECAEF089
:10183000FD0E0101886FC10E0101876F15ECAEF03E
:10184000FF0E0101886FB40E0101876F15ECAEF039
:10185000F00E0101886FD10E0101876F15ECAEF01B
:10186000FD0E0101886F260E0101876F15ECAEF0A9
:10187000FE0E01018C6FF30E01018B6F47ECA0F09F
:10188000FE0E01018C6F650E01018B6F47ECA0F01D
:10189000FC0E01018C6FA60E01018B6F47ECA0F0CE
:1018A00028EF92F00101C2C17DF10101C1C17CF1BB
:1018B000FF0E01017F6FE50E01017E6F57ECAFF067
:1018C0000009D8B4E8D20101C2C17DF10101C1C152
:1018D0007CF1FA0E01017F6FA60E01017E6FD8EC3C
:1018E000B1F00009D8A46ED20101C2C17DF101019D
:1018F000C1C17CF1FF0E01017F6F570E01017E6FA8
:10190000D8ECB1F00009D8B4DDD0020E22ECB4F06E
:10191000080E01018B250501CA6F000E01018C2103
:101920000501CB6F000E01019A6FA00E01019B6FA4
:10193000400E01019C6F000E01018B6F800E0101B2
:101940008C6F440E01018D6FCAC584F1CBC585F142
:1019500064ECB7F084C188F185C189F186C18AF150
:101960003CECA6F088C197F189C198F18AC199F140
:1019700081ECA5F097C1A6F198C1A7F199C1A8F192
:10198000C3ECA4F0A6C1C3F1A7C1C4F1A8C1C5F1BD
:10199000A9C1C6F1C3C1CCF5C4C1CDF5000E01018A
:1019A0009A6FFA0E01019B6F430E01019C6F000EAE
:1019B00001018B6F800E01018C6F440E01018D6F50
:1019C000CAC584F1CBC585F164ECB7F084C188F158
:1019D00085C189F186C18AF13CECA6F088C197F1F6
:1019E00089C198F18AC199F181ECA5F097C1A6F15E
:1019F00098C1A7F199C1A8F1C3ECA4F0A6C1C3F1A5
:101A0000A7C1C4F1A8C1C5F1A9C1C6F1C3C1CEF532
:101A1000C4C1CFF5CEC583F1CFC584F1000E01015D
:101A2000866F640E0101856FEDECB4F0010183C196
:101A3000CEF5010184C1CFF50501050E0101896FC5
:101A40000501000E0101886FF40E01018B6F040E79
:101A500001018A6FCCC58CF1CDC58DF1CEC58EF15B
:101A6000CFC58FF131EC92F00501050E0101886FB1
:101A70000501000E0101876F15ECAEF00501050EA2
:101A80000101896F0501000E0101886FFB0E010144
:101A90008B6F280E01018A6FCCC58CF1CDC58DF1FD
:101AA000CEC58EF1CFC58FF131EC92F00501050E58
:101AB00001018F6F0501000E01018E6F89ECB6F0F8
:101AC00028EF92F00101C2C17DF10101C1C17CF199
:101AD000FF0E01017F6FDC0E01017E6FD8ECB1F0CB
:101AE0000009D8B4BAD012ECAAF00009D8A49ED04C
:101AF0000501050E0101B06F0501000E0101AF6F78
:101B000021EE00F011EEB1F0090EDECFE6FFE82E77
:101B1000FCD7000E0101BA6F15ECA8F00501050E07
:101B20000101886F0501000E0101876F15ECAEF011
:101B3000F70E0101886FE20E0101876F15ECAEF020
:101B4000000E01018A6F000E01ECB7F0F90E0101E1
:101B50008B6FDF0E01018A6F55ECB2F00101045169
:101B6000D8B42AD00501050E0101896F0501000EC8
:101B70000101886FF70E01018B6FB80E01018A6FAA
:101B8000010107C18CF101018D6B010106C18EF1CC
:101B900001018F6B010102C190F10101916B010103
:101BA00001C192F10101936B010100C194F10101A6
:101BB000956B31EC92F029D00501050E0101896F7A
:101BC0000501000E0101886FF70E01018B6FA10E58
:101BD00001018A6F010107C18CF101018D6B0101C7
:101BE00006C18EF101018F6B010102C190F101016B
:101BF000916B010101C192F10101936B010100C1DF
:101C000094F10101956B31EC92F0000E01018A6FA5
:101C1000010E01ECB7F00501050E01018B6F050106
:101C2000000E01018A6F55ECB2F0F5D3F70E0101F9
:101C3000886F5A0E0101876F15ECAEF0000E01019E
:101C40008A6F010E01ECB7F0FA0E01018B6F010EE5
:101C500001018A6F55ECB2F0DED30101C2C17DF102
:101C60000101C1C17CF1FF0E01017F6FF90E01017D
:101C70007E6FD8ECB1F00009D8B49BD0F30E01010F
:101C8000886FDF0E0101876F15ECAEF0F40E0101D5
:101C9000886F6E0E0101876F15ECAEF00101C2C1B5
:101CA0007DF10101C1C17CF1000E01017F6F640E65
:101CB00001017E6F7CECB5F0F50E0101886FE50E39
:101CC0000101876F15ECAEF0C1C1D9FFC2C1DAFFC7
:101CD000DF50D8B4F9D70101C2C17DF10101C1C102
:101CE0007CF1C5ECB0F00101C2C17DF10101C1C1BF
:101CF0007CF16BEC9AF00009D8B44AD021EE00F0E8
:101D000011EE84F0090EDECFE6FFE82EFCD7E5ECFD
:101D10009EF00009D8A433D0F60E0101886FDD0EC5
:101D20000101876F15ECAEF012ECAAF00501050E6B
:101D30000101B06F0501000E0101AF6F21EE00F04F
:101D400011EEB1F0090EDECFE6FFE82EFCD7000E53
:101D50000101BA6F15ECA8F00501050E0101886FAD
:101D60000501000E0101876F15ECAEF0F70E0101C1
:101D7000886FE20E0101876F15ECAEF069D3F60EA5
:101D80000101886F570E0101876F15ECAEF060D32B
:101D9000F70E0101886F100E0101876F15ECAEF090
:101DA000F40E0101886FB10E0101876F15ECAEF0E2
:101DB0004FD3FD0E0101886F400E0101876F15ECB6
:101DC000AEF046D3F50E0101886F900E0101876FCA
:101DD00015ECAEF0FD0E0101886FFC0E0101876F5E
:101DE00015ECAEF0FE0E0101886F470E0101876F02
:101DF00015ECAEF0FF0E0101886F7B0E0101876FBD
:101E000015ECAEF0FF0E0101886F6D0E0101876FBA
:101E100015ECAEF0F10E0101886F1A0E0101876F0B
:101E200015ECAEF0F20E0101886F230E0101876FF1
:101E300015ECAEF0F80E0101886F260E0101876FD8
:101E400015ECAEF0FE0E01018C6FFC0E01018B6FE4
:101E500047ECA0F0FE0E01018C6F650E01018B6F47
:101E600047ECA0F0FF0E01018C6F4F0E01018B6F4C
:101E700047ECA0F0FF0E01018C6FD70E01018B6FB4
:101E800047ECA0F0FF0E01018C6FF50E01018B6F86
:101E900047ECA0F0DDD20101C2C17DF10101C1C159
:101EA0007CF1FF0E01017F6FE90E01017E6F57EC9F
:101EB000AFF00009D8B44DD10101C2C17DF10101DB
:101EC000C1C17CF1FA0E01017F6FA60E01017E6F88
:101ED000D8ECB1F00009D8A4FBD00101C2C17DF15A
:101EE0000101C1C17CF1FA0E01017F6F340E0101C5
:101EF0007E6F17ECB2F00009D8B464D0F29EF00EF9
:101F00000101886F7D0E0101876F010E52ECB1F067
:101F1000F00E0101886F7D0E0101876F010E52ECFA
:101F2000B1F0F00E0101886F7D0E0101876F010E87
:101F300052ECB1F0F00E0101886F7D0E0101876F48
:101F4000010E52ECB1F0F00E0101886F7D0E01011F
:101F5000876F010E52ECB1F0F00E0101886F7D0E1B
:101F60000101876F010E52ECB1F0F00E0101886F94
:101F70007D0E0101876F010E52ECB1F0F00E0101F0
:101F8000886F7D0E0101876F010E52ECB1F0F00EEB
:101F90000101886F7D0E0101876F010E52ECB1F0D7
:101FA000F28EF80E0101886F770E0101876F15EC34
:101FB000AEF0FC0E01018F6F5E0E01018E6F89EC99
:101FC000B6F046D20101C2C17DF10101C1C17CF16F
:101FD000F90E01017F6F320E01017E6F17ECB2F036
:101FE0000009D8B464D0F29EF00E0101886F6D0E26
:101FF0000101876F010E52ECB1F0F00E0101886F04
:102000006D0E0101876F010E52ECB1F0F00E01016F
:10201000886F6D0E0101876F010E52ECB1F0F00E6A
:102020000101886F6D0E0101876F010E52ECB1F056
:10203000F00E0101886F6D0E0101876F010E52ECE9
:10204000B1F0F00E0101886F6D0E0101876F010E76
:1020500052ECB1F0F00E0101886F6D0E0101876F37
:10206000010E52ECB1F0F00E0101886F6D0E01010E
:10207000876F010E52ECB1F0F00E0101886F6D0E0A
:102080000101876F010E52ECB1F0F28EF80E0101E2
:10209000886F4F0E0101876F15ECAEF0FB0E01014A
:1020A0008F6F780E01018E6F89ECB6F0D1D1F80EEA
:1020B0000101886F9E0E0101876F15ECAEF0FA0EDC
:1020C00001018F6FD80E01018E6F89ECB6F0C0D17F
:1020D000F70E0101886F8A0E0101876F15ECAEF0D3
:1020E000FD0E0101886FF10E0101876F15ECAEF056
:1020F000FE0E0101886FAB0E0101876F15ECAEF08B
:10210000F10E0101886F5F0E0101876F15ECAEF0D3
:10211000F60E0101886F3B0E0101876F15ECAEF0E2
:10212000FC0E01018C6FFC0E01018B6F47ECA0F0DF
:10213000FE0E01018C6FB40E01018B6F47ECA0F015
:10214000FF0E01018C6FA80E01018B6F47ECA0F010
:102150007FD10101C2C17DF10101C1C17CF1FA0E43
:1021600001017F6FA60E01017E6F17ECB2F000092E
:10217000D8B45ED1FD0E0101886FB50E0101876FE5
:1021800015ECAEF0FE0E0101886F3D0E0101876F68
:1021900015ECAEF0FD0E0101886F330E0101876F63
:1021A00015ECAEF0FD0E0101886FCD0E0101876FB9
:1021B00015ECAEF0F90E0101886FBD0E0101876FBD
:1021C00015ECAEF0FE0E0101886F070E0101876F5E
:1021D00015ECAEF0FF0E0101886F900E0101876FC4
:1021E00015ECAEF0FF0E0101886F5F0E0101876FE5
:1021F00015ECAEF0F20E0101886F600E0101876FE1
:1022000015ECAEF0F70E0101886FCF0E0101876F5C
:1022100015ECAEF0FB0E0101886FC80E0101876F4F
:1022200015ECAEF0000E01018A6F000E01ECB7F064
:10223000FE0E01018B6F8D0E01018A6F55ECB2F01D
:1022400012ECAAF00009D8A4D0D00501050E0101B6
:10225000B06F0501000E0101AF6F21EE00F011EE2D
:10226000B1F0090EDECFE6FFE82EFCD7000E01012B
:10227000BA6F15ECA8F00501050E0101886F050184
:10228000000E0101876F15ECAEF0F70E0101886FAB
:10229000E20E0101876F15ECAEF001010451D8B4D4
:1022A0002AD00501050E0101896F0501000E01010B
:1022B000886FF70E01018B6FB80E01018A6F010163
:1022C00007C18CF101018D6B010106C18EF1010185
:1022D0008F6B010102C190F10101916B010101C1FC
:1022E00092F10101936B010100C194F10101956B21
:1022F00031EC92F029D00501050E0101896F05012D
:10230000000E0101886FF70E01018B6FA10E010114
:102310008A6F010107C18CF101018D6B010106C1BA
:102320008EF101018F6B010102C190F10101916BEE
:10233000010101C192F10101936B010100C194F10E
:102340000101956B31EC92F0000E01018A6F010ED4
:1023500001ECB7F00501050E01018B6F0501000EC0
:1023600001018A6F55ECB2F0FC0E01018C6FB60EC4
:1023700001018B6F47ECA0F0FE0E01018C6FBD0ECA
:1023800001018B6F47ECA0F0FD0E01018C6FD90E9F
:1023900001018B6F47ECA0F0FE0E01018C6F120E55
:1023A00001018B6F47ECA0F0FA0E01018C6FE80E73
:1023B00001018B6F47ECA0F0FE0E01018C6F6F0ED8
:1023C00001018B6F47ECA0F0FF0E01018C6FCD0E69
:1023D00001018B6F47ECA0F0FF0E01018C6FD20E54
:1023E00001018B6F47ECA0F016D0F70E0101886F4A
:1023F0005A0E0101876F15ECAEF0000E01018A6FD5
:10240000010E01ECB7F0FA0E01018B6F010E010114
:102410008A6F55ECB2F0000E0101CD6F000E010184
:10242000CE6F000E0101CF6F000E0101D06F10D0F2
:10243000FB0E0101886F380E0101876F15ECAEF0BD
:10244000FB0E01018F6F380E01018E6F89ECB6F023
:10245000F70E0101886FE00E0101876F15ECAEF0F9
:1024600012000101010E0101A46F01018C0E010196
:10247000A36FACEF97F00101AC51250AD8B40CD092
:1024800088C1D9FF89C1DAFF0101ACC1DFFF0101B9
:10249000884B892BACEF97F0000E0101A76F000E5F
:1024A0000101A66F000E0101AE6F000E0101AD6FBC
:1024B0000ED00101AD8708D00101AD8105D0010129
:1024C000AE8702D00101AD8501018A4B8B2B010142
:1024D0008AC1F6FF01018BC1F7FF000EF86E0800FC
:1024E000F550200AD8B4E8D7030AD8B4E8D70E0AC2
:1024F000D8B4DFD71D0AD8B4E5D70101ADA702D003
:102500000101AD9501018AC1F6FF01018BC1F7FF01
:10251000000EF86E0800F550A9ECB7F0D8A04CD02A
:10252000000E0101A76F000E0101A66FA6C17CF18C
:10253000A7C17DF1000E01017F6F0A0E01017E6FC0
:10254000E6ECB6F001017CC1A6F101017DC1A7F165
:10255000D00E0101986FFF0E996F01018AC1F6FF3D
:1025600001018BC1F7FF000EF86E0800F550010164
:102570009A6F9B6B0101985101019A2701019951B2
:1025800001019B2301019A510101A62701019B51E1
:102590000101A72301018A4B8B2B01018AC1F6FFA0
:1025A00001018BC1F7FF000EF86E0800F550A9EC91
:1025B000B7F0D8A021D0BAD701018AC1F6FF010136
:1025C0008BC1F7FF000EF86E0800F5502A0AD8A458
:1025D00013D0A3C1D9FFA4C1DAFF0101DECFA6F158
:1025E0000101DDCFA7F1020E0101A327000E0101B9
:1025F000A42301018A4B8B2B01018AC1F6FF010143
:102600008BC1F7FF000EF86E0800F5502E0AD8A413
:102610004DD00101AE8D01018A4B8B2B01018AC186
:10262000F6FF01018BC1F7FF000EF86E0800F550B0
:102630002A0AD8A411D0A3C1D9FFA4C1DAFFDF5060
:102640000101A56F020E0101A327000E0101A423C1
:1026500001018A4B8B2BD8D0000E0101A56F17D03A
:1026600001018AC1F6FF01018BC1F7FF000EF86E70
:102670000800F5CF98F10101A5510A0DF3500101B1
:102680009825D00F0101A56F01018A4B8B2B010109
:102690008AC1F6FF01018BC1F7FF000EF86E08003A
:1026A000F550A9ECB7F0D8A0AFD0DAD7000E0101F1
:1026B000A56FAAD00101AD8DD1D00101AD8B010173
:1026C000AD8FCCD00101A551D8B41AD00101A5C15C
:1026D00098F10101996B98BF99070101AA51010175
:1026E000985D0101AB5101019959D8B009D00101A0
:1026F000A5510101AA6F0101AB6B0101AABFAB0794
:102700000101A6510101AA5D0101A7510101AB59C7
:10271000D8B00AD0010121EEAAF0DE500101A65F77
:10272000DD500101A75B06D0000E0101A76F000E6E
:102730000101A66F0101ADA70AD024D088C1D9FF3D
:1027400089C1DAFF200EDF6E0101884B892B010160
:10275000A607D8A0A7070101A629D8B4A729D8B4ED
:1027600011D0ECD7A8C1D9FFA9C1DAFF88C1E1FF18
:1027700089C1E2FFDFCFE7FF0101A84BA92B0101CF
:10278000884B892B0101AA07D8A0AB070101AA2910
:10279000D8B4AB29D8A4E6D70101ADB70AD0DCD3B1
:1027A00088C1D9FF89C1DAFF200EDF6E0101884B95
:1027B000892B0101A607D8A0A7070101A629D8B433
:1027C000A729D8B4C9D3ECD7A3C1D9FFA4C1DAFFD4
:1027D000DF500101AC6F020E0101A327000E0101C1
:1027E000A4230101010E0101A96F0101AC0E010139
:1027F000A86F000E0101AB6F010E0101AA6F62D735
:10280000C00E0101AD132AD001018AC1F6FF0101FA
:102810008BC1F7FF01018A4B8B2B000EF86E08006D
:102820000101F5CFACF10101AC51000AD8B4A7D336
:10283000580AD8B442D73B0AD8B4C6D7070AD8B486
:102840000DD00D0AD8B40AD0060AD8B433D71A0A64
:10285000D8B4D6D70D0AD8B432D7C3D7C00E010129
:10286000AD150101986F000E0101AE150101996FC0
:10287000010199519811D8A425D0A3C1D9FFA4C1B1
:10288000DAFF0101DECFA8F10101DDCFA9F1020ECF
:102890000101A327000E0101A4230101A951800A0F
:1028A000F36E800EF35C000ED8B4A85DD8B01AD0D9
:1028B000030E0101AD130101A86D0101A91FD8B0DC
:1028C000A92B10D0A3C1D9FFA4C1DAFF0101DECF2B
:1028D000A8F10101DDCFA9F1020E0101A327000E2D
:1028E0000101A4230101A5677DD00101A951A8110F
:1028F000D8A478D00101A52B75D0010E0101AC6FD1
:102900000101AC51050AD8B47CD00101AC51020DD3
:10291000FB0EF324F66EEF0EF420F76EF86A000E4D
:10292000F8220900F5CF98F10900F5CF99F10101DE
:1029300098510101A85D010199510101A959D8A03F
:1029400060D00101AC2BDCD7010E0101AC6F01019D
:10295000AC51040AD8B455D00101AC51020D050E9A
:10296000F324F66EF00EF420F76EF86A000EF822EB
:102970000900F5CF98F10900F5CF99F101019851BF
:102980000101A85D010199510101A959D8A039D0CF
:102990000101AC2BDCD7010E0101AC6F0101AC5180
:1029A000060AD8B42ED00101AC51020DEF0EF3246B
:1029B000F66EEF0EF420F76EF86A000EF8220900AA
:1029C000F5CF98F10900F5CF99F101019851010176
:1029D000A85D010199510101A959D8A012D00101A6
:1029E000AC2BDCD70101AD51C00B000AD8B485D7A0
:1029F000400AD8B4D0D7C00AD8B4A6D7400AD8B4B1
:102A00007CD70101AC51800A0101986F0101A551E9
:102A1000800A0101985DD8B003D0A5C1ACF10DD0FA
:102A20000101A551800A0101986F0101AC51800A92
:102A30000101985DD8A0ACC1A5F10101A751A61173
:102A4000D8B413D0030E0101AD150101986F000E2B
:102A50000101AE150101996F010199519811D8B486
:102A600004D00101A607D8A0A7070101AEAD22D06E
:102A7000800E0101A5BF7F0E0101986F0101A651D3
:102A80000101A55D0101A751800A01019859D8B043
:102A90000BD00101A5510101A65F000E0101A5BFE8
:102AA000FF0E0101A75B06D0000E0101A76F000E0B
:102AB0000101A66FC40E0101986F080E996F010104
:102AC000ADC19AF10101AEC19BF101019851010123
:102AD0009A170101995101019B1701019B51080AA5
:102AE000400ED8B49A19D8A40AD00101A751A61152
:102AF000D8B437D00101A607D8A0A70732D0C00E9E
:102B00000101986F080E996F0101ADC19AF10101A1
:102B1000AEC19BF10101985101019A170101995130
:102B200001019B1701019B51080A800ED8B49A1924
:102B3000D8A417D00101A751800A800F030ED8B482
:102B4000A65DD8A008D00101FE0E0101A627FF0E48
:102B50000101A72306D0000E0101A76F000E01019D
:102B6000A66F800E0101ACBF7F0E0101986F0101BD
:102B7000A6510101AC5D0101A751800A01019859DC
:102B8000D8B00BD00101AC510101A65F000E0101CC
:102B9000ACBFFF0E0101A75B06D0000E0101A76FBD
:102BA000000E0101A66F0101ADA56FD0030E01015A
:102BB000AD150101986F000E0101AE150101996F6D
:102BC000010199519811D8B406D088C1D9FF89C1A3
:102BD000DAFF2D0E08D00101ADA107D088C1D9FFC1
:102BE00089C1DAFF200EDF6E39D0C00E0101986F67
:102BF000080E996F0101ADC19AF10101AEC19BF1BF
:102C00000101985101019A170101995101019B1786
:102C100001019B51080A800ED8B49A19D8A421D07A
:102C200088C1D9FF89C1DAFF300EDF6E0101884B00
:102C3000892B0101ADBB05D0000E01019E6F780EFE
:102C400004D0000E01019E6F580E01019D6F88C1D6
:102C5000D9FF89C1DAFF01019DC1DFFF0101884B66
:102C6000892B01010101A751A611D8B451D188C106
:102C7000D9FF89C1DAFF300EDF6E0101884B892B45
:102C80000101A607D8A0A707EDD70101A751A611FA
:102C9000D8B415D00101ADB712D088C1D9FF89C110
:102CA000DAFF200EDF6E0101884B892B0101A60798
:102CB000D8A0A7070101A751A611D8A4EED7030EEB
:102CC0000101AD150101986F000E0101AE15010162
:102CD000996F010199519811D8B406D088C1D9FFD4
:102CE00089C1DAFF2D0E08D00101ADA109D088C13C
:102CF000D9FF89C1DAFF200EDF6E0101884B892BD5
:102D0000C00E0101986F080E996F0101ADC19AF1D3
:102D10000101AEC19BF10101985101019A17010116
:102D2000995101019B1701019B51080A400ED8B42B
:102D30009A19D8A407D088C1D9FF89C1DAFF300E0B
:102D4000DF6EE3D0C00E0101986F080E996F01018C
:102D5000ADC19AF10101AEC19BF101019851010190
:102D60009A170101995101019B1701019B51080A12
:102D7000800ED8B49A19D8A4CBD088C1D9FF89C104
:102D8000DAFF300EDF6E0101884B892B0101ADBBEC
:102D900005D0000E0101A06F780E04D0000E0101D5
:102DA000A06F580E01019F6F88C1D9FF89C1DAFF5A
:102DB00001019FC1DFFFA9D00101A551020DFB0E4A
:102DC000F324F66EEF0EF420F76EF86A000EF82288
:102DD00009000101F5CF7EF10A000101F5CF7FF175
:102DE000A8C17CF1A9C17DF1D1ECB2F001017CC197
:102DF00083F101017DC184F1000E0101866F0A0E8D
:102E00000101856FEDECB4F00101835164D0A8C1DC
:102E10007CF1A9C17DF10101A551020D050EF3243C
:102E2000F66EF00EF420F76EF86A000EF822090034
:102E30000101F5CF7EF10A000101F5CF7FF1D1EC60
:102E4000B2F001017C510F0B01019C6F0101ADBB80
:102E500005D0F90E0101A26F790E04D0F90E01011F
:102E6000A26F680E0101A16F01019C51010D0101CA
:102E7000A1C198F10101A2C199F1F3500101982774
:102E8000F4500101992398C1F6FF99C1F7FF000E94
:102E9000F86E08000101F5CFACF130D0A8C17CF18B
:102EA000A9C17DF10101A551020DEF0EF324F66ECB
:102EB000EF0EF420F76EF86A000EF8220900010107
:102EC000F5CF7EF10A000101F5CF7FF1D1ECB2F030
:102ED00001017C51070B300F0101AC6F0FD00101D4
:102EE000AD51C00B000AD8B467D7400AD8B4D6D7C2
:102EF000C00AD8B48CD7400AD8B45ED788C1D9FFED
:102F000089C1DAFF0101ACC1DFFF0101884B892BC8
:102F10000101A5070101A529D8A4E1D70101ADA7A9
:102F20001BD00101A751800A800F010ED8B4A65D05
:102F3000D8A012D088C1D9FF89C1DAFF200EDF6E78
:102F40000101884B892B0101A607D8A0A707010121
:102F5000A751A611D8A4EED701018AC1F6FF01013D
:102F60008BC1F7FF01018A4B8B2B000EF86E080016
:102F70000101F5CFACF10101AC673BEF92F088C1E4
:102F8000D9FF89C1DAFF000EDF6E12000A0E0101BF
:102F90007C6F000E01017D6F000E01017E6F000E3F
:102FA00001017F6F0DECB3F0A70E01018E6F610E72
:102FB0008F6F000E906F000E916F01018E51010115
:102FC000CD5D01018F510101CE59010190510101E7
:102FD000CF59010191510101D059D8B00ED0010E45
:102FE0000101CD27000E0101CE230101CF230101F4
:102FF000D023010E0101096F12000101CE51610AB7
:10300000A70ED8B4CD19CF11D011D8A41200010E3B
:103010000101CD27000E0101CE230101CF230101C3
:10302000D023000E0101096F01010C670FD0000EC3
:1030300001010B6F0DECB8F0000E01018A6F000E5C
:1030400001ECB7F03E0E25ECB8F0120001010B2B9D
:1030500001010B05D8A413D00DECB8F0000E01014E
:103060008A6F010E01ECB7F00101010E01018B6FB7
:1030700001010E0E01018A6F55ECB2F013D201016D
:103080000B51020AD8A433D00DECB8F0000E0101A8
:103090008A6F000E01ECB7F00101010E01018B6F88
:1030A00001010E0E01018A6F55ECB2F0000E010114
:1030B0008A6F010E01ECB7F00101010E01018B6F67
:1030C00001011E0E01018A6F55ECB2F00101010EE3
:1030D00001017D6F01010E0E01017C6F000E0101E7
:1030E0007F6F100E01017E6F7CECB5F0DBD101012A
:1030F0000B51030AD8A433D00DECB8F0000E010137
:103100008A6F000E01ECB7F00101010E01018B6F17
:1031100001011E0E01018A6F55ECB2F0000E010193
:103120008A6F010E01ECB7F00101010E01018B6FF6
:1031300001012E0E01018A6F55ECB2F00101010E62
:1031400001017D6F01011E0E01017C6F000E010166
:103150007F6F100E01017E6F7CECB5F0A3D10101F1
:103160000B51040AD8A433D00DECB8F0000E0101C5
:103170008A6F000E01ECB7F00101010E01018B6FA7
:1031800001012E0E01018A6F55ECB2F0000E010113
:103190008A6F010E01ECB7F00101010E01018B6F86
:1031A00001013E0E01018A6F55ECB2F00101010EE2
:1031B00001017D6F01012E0E01017C6F000E0101E6
:1031C0007F6F100E01017E6F7CECB5F06BD10101B9
:1031D0000B51050AD8A433D00DECB8F0000E010154
:1031E0008A6F000E01ECB7F00101010E01018B6F37
:1031F00001013E0E01018A6F55ECB2F0000E010193
:103200008A6F010E01ECB7F00101010E01018B6F15
:1032100001014E0E01018A6F55ECB2F00101010E61
:1032200001017D6F01013E0E01017C6F000E010165
:103230007F6F100E01017E6F7CECB5F033D1010180
:103240000B51060AD8A433D00DECB8F0000E0101E2
:103250008A6F000E01ECB7F00101010E01018B6FC6
:1032600001014E0E01018A6F55ECB2F0000E010112
:103270008A6F010E01ECB7F00101010E01018B6FA5
:1032800001015E0E01018A6F55ECB2F00101010EE1
:1032900001017D6F01014E0E01017C6F000E0101E5
:1032A0007F6F100E01017E6F7CECB5F0FBD0010149
:1032B0000B51070AD8A431D00DECB8F0000E010173
:1032C0008A6F000E01ECB7F00101010E01018B6F56
:1032D00001015E0E01018A6F55ECB2F0000E010192
:1032E0008A6F010E01ECB7F0000E01018B6F270E03
:1032F00001018A6F55ECB2F00101010E01017D6FF1
:1033000001015E0E01017C6F000E01017F6F100E46
:1033100001017E6F7CECB5F0C5D001010B51080AAC
:10332000D8A42DD00DECB8F0000E01018A6F000E6C
:1033300001ECB7F0000E01018B6F270E01018A6FBF
:1033400055ECB2F0000E01018A6F010E01ECB7F0EE
:10335000000E01018B6F370E01018A6F55ECB2F040
:10336000000E01017D6F270E01017C6F000E01012F
:103370007F6F100E01017E6F7CECB5F093D00101E0
:103380000B51090AD8A42FD00DECB8F0000E0101A2
:103390008A6F000E01ECB7F0000E01018B6F370E43
:1033A00001018A6F55ECB2F0000E01018A6F010E27
:1033B00001ECB7F00001000E01018B6F0001E90E76
:1033C00001018A6F55ECB2F0000E01017D6F370EDE
:1033D00001017C6F000E01017F6F100E01017E6FF5
:1033E0007CECB5F05FD001010B510A0AD8A433D0B0
:1033F0000DECB8F0000E01018A6F000E01ECB7F081
:103400000001000E01018B6F0001E90E01018A6FBE
:1034100055ECB2F0000E01018A6F010E01ECB7F01D
:103420000001000E01018B6F0001D90E01018A6FAE
:1034300055ECB2F00001000E01017D6F0001E90EB4
:1034400001017C6F000E01017F6F100E01017E6F84
:103450007CECB5F027D001010B510B0AD8A422D087
:103460000DECB8F0000E01018A6F000E01ECB7F010
:103470000001000E01018B6F0001D90E01018A6F5E
:1034800055ECB2F00001000E01017D6F0001D90E74
:1034900001017C6F000E01017F6F100E01017E6F34
:1034A0007CECB5F001010B5101010C5DD8B006D0E8
:1034B000000E01010C6F000E01010B6F980E01014F
:1034C000CD6F3A0E0101CE6F000E0101CF6F000EDD
:1034D0000101D06F1200000E01017F6F7CC1D9FF86
:1034E0007DC1DAFFDF50D8B40AD0200E7CC1D9FFED
:1034F0007DC1DAFFDF6203D001017C4B7D2B7CC1F3
:10350000D9FF7DC1DAFF2F0EDF6418D07CC1D9FF4F
:103510007DC1DAFFDF5001017E6F3A0E01017E5D51
:10352000D8B00CD07CC1D9FF7DC1DAFFDF50D00FFD
:1035300001017F6F01017C4B7D2B02D0000E120038
:103540007CC1D9FF7DC1DAFF2F0EDF641ED07CC1A4
:10355000D9FF7DC1DAFFDF5001017E6F3A0E010114
:103560007E5DD8B012D00A0E01017F03F350010135
:103570007F6F7CC1D9FF7DC1DAFFDF50D00F010121
:103580007F2701017C4B7D2B0AD02F0E7CC1D9FFF8
:103590007DC1DAFFDF6201D002D0000E12007FC1D0
:1035A00087F12F0E7CC1D9FF7DC1DAFFDF6204D025
:1035B00001017C4B7D2B02D0000E12007CC1D9FF93
:1035C0007DC1DAFF2F0EDF6418D07CC1D9FF7DC129
:1035D000DAFFDF5001017E6F3A0E01017E5DD8B047
:1035E0000CD07CC1D9FF7DC1DAFFDF50D00F0101C3
:1035F0007F6F01017C4B7D2B02D0000E12007CC13D
:10360000D9FF7DC1DAFF2F0EDF641ED07CC1D9FF48
:103610007DC1DAFFDF5001017E6F3A0E01017E5D50
:10362000D8B012D00A0E01017F03F35001017F6F61
:103630007CC1D9FF7DC1DAFFDF50D00F01017F27A8
:1036400001017C4B7D2B0AD02F0E7CC1D9FF7DC19F
:10365000DAFFDF6201D002D0000E12007FC186F1D6
:103660002F0E7CC1D9FF7DC1DAFFDF6204D00101DA
:103670007C4B7D2B02D0000E12007CC1D9FF7DC196
:10368000DAFF2F0EDF6418D07CC1D9FF7DC1DAFFCD
:10369000DF5001017E6F3A0E01017E5DD8B00CD083
:1036A0007CC1D9FF7DC1DAFFDF50D00F01017F6FF0
:1036B00001017C4B7D2B02D0000E12007CC1D9FF92
:1036C0007DC1DAFF2F0EDF641ED07CC1D9FF7DC122
:1036D000DAFFDF5001017E6F3A0E01017E5DD8B046
:1036E00012D00A0E01017F03F35001017F6F7CC1EC
:1036F000D9FF7DC1DAFFDF50D00F01017F27010123
:103700007C4B7D2B02D0000E12007FC188F1200E71
:103710007CC1D9FF7DC1DAFFDF6203D001017C4BA0
:103720007D2B7CC1D9FF7DC1DAFF2F0EDF6418D05D
:103730007CC1D9FF7DC1DAFFDF5001017E6F3A0EF7
:1037400001017E5DD8B00CD07CC1D9FF7DC1DAFF0C
:10375000DF50D00F01017F6F01017C4B7D2B02D028
:10376000000E12007CC1D9FF7DC1DAFF2F0EDF648D
:103770001ED07CC1D9FF7DC1DAFFDF5001017E6F11
:103780003A0E01017E5DD8B012D00A0E01017F030E
:10379000F35001017F6F7CC1D9FF7DC1DAFFDF509B
:1037A000D00F01017F2701017C4B7D2B0AD03A0EFF
:1037B0007CC1D9FF7DC1DAFFDF6201D002D0000EEB
:1037C00012007FC182F13A0E7CC1D9FF7DC1DAFFC0
:1037D000DF6204D001017C4B7D2B02D0000E120071
:1037E0007CC1D9FF7DC1DAFF2F0EDF6418D07CC108
:1037F000D9FF7DC1DAFFDF5001017E6F3A0E010172
:103800007E5DD8B00CD07CC1D9FF7DC1DAFFDF501E
:10381000D00F01017F6F01017C4B7D2B02D0000E88
:1038200012007CC1D9FF7DC1DAFF2F0EDF641ED0EC
:103830007CC1D9FF7DC1DAFFDF5001017E6F3A0EF6
:1038400001017E5DD8B012D00A0E01017F03F35052
:1038500001017F6F7CC1D9FF7DC1DAFFDF50D00F3E
:1038600001017F2701017C4B7D2B0AD03A0E7CC1E0
:10387000D9FF7DC1DAFFDF6201D002D0000E120055
:103880007FC181F13A0E7CC1D9FF7DC1DAFFDF62D1
:1038900004D001017C4B7D2B02D0000E12007CC1B4
:1038A000D9FF7DC1DAFF2F0EDF6418D07CC1D9FFAC
:1038B0007DC1DAFFDF5001017E6F3A0E01017E5DAE
:1038C000D8B00CD07CC1D9FF7DC1DAFFDF50D00F5A
:1038D00001017F6F01017C4B7D2B02D0000E120095
:1038E0007CC1D9FF7DC1DAFF2F0EDF641ED07CC101
:1038F000D9FF7DC1DAFFDF5001017E6F3A0E010171
:103900007E5DD8B012D00A0E01017F03F350010191
:103910007F6F7CC1D9FF7DC1DAFFDF50D00F01017D
:103920007F2701017C4B7D2B02D0000E12007FC14E
:1039300080F1200E7CC1D9FF7DC1DAFFDF6203D0A8
:1039400001017C4B7D2B610E7CC1D9FF7DC1DAFF6B
:10395000DF620ED001017C4B7D2B6D0E7CC1D9FF47
:103960007DC1DAFFDF6202D0000E14D0000E12001B
:10397000700E7CC1D9FF7DC1DAFFDF6210D001017A
:103980007C4B7D2B6D0E7CC1D9FF7DC1DAFFDF62E0
:1039900004D0010E0101846F04D0000E1200000E4D
:1039A00012000D0E0101875DD8B018D0200E010164
:1039B000865DD8B013D0640E0101885DD8B00ED0FA
:1039C0000D0E0101825DD8B009D03C0E0101815D70
:1039D000D8B004D03B0E0101806502D0000E120069
:1039E00087C107F186C106F188C108F182C102F1E1
:1039F00081C101F180C100F184C104F1010E120006
:103A0000000E0101C76F000E0101C86F62ECB8F033
:103A10004DECB5F0800E0101896F250E01018A6F12
:103A2000000E01018B6F000E01018C6F000E010171
:103A30008D6F6BECA1F0010E68ECAEF0D4ECB7F03A
:103A400058ECB8F0E8ECA6F0A8ECB5F042ECB8F011
:103A5000000E0101C76F22D08C828C94500E0101A0
:103A60007C6FC30E01017D6F000E01017E6F000EA1
:103A700001017F6F0DECB3F08C848C92500E01012C
:103A80007C6FC30E01017D6F000E01017E6F000E81
:103A900001017F6F0DECB3F00101C72B090E01018D
:103AA000C765DAD7410E9EECA9F0140E01017C6FB8
:103AB000000E01017D6F000E01017E6F000E0101FD
:103AC0007F6F0DECB3F0000E01018A6F000E01EC68
:103AD000B7F0FF0E01018B6F0E0E01018A6F55ECDE
:103AE000B2F0A00E01017C6F860E01017D6F010E08
:103AF00001017E6F000E01017F6F0DECB3F0000E2F
:103B000001018A6F000E01ECB7F0FE0E01018B6F10
:103B1000A10E01018A6F55ECB2F0A00E01017C6F7D
:103B2000860E01017D6F010E01017E6F000E010105
:103B30007F6F0DECB3F0000E01018A6F000E01ECF7
:103B4000B7F0FE0E01018B6F280E01018A6F55EC54
:103B5000B2F0A00E01017C6F860E01017D6F010E97
:103B600001017E6F000E01017F6F0DECB3F0000EBE
:103B700001018A6F000E01ECB7F0FD0E01018B6FA1
:103B8000E50E01018A6F55ECB2F0A00E01017C6FC9
:103B9000860E01017D6F010E01017E6F000E010195
:103BA0007F6F0DECB3F0000E01018A6F000E01EC87
:103BB000B7F0FD0E01018B6FA80E01018A6F55EC65
:103BC000B2F0A00E01017C6F860E01017D6F010E27
:103BD00001017E6F000E01017F6F0DECB3F0000E4E
:103BE00001018A6F000E01ECB7F0FD0E01018B6F31
:103BF000180E01018A6F55ECB2F0A00E01017C6F26
:103C0000860E01017D6F010E01017E6F000E010124
:103C10007F6F0DECB3F0000E01018A6F000E01EC16
:103C2000B7F0FC0E01018B6F8B0E01018A6F55EC12
:103C3000B2F0A00E01017C6F860E01017D6F010EB6
:103C400001017E6F000E01017F6F0DECB3F0000EDD
:103C500001018A6F000E01ECB7F0FB0E01018B6FC2
:103C6000B80E01018A6F55ECB2F0A00E01017C6F15
:103C7000860E01017D6F010E01017E6F000E0101B4
:103C80007F6F0DECB3F0000E01018A6F000E01ECA6
:103C9000B7F0FA0E01018B6F670E01018A6F55ECC8
:103CA000B2F0A00E01017C6F860E01017D6F010E46
:103CB00001017E6F000E01017F6F0DECB3F0000E6D
:103CC00001018A6F010E01ECB7F0FE0E01018B6F4E
:103CD000970E01018A6F55ECB2F0A00E01017C6FC6
:103CE000860E01017D6F010E01017E6F000E010144
:103CF0007F6F0DECB3F0F50E0101886FCA0E010164
:103D0000876F15ECAEF0640E0101C86F15D001018C
:103D1000C8513CECACF0500E01017C6FC30E0101A8
:103D20007D6F000E01017E6F000E01017F6F0DECB3
:103D3000B3F0050E0101C85F0101C867E8D7F90EAD
:103D40008C1634ECB7F034ECB7F034ECB7F00DEC83
:103D5000B8F0000E01018A6F000E01ECB7F03E0EC4
:103D600025ECB8F0C6EC97F003016451D8B4FAD74B
:103D7000030164510D0AD8B40FD0030164510A0A3B
:103D8000D8B40AD00301030E0101C26F0301640E0F
:103D90000101C16F00EC80F00301030E01017D6F92
:103DA0000301640E01017C6F000E01017F6F640E40
:103DB00001017E6F7CECB5F0F50E0101886FE30E1A
:103DC0000101876F15ECAEF0CDD7000E0101986FA1
:103DD000010184C17CF101017D6B000E01017F6F47
:103DE0000A0E01017E6FA5ECACF07CC18DF17DC1A6
:103DF0008EF1010184C17CF101017D6B000E010196
:103E00007F6F0A0E01017E6F85ECAAF001017C39FB
:103E1000F00B01018D250101916F000E01017F6FF3
:103E200091C180F1680EBDECADF00101986F010108
:103E30009851D8B402D0010E1200010185C17CF165
:103E400001017D6B000E01017F6F0A0E01017E6F83
:103E5000A5ECACF07CC18DF17DC18EF1010185C175
:103E60007CF101017D6B000E01017F6F0A0E0101E3
:103E70007E6F85ECAAF001017C39F00B01018D25E4
:103E80000101926F010E01017F6F92C180F1680EF6
:103E9000BDECADF00101986F01019851D8B402D08A
:103EA000020E120088C18DF1050E01018E6F010115
:103EB000D8908D3701018E2FFAD7010186C17CF190
:103EC00001017D6B000E01017F6F0A0E01017E6F03
:103ED000A5ECACF07CC18FF17DC190F1010186C1F0
:103EE0007CF101017D6B000E01017F6F0A0E010163
:103EF0007E6F85ECAAF001017C39F00B01018F2562
:103F000001018D250101936F020E01017F6F93C1A5
:103F100080F1680EBDECADF00101986F0101985180
:103F2000D8B402D0030E120089C194F1030E01012E
:103F30007F6F94C180F1680EBDECADF00101986F08
:103F400001019851D8B402D0040E120001018AC1B7
:103F50007CF101017D6B000E01017F6F0A0E0101F2
:103F60007E6FA5ECACF07CC18DF17DC18EF10101BD
:103F70008AC17CF101017D6B000E01017F6F0A0E89
:103F800001017E6F85ECAAF001017C39F00B010183
:103F90008D250101956F040E01017F6F95C180F1A0
:103FA000680EBDECADF00101986F01019851D8B4D5
:103FB00002D0050E120001018BC17CF101017D6B65
:103FC000000E01017F6F0A0E01017E6FA5ECACF0BF
:103FD0007CC18DF17DC18EF101018BC17CF10101AC
:103FE0007D6B000E01017F6F0A0E01017E6F85EC73
:103FF000AAF001017C39F00B01018D250101966FBA
:10400000050E01017F6F96C180F1680EBDECADF029
:104010000101986F01019851D8B402D0060E120028
:1040200001018CC17CF101017D6B000E01017F6FEC
:104030000A0E01017E6FA5ECACF07CC18DF17DC153
:104040008EF101018CC17CF101017D6B000E01013B
:104050007F6F0A0E01017E6F85ECAAF001017C39A9
:10406000F00B01018D250101976F060E01017F6F95
:1040700097C180F1680EBDECADF00101986F0101B0
:104080009851D8B402D0070E1200000E12000101A0
:1040900009671200980E0101CD6F3A0E0101CE6F33
:1040A000000E0101CF6F000E0101D06F01010C2B3A
:1040B00001010C05D8A417D001018CC185F10101C3
:1040C0008BC184F10101010E0101876F01010E0E08
:1040D0000101866F100E0101886F000E0101896FCA
:1040E00007ECADF0120001010C51020AD8A417D060
:1040F00001018CC185F101018BC184F10101010E27
:104100000101876F01011E0E0101866F100E010172
:10411000886F000E0101896F07ECADF012000101FC
:104120000C51030AD8A417D001018CC185F10101FB
:104130008BC184F10101010E0101876F01012E0E77
:104140000101866F100E0101886F000E0101896F59
:1041500007ECADF0120001010C51040AD8A417D0ED
:1041600001018CC185F101018BC184F10101010EB6
:104170000101876F01013E0E0101866F100E0101E2
:10418000886F000E0101896F07ECADF0120001018C
:104190000C51050AD8A417D001018CC185F1010189
:1041A0008BC184F10101010E0101876F01014E0EE7
:1041B0000101866F100E0101886F000E0101896FE9
:1041C00007ECADF0120001010C51060AD8A417D07B
:1041D00001018CC185F101018BC184F10101010E46
:1041E0000101876F01015E0E0101866F100E010152
:1041F000886F000E0101896F07ECADF0120001011C
:104200000C51070AD8A415D001018CC185F1010118
:104210008BC184F1000E0101876F270E0101866FAB
:10422000100E0101886F000E0101896F07ECADF0DF
:10423000120001010C51080AD8A415D001018CC14B
:1042400085F101018BC184F1000E0101876F370EEA
:104250000101866F100E0101886F000E0101896F48
:1042600007ECADF0120001010C51090AD8A417D0D7
:1042700001018CC185F101018BC184F10001000EA7
:104280000101876F0001E90E0101866F100E010127
:10429000886F000E0101896F07ECADF0120001017B
:1042A0000C510A0AD8A4120001018CC185F1010148
:1042B0008BC184F10001000E0101876F0001D90E4E
:1042C0000101866F100E0101886F000E0101896FD8
:1042D00007ECADF012004F0EAB16AC9ACF0E9D1648
:1042E000000E0101956F000E0101946F000EB86E73
:1042F0007F0E0101951301019569FE0E01019513D1
:1043000001019569010195698DC10AF189C1C9F160
:104310008AC1CAF18BC1CBF18CC1CCF101018D51A5
:10432000D8B403D00101956903D0000E0101956F47
:1043300001019487000E01017C6F000E01017D6F69
:10434000710E01017E6F020E01017F6F89C180F144
:104350008AC181F18BC182F18CC183F1D2ECABF0C7
:104360007CC18EF17DC18FF17EC190F17FC191F151
:10437000FF0E01018E250101966FFF0E01018F21B5
:104380000101976FFF0E010190210101986FFF0E4F
:10439000010191210101996F010196C18EF1010185
:1043A00097C18FF1010198C190F1010199C191F17B
:1043B000030E06D00101D890913390338F338E33A2
:1043C000E82EF8D7FF0E01018E250101966FFF0E32
:1043D00001018F210101976FFF0E01019021010161
:1043E000986FFF0E010191210101996F96C192F121
:1043F00097C193F192C17CF193C17DF10101955177
:1044000048ECB3F0010194514AECB8F034ECB7F049
:1044100001018E6F01018E510101966F0101976BB1
:104420000101986B0101996B34ECB7F001018E6FBB
:1044300001018E510101966F0101976B0101986B8B
:104440000101996B34ECB7F001018E6F01018E51BF
:104450000101966F0101976B0101986B0101996B46
:1044600034ECB7F001018E6F01018E510101966F9E
:104470000101976B0101986B0101996B34ECB7F066
:1044800001018E6F01018E510101966F0101976B41
:104490000101986B0101996B9F9A9D8A9E9A120067
:1044A000000E0201656F000E0201666FC80E020168
:1044B000646F0201020E01017D6F0201000E010115
:1044C0007C6F000E01017F6F640E01017E6F7CEC3A
:1044D000B5F02FD002016551010DF35001018B257C
:1044E000D96EF45001018C21DA6E2F0EDF640ED0EC
:1044F00002016551010DF35001018B25D96EF45075
:1045000001018C21DA6E390EDF640ED00201655193
:10451000010DF35001018B25D96EF45001018C215E
:10452000DA6E2D0EDF6203D065C264F210D0020194
:10453000652B02016551010DF35001018B25D96EE8
:10454000F45001018C21DA6EDF50D8A4C3D70201E8
:104550006451C80AD8B41200000E0201666F1AD066
:1045600002016651010DF35001018B25D96EF45003
:1045700001018C21DA6E02016651010D0201000E6B
:10458000F324E16E0201020EF420E26EDFCFE7FFBA
:104590000201662B020164510201665DD8A0E0D7DA
:1045A00002016451010D0201000EF324D96E0201D3
:1045B000020EF420DA6E3D0EDF6E64C266F231D078
:1045C00002016651010DF35001018B25D96EF450A3
:1045D00001018C21DA6E0201665101018D6F8E6B33
:1045E000010E01018D27000E8E230201000E010134
:1045F0008D25E16E0201020E01018E21E26EDFCFF8
:10460000E7FF02016651010DF35001018B25D96EC0
:10461000F45001018C21DA6EDF50D8B406D00201CB
:10462000662B620E02016665CBD70201020E010104
:10463000856F0201000E0101846F01018CC187F1B9
:1046400001018BC186F1640E0101886F000E01012A
:10465000896F07ECADF01200000E0101886F000EAB
:1046600001018B6F000E01018A6F000E0101896F3D
:1046700003D00101824B832B82C1D9FF83C1DAFFB2
:10468000DF503D0AD8B407D082C1D9FF83C1DAFF19
:10469000DF50D8A4EED782C1D9FF83C1DAFFDF5043
:1046A000D8A407D07D0E0101836F000E0101826F37
:1046B00012000101824B832B200E82C1D9FF83C1DE
:1046C000DAFFDF6201D07ED03D0E82C1D9FF83C107
:1046D000DAFFDF6207D07D0E0101836F020E010158
:1046E000826F12002D0E82C1D9FF83C1DAFFDF6213
