:040000005EEF02F0BD
:10000800FACF6EF1FBCF6FF1E9CF70F1D8EFBAF00C
:10001800D8CF17F0E8CF18F0E0CF19F0FACF1AF0E0
:10002800FBCF1BF0E9CF1CF0EACF1DF0E1CF1EF0AB
:10003800E2CF1FF0D9CF20F0DACF21F0F3CF22F0B2
:10004800F4CF23F0F6CF24F0F7CF25F0F8CF26F041
:10005800F5CF27F0F29C9EAA4BD19D9AAB98000E43
:100068000001D56F000ED46F000E0001D76F40EC71
:10007800BEF00001D86F3E0E0001DD19D8A40BD0E8
:100088003E0E0001D819D8A406D00001DE51D8A42C
:1000980002D000F029D10A0E0001D819D8B4CCD06A
:1000A8000D0E0001D819D8B4C7D07F0E0001D81999
:1000B800D8B405D0080E0001D819D8A482D0000100
:1000C800DE51D8B411D1FC0E0C6EFF0E0D6E8AEC09
:1000D800B5F0000E0001D56F000ED46F0AD04E0E99
:1000E8000C6EF90E0D6E8AECB5F00001D44BD52BD1
:1000F80000D00001DE51136E146A0001D451135C64
:100108001450800A156E0001D551800A1558D8B0D0
:10011800E6D7FC0E0C6EFF0E0D6E8AECB5F0D10E14
:100128000C6EF40E0D6E8AECB5F00001DE070001CE
:10013800DE51010D600EF324D96E000EF420DA6E44
:10014800000EDF6E600E0C6E000E0D6E8AECB5F0C0
:100158000F0E0001DE61C8D0000E0001D76F0E0E31
:100168000001D76501D017D00001D751010D600EED
:10017800F324D96E000EF420DA6E0001D751010D78
:10018800C40EF324E16E000EF420E26EDFCFE7FF29
:100198000001D72BE4D766ECBFF0000E0F6E000EFF
:1001A800A0ECBEF03E0EB5ECBFF0010E0F6E000ED7
:1001B800A0ECBEF0C40E0F6E000E106E94ECB9F0F9
:1001C80093D00001D85144ECBFF00009D8B48CD0CA
:1001D800000E086E000E096E0001D851E3ECB8F06D
:1001E8000F0E0001DE6105D00001D851B5ECBFF05B
:1001F80000D00001DE51010D600EF324D96E000E0F
:10020800F420DA6ED8C0DFFF0001DE2B620E000199
:10021800DE656AD0800E0C6EF20E0D6E8AECB5F0BB
:10022800600E016E000E026E000E046E640E036E08
:100238007FECBDF055D058D00A0E0001D819D8B4BB
:1002480005D00D0E0001D819D8A40FD00001DE5139
:10025800D8A40BD0600E016E000E026E000E046E64
:10026800640E036E7FECBDF03FD0000160510001C9
:10027800D8A413D000016151D8B40FD0600E096E14
:10028800000E0A6E640E0B6E030E0C6E640E0D6E7D
:10029800010E0E6E46ECB4F00FD0600E096E000E23
:1002A8000A6E640E0B6E030E0C6E640E0D6E000E5D
:1002B8000E6E46ECB4F000D066ECBFF0000E0F6E88
:1002C800000EA0ECBEF03E0EB5ECBFF0600E016E65
:1002D800000E026E000E046E640E036E7FECBDF01D
:1002E800000E0001DE6F00D09E9A9D8AAB88BED0BA
:1002F800F2A0A4D0F29600F000F0AEECBFF000013E
:10030800D66F000E0001DA6F000ED96F0001DB51C5
:100318000001D619D8B48DD0D6500001D927000EC7
:10032800DA23D7500001DA27480E0001DC6155D0E6
:10033800F294F28ACEECBFF00001DC51D8B41AD0A6
:10034800FE0E136EFF0E146E0001DC51156E166A58
:10035800D890153616361350152614501622640EEA
:100368001524D96E040E1620DA6ED9C0DEFFDAC065
:10037800DDFF00D0800E0001D95D700E0001DA5952
:10038800D8A028D00001D9057D0E0001DA59D8B0CF
:1003980021D0020E0001F36F0001EF510001F011AE
:1003A8000001F1110001F211D8B40FD0F30E0B6E59
:1003B800000E0C6EEFC00DF0F0C00EF0F1C00FF0A3
:1003C800F2C010F0E5ECB2F000D0D9C064F4DAC0A5
:1003D80065F400D00001DC2B00D0480E0001DC19C8
:1003E800D8A427D0F294F29A640E016E040E026E1D
:1003F800EF0E036E000E046E010E056E00ECA1F008
:100408000001F36F0001F351D8B40FD0F30E0B6E57
:10041800000E0C6EEFC00DF0F0C00EF0F1C00FF042
:10042800F2C010F0E5ECB2F000D0000E0001DC6F75
:1004380000D0D6C0DBF0F290F28618D0F2A40FD02C
:10044800640E016E040E026EDCC003F0046ADFEC79
:10045800BCF0000E0001DC6FF294F29A07D0F2A211
:1004680003D0F298F29202D000F000D0F28C27C0AC
:10047800F5FF26C0F8FF25C0F7FF24C0F6FF23C00C
:10048800F4FF22C0F3FF21C0DAFF20C0D9FF1FC04C
:10049800E2FF1EC0E1FF1DC0EAFF1CC0E9FF1BC050
:1004A800FBFF1AC0FAFF19C0E0FF18C0E8FF17C029
:0804B800D8FF10001FEFB6F0A1
:10ECEC0000010000000800000040000000000200CD
:10ECFC000000100000008000000000040000002054
:10ED0C0000000000010000000800000040000000AE
:10ED1C0000010000000A00000064000000E803008D
:10ED2C000010270000A086010040420F008096983A
:10ED3C000000E1F50500CA9A3B010000001000003C
:10ED4C000000010000001000000000010000001095
:10ED5C000000000001000000100000000000000096
:10ED6C000000000002000000000000000000000095
:10ED7C000100000000000000000001000000000085
:10ED8C000000000000000200000000000000000075
:10ED9C000000000200000000000000000000000164
:10EDAC000000000000000000000200000000000055
:10EDBC000000000000010000000001010001000043
:10EDCC000000000001000000010001010001000032
:10EDDC000000000100000000010001010001000121
:10EDEC000000000000000000000001010001000014
:10EDFC000100000000000000000001010001000003
:10EE0C0000000100000000000000010100010000F2
:10EE1C0000010000000000000000010100010000E2
:10EE2C0000000000010001000000010100010000D1
:10EE3C0000000001000001000000010100010000C1
:10EE4C0000000000010000000000010100010000B2
:10EE5C000000000100000000000202020202020099
:10EE6C00000100000000020202020200000100008A
:10EE7C0000020002020202000001000000546F2098
:10EE8C007265616420616E642061646320636861F3
:10EE9C006E6E656C2C2074797065207468652063C7
:10EEAC006F6D6D616E640D0A2041444320666F6C7A
:10EEBC006C6F77656420627920274368616E6E659C
:10EECC006C27200D0A00546F20636F6D6D616E64AA
:10EEDC0020746865205254432C207479706520741A
:10EEEC00686520616374696F6E0D0A20666F6C6CC7
:10EEFC006F77656420627920746865207061726137
:10EF0C006D6574657273200D0A0A00546F20636F6F
:10EF1C006E74726F6C206120646576696365206520
:10EF2C006E7465722074686520646576696365200B
:10EF3C00666F6C6C6F77656420627920273D2720A3
:10EF4C00616E6420274F6E2F4F6666270D0A0054A2
:10EF5C006F207365742074652050574D2062726960
:10EF6C006768746E65737320656E746572202752C2
:10EF7C006564204C4544206272696768746E6573E1
:10EF8C0073203D20647574796379636C65270D0A71
:10EF9C0000546F2073657420436F6E7472617374C8
:10EFAC002050574D206272696768746E65737320C8
:10EFBC00656E7465722027436F6E74726173742072
:10EFCC003D20647574796379636C65270D0A00665E
:10EFDC0075727468657220737562206D656E7573D9
:10EFEC0020617661696C61626C6520627920656E66
:10EFFC00746572696E672074686520616374696FEB
:10F00C006E20616E64206120273F27005379737452
:10F01C00656D20426175642077696C6C2062652097
:10F02C0073657420746F20256C7520776974682063
:10F03C004576656E20706172697479206269740D11
:10F04C000A004572726F723A20436F756C64206EC1
:10F05C006F74206275726E2064656661756C7420C5
:10F06C0042617564207261746520696E746F204D05
:10F07C00656D6F72790D0A0053797374656D20425A
:10F08C006175642077696C6C2062652073657420EF
:10F09C00746F20256C752077697468204F64642028
:10F0AC00706172697479206269740D0A0053797306
:10F0BC0074656D20426175642077696C6C206265A3
:10F0CC002073657420746F20256C752077697468C3
:10F0DC00206E6F20706172697479206269740D0AF8
:10F0EC0000466F72204465766963652068656C70B4
:10F0FC0020656E7465722064657669636520666F41
:10F10C006C6C6F776564206279206120273F272023
:10F11C000D0A007265646C656420776861743F3F0A
:10F12C003F20446F20796F75206D65616E205265AC
:10F13C0064204C6564204272696768746E657373F1
:10F14C003F3F3F00496E76616C696420436F6E747B
:10F15C00726173742044757479206379636C653AB9
:10F16C002047726561746572207468616E2031305D
:10F17C00300D0A0053797374656D204261756420FB
:10F18C0077696C6C2062652073657420746F202520
:10F19C006C752077697468205370616365206269AF
:10F1AC00740D0A0053797374656D20426175642087
:10F1BC0077696C6C2062652073657420746F2025F0
:10F1CC006C752077697468204D61726B206269746C
:10F1DC000D0A00496E76616C696420436F6E74721F
:10F1EC006173742044757479204379636C653A209B
:10F1FC004C657373207468616E20300D0A0077685B
:10F20C006572652074686520647574796379636CC4
:10F21C00652069732061206E756D626572203020E7
:10F22C002D203130300D0A00496E76616C696420F6
:10F23C00447574796379636C653A204772656174BF
:10F24C006572207468616E203130300D0A0043689D
:10F25C00726973746D6173205472656520436F6CB1
:10F26C006F726564204C696768747320546F6767AC
:10F27C006C6564000D0A427566666572206F766572
:10F28C0072666C6F77212044656C6574696E6720BB
:10F29C00427566666572200D0A00692E652E204344
:10F2AC0068726973746D617320436F6C6F726564FF
:10F2BC00206C6967687473203D204F6E0D0A004501
:10F2CC006E7465722054696D65204D4D2F44442F2A
:10F2DC0059592048483A4D4D3A535320414D206FCF
:10F2EC00720D0A00203320566F6C74205254432048
:10F2FC004261747465727920566F6C746167652015
:10F30C003D2025642E256400253032642F253032B3
:10F31C00642F32302530326420253032643A253067
:10F32C0032643A2530326420414D00253032642F4E
:10F33C00253032642F32302530326420253032644F
:10F34C003A253032643A2530326420504D00456EF7
:10F35C007465722054696D65204D4D2F44442F59AE
:10F36C00592048483A4D4D3A535320504D0D0A0000
:10F37C00496E76616C696420447574796379636C49
:10F38C00653A204C657373207468616E20300D0AE9
:10F39C0000466F726D6174206973204D4D2F44448B
:10F3AC002F59592048483A4D4D3A535320414D0D51
:10F3BC000A004572726F723A206F6E6C7920757309
:10F3CC0065206F6E6520657175616C207369676E61
:10F3DC000D0A00253032642F253032642F3230254F
:10F3EC0030326420253032643A253032643A25308C
:10F3FC00326400436F6E7472617374204475747957
:10F40C00204379636C652073657420746F202564C8
:10F41C000D0A004368726973746D617320547265D0
:10F42C0065205768697465204C6967687473204F50
:10F43C006666004368726973746D617320547265FB
:10F44C0065205768697465204C6967687473204F30
:10F45C006E004572726F723A204E6F206E65676156
:10F46C0074697665206368616E6E656C730D0A0055
:10F47C005265616C2054696D6520436C6F636B2021
:10F48C0048656C70204D656E750D0A0A0043686105
:10F49C006E6E656C202564206973206E6F7420631A
:10F4AC006F6E66696775726564000D0A456E7465EA
:10F4BC007220273F2720666F722048656C70204DA4
:10F4CC00656E750D0A3E004368726973746D6173E5
:10F4DC0020747265652048656C70204D656E750DE5
:10F4EC000A0A004572726F723A20696E207061725E
:10F4FC0073696E6720636F6D6D616E640D0A0074C5
:10F50C0068657265206973206E6F20717565737400
:10F51C00696F6E206D61726B0D0A00692E652E206D
:10F52C004A6F657320726F6F6D206C696768742009
:10F53C003D204F6E0D0A000D0A54696D65204E6F0B
:10F54C007420536574205375636365737366756CAF
:10F55C006C79004572726F723A204E6F206E756D29
:10F56C0062657220656E74657265640D0A00692EA1
:10F57C00652E204C6976696E67726F6F6D206661BF
:10F58C006E203D204F6E0D0A0041444320436861BC
:10F59C006E6E656C204F7574206F6620426F756EB1
:10F5AC00647300436F6E74726173742050574D20F6
:10F5BC0048656C70204D656E750D0A0A000D0A5475
:10F5CC00696D652053657420537563636573736649
:10F5DC00756C6C790D0A00526564204C45442050C2
:10F5EC00574D2048656C70204D656E750D0A0A00EC
:10F5FC000D0A496E76616C69642054696D6520450D
:10F60C006E74657265640D0A004C6976696E67727A
:10F61C006F6F6D204C6967687420546F67676C65F9
:10F62C0064004C6976696E67726F6F6D2048656C0B
:10F63C0070204D656E750D0A0A004552524F523AB4
:10F64C002043616E27742052656164205254430D2F
:10F65C000A00692E652E20426564726F6F6D2066FC
:10F66C00616E203D204F6E0D0A004A6F657320526B
:10F67C006F6F6D2048656C70204D656E750D0A0AB4
:10F68C0000253032642F2530326420253032643A24
:10F69C002530326420414D00253032642F25303224
:10F6AC006420253032643A2530326420504D006994
:10F6BC002E652E20204C6976696E67726F6F6D3FD8
:10F6CC000D0A0D0A00447574796379636C652073B7
:10F6DC00657420746F2025640D0A00426564726F96
:10F6EC006F6D204C6967687420546F67676C656434
:10F6FC000053797374656D2050726F6772616D2061
:10F70C004661696C0D0A00426564726F6F6D20482A
:10F71C00656C70204D656E750D0A0A00692E652E9C
:10F72C0020525443205365742054696D653F0D0A73
:10F73C000042617564204F7574206F662072616E93
:10F74C0067650D0A00414443206368616E6E656C09
:10F75C00202564203D202564004A6F657320726F5C
:10F76C006F6D206C69676874204F6666006C6976F3
:10F77C00696E67726F6F6D6C696768743D6F6666F2
:10F78C00004A6F65277320726F6F6D206C69676814
:10F79C0074204F6E004C6976696E67726F6F6D20C6
:10F7AC005461736B3F3F3F004A6F65277320726F44
:10F7BC006F6D20776861743F3F3F004C6976696ECE
:10F7CC0067726F6F6D2046616E204F6666004265F2
:10F7DC0064726F6F6D205368616B6572204F666643
:10F7EC00006C6976696E67726F6F6D6C69676874AF
:10F7FC003D6F6E0053797374656D204261756420A2
:10F80C00697320256C75004669726D77617265208D
:10F81C0056657273696F6E3A2000636F6C6F726518
:10F82C0064206C69676874730D0A0A00496E76610E
:10F83C006C696420436F6D6D616E640D0A004368E2
:10F84C00726973746D617320576861743F3F3F0038
:10F85C006C6976696E67726F6F6D66616E3D6F660F
:10F86C006600626564726F6F6D7368616B65723D83
:10F87C006F6666006A6F6573726F6F6D6C6967682F
:10F88C00743D6F6666004C6976696E67726F6F6D5A
:10F89C002046616E204F6E00426564726F6F6D2062
:10F8AC005368616B6572204F6E007769746865767A
:10F8BC00656E7061726974796269740030313233CB
:10F8CC0034353637383941424344454600303132BD
:10F8DC0033343536373839616263646566004144C8
:10F8EC00432048656C70204D656E750D0A0A004CFE
:10F8FC0045442048656C70204D656E750D0A0A00F4
:10F90C0043686E6C2073657420746F2025640D0A37
:10F91C00004368726973746D617320547265650D70
:10F92C000A00692E652E204C454431203D204F6E37
:10F93C000D0A005254432054696D652069733A20B6
:10F94C0020202000626564726F6F6D6C696768744B
:10F95C003D6F6666005254432069736E7420776F56
:10F96C00726B696E67006C6976696E67726F6F6D2A
:10F97C0066616E3D6F6E00626564726F6F6D736869
:10F98C00616B65723D6F6E006A6F6573726F6F6D40
:10F99C006C696768743D6F6E007265646C65646257
:10F9AC0072696768746E65737300776974686F64E5
:10F9BC006470617269747962697400526564204C78
:10F9CC00454420436F6E747261737400537461729A
:10F9DC0074696E672E2E2E2E2E2E2E2E0045525210
:10F9EC003A20434E5354203E203130300045525281
:10F9FC003A2044757479203E20313030004C564EFC
:10FA0C004720526D205461736B3F3F3F0042656449
:10FA1C00726F6F6D205461736B3F3F3F00426564A2
:10FA2C00726F6F6D2048656C703F3F3F005265648C
:10FA3C00204C454420576861743F3F3F004A6F6536
:10FA4C0020726F6F6D20776861743F3F004368725E
:10FA5C006973746D617320547265653F00584D4134
:10FA6C005320436F6C6F722054474C44004C564EDD
:10FA7C004720526D204C742054474C44004265641E
:10FA8C00726F6F6D204C742054474C440052544399
:10FA9C0020427479203D2025642E256400496E7621
:10FAAC00616C696420436F6D6D616E6400455252E8
:10FABC003A2043616E742070617273650042656414
:10FACC00726F6F6D20534B52204F66660042656417
:10FADC00726F6F6D2046616E204F6666004A6F65CF
:10FAEC0020726F6F6D206C74204F66660045525209
:10FAFC003A20557365202B2043686E6C0062656458
:10FB0C00726F6F6D6C696768743D6F6E00626175C2
:10FB1C006477696C6C6265736574746F004C564ED7
:10FB2C004720526D204C742068656C7000776974A6
:10FB3C00686E6F7061726974796269740053746174
:10FB4C007274696E672E2E2E2E2E2E2E0043757219
:10FB5C0072656E742054696D650D0A00776869745E
:10FB6C0065206C69676874730D0A00434E5354200A
:10FB7C0073657420746F2025640044757479207348
:10FB8C00657420746F20256400584D4153205768CC
:10FB9C00697465204F6666004C564E4720526D20A6
:10FBAC004C74204F666600426564726F6F6D204C1A
:10FBBC0074204F666600626564726F6F6D66616E6D
:10FBCC003D6F666600426564726F6F6D20534B52D9
:10FBDC00204F6E00426564726F6F6D2046616E201F
:10FBEC004F6E004A6F6520726F6F6D206C74204FE2
:10FBFC006E004552523A204E6F206E756D626572E2
:10FC0C00004552523A206E6F206E756D626572001F
:10FC1C005374617274696E672E2E2E2E2E2E004533
:10FC2C0052523A20434E5354203C203000455252FD
:10FC3C003A2044757479203C203000446576696321
:10FC4C0065204D656E75733A00656E746572626100
:10FC5C0075647261746500584D415320576869741E
:10FC6C0065204F6E004C564E4720526D204C742030
:10FC7C004F6E00426564726F6F6D204C74204F6E36
:10FC8C0000626564726F6F6D66616E3D6F6E004AE7
:10FC9C006F6520726F6F6D204D656E75004C564E02
:10FCAC0047726F6F6D204D656E7500537461727481
:10FCBC00696E672E2E2E2E2E004572723A204261EE
:10FCCC007564204D656D00692E652E2041444320DE
:10FCDC00300D0A004C6976696E67726F6F6D0D0A94
:10FCEC000052544320576861743F3F3F0A0045520D
:10FCFC00523A205573652031203D00584D41532018
:10FD0C00576861743F3F3F0043686E6C2025642048
:10FD1C003D202564004C45443020546F67676C656A
:10FD2C0064004C45443120546F67676C6564007700
:10FD3C006974687370616365626974004C43442034
:10FD4C00436F6E747261737400426564726F6F6D91
:10FD5C00204D656E75005374617274696E672E2E3A
:10FD6C002E2E00446576696365733A0D0A0A0043CA
:10FD7C0068616E6E656C733A0D0A004A6F6573208C
:10FD8C00726F6F6D0D0A004C6976696E67726F6FDA
:10FD9C006D3F00776974686D61726B6269740053B2
:10FDAC0074617274696E672E2E2E004465766963D9
:10FDBC0065733A0D0A00416374696F6E733A0D0AEC
:10FDCC0000436F6E74726173740D0A004A6F657331
:10FDDC0020526F6F6D3F006368616E67656261757D
:10FDEC0064006C6976696E67726F6F6D0053746135
:10FDFC007274696E672E2E007368616B65720D0AE2
:10FE0C000A00426564726F6F6D0D0A004261747472
:10FE1C006572790D0A00526564204C45443D2300FF
:10FE2C00436F6E74726173742300436F6D6D616EFA
:10FE3C0064733A00436F6E74726173743F00424195
:10FE4C005544203D202564006368726973746D61AC
:10FE5C007300584D4153204D656E750048656C70AC
:10FE6C00204D656E7500456E74657220273F270026
:10FE7C005374617274696E672E004C696768740DF7
:10FE8C000A0A00446576696365733A0042656472D8
:10FE9C006F6F6D3F004C454430204F6666004C45FB
:10FEAC004431204F6666006C6564303D6F666600B9
:10FEBC006C6564313D6F666600636F6E747261735E
:10FECC007400414443204D656E7500525443204DDF
:10FEDC00656E75004C4544204D656E75005374611C
:10FEEC007274696E67004C4544310D0A0A00426118
:10FEFC0075640D0A0A006C696768740D0A007365F5
:10FF0C00746261756400626564726F6F6D004C455C
:10FF1C004430204F6E004C454431204F6E006C65D0
:10FF2C0064303D6F6E006C6564313D6F6E007265C0
:10FF3C00736574746F0042617474657279006261E8
:10FF4C0074746572790066616E0D0A0A00536574EB
:10FF5C000D0A0A004C4544300D0A00526561640DCF
:10FF6C000A007265646C6564005368616B657200AD
:10FF7C00626175646973004144430D0A0066616EE9
:10FF8C000D0A00426175643F00626175643F007741
:10FF9C006869746500636F6C6F72004C6967687494
:10FFAC00006C6967687400300D0A0A004C454430D7
:10FFBC00006C656430004C454431006C6564310064
:10FFCC004144433F005254433F0052656164007208
:10FFDC006561640061646300727463006A6F65003C
:10FFEC0046616E0066616E00536574007365740043
:04FFFC000D000000F4
:020000040001F9
:10000000000E0501DB6F140EDA6F000E0501C96FDB
:10001000000EC86F000E0501CB6F000ECA6F000EF8
:100020000501CD6F000ECC6F000E0501D36F000EE1
:10003000D26F000E0501DD6F000EDC6F000E0501B2
:10004000D96F000ED86F000E0501CE6F000ECF6F76
:10005000000ED06F000ED16F000E0501D46F000EA0
:10006000D56F000ED66F000ED76F130E0101876F8C
:10007000EF0E0101886FEBECB4F0CAC17CF1CBC18B
:100080007DF166ECB6F0CAC18BF1CBC18CF13DECD1
:10009000B5F0CAC17CF1CBC17DF1D10E01017E6FFB
:1000A000F40E01017F6F74ECB7F00009D8B404D0EE
:1000B000000E12007CEF93F0CAC17CF1CBC17DF140
:1000C000710E01017E6FFF0E01017F6FD5ECB5F05F
:1000D0000009D8B441D1CAC17CF1CBC17DF1170E62
:1000E00001017E6FFA0E01017F6F34ECB7F0000959
:1000F000D8A4E0D0CAC17CF1CBC17DF1BD0E010115
:100100007E6FFF0E01017F6F74ECB7F00009D8B469
:1001100014D0020E8C1A210E0101876FFD0E010111
:10012000886FEBECB4F0210E01018E6FFD0E010122
:100130008F6FD8ECBDF07CEF93F0CAC17CF1CBC1DE
:100140007DF12A0E01017E6FFF0E01017F6F74ECBD
:10015000B7F00009D8B413D08C821A0E0101876F52
:10016000FF0E0101886FEBECB4F01A0E01018E6FE7
:10017000FF0E01018F6FD8ECBDF07CEF93F0CAC188
:100180007CF1CBC17DF1B30E01017E6FFE0E01014A
:100190007F6F74ECB7F00009D8B413D08C92A10E25
:1001A0000101876FFE0E0101886FEBECB4F0A10E28
:1001B00001018E6FFE0E01018F6FD8ECBDF07CEF58
:1001C00093F0CAC17CF1CBC17DF1C70E01017E6FF6
:1001D000FF0E01017F6F74ECB7F00009D8B414D0A2
:1001E000040E8C1A2E0E0101876FFD0E0101886F1F
:1001F000EBECB4F02E0E01018E6FFD0E01018F6F3E
:10020000D8ECBDF07CEF93F0CAC17CF1CBC17DF19D
:10021000320E01017E6FFF0E01017F6F74ECB7F0AB
:100220000009D8B413D08C84220E0101876FFF0E11
:100230000101886FEBECB4F0220E01018E6FFF0E0E
:1002400001018F6FD8ECBDF07CEF93F0CAC17CF157
:10025000CBC17DF1BC0E01017E6FFE0E01017F6FEF
:1002600074ECB7F00009D8B413D08C94AA0E010135
:10027000876FFE0E0101886FEBECB4F0AA0E01014E
:100280008E6FFE0E01018F6FD8ECBDF07CEF93F006
:100290003D0E0101876FFA0E0101886FEBECB4F09F
:1002A0003D0E01018E6FFA0E01018F6FD8ECBDF08B
:1002B0007CEF93F0FB0E0101876FF80E0101886F50
:1002C000EBECB4F0B70E0101876FFD0E0101886FF2
:1002D000EBECB4F0600E0101876FFF0E0101886F37
:1002E000EBECB4F0F20E0101876FFE0E0101886F96
:1002F000EBECB4F0170E0101876FEF0E0101886F70
:10030000EBECB4F02E0E0101876FF90E0101886F3E
:10031000EBECB4F0E00E01018B6FFE0E01018C6F6F
:1003200045ECA5F08F0E01018B6FFE0E01018C6F65
:1003300045ECA5F0B80E01018B6FFF0E01018C6F2B
:1003400045ECA5F0C20E01018B6FFF0E01018C6F11
:1003500045ECA5F07CEF93F0CAC17CF1CBC17DF1F7
:10036000EE0E01017E6FFD0E01017F6FD5ECB5F041
:100370000009D8B4CBD1CAC17CF1CBC17DF1170E35
:1003800001017E6FFA0E01017F6F34ECB7F00009B6
:10039000D8A462D1CAC17CF1CBC17DF1ED0E0101BF
:1003A0007E6FF70E01017F6F74ECB7F00009D8A4DF
:1003B0000FD0CAC17CF1CBC17DF1790E01017E6FF6
:1003C000F70E01017F6F74ECB7F00009D8B453D079
:1003D000F29E650E0101876FEE0E0101886F010E1E
:1003E00020ECB0F0650E0101876FEE0E0101886F01
:1003F000010E20ECB0F0650E0101876FEE0E0101D9
:10040000886F010E20ECB0F0650E0101876FEE0ED3
:100410000101886F010E20ECB0F0650E0101876FBD
:10042000EE0E0101886F010E20ECB0F0650E0101A7
:10043000876FEE0E0101886F010E20ECB0F0650EA3
:100440000101876FEE0E0101886F010E20ECB0F004
:10045000F28E150E0101876FF60E0101886FEBEC2D
:10046000B4F0790E01018E6FFA0E01018F6FD8EC96
:10047000BDF07CEF93F0CAC17CF1CBC17DF1720E6F
:1004800001017E6FF90E01017F6F74ECB7F0000976
:10049000D8B45CD0F29E550E0101876FEE0E0101BB
:1004A000886F010EF2ECB6F0550E0101876FEE0E6B
:1004B0000101886F010EF2ECB6F0550E0101876F55
:1004C000EE0E0101886F010EF2ECB6F0550E01013F
:1004D000876FEE0E0101886F010EF2ECB6F0550E3B
:1004E0000101876FEE0E0101886F010EF2ECB6F08C
:1004F000550E0101876FEE0E0101886F010EF2ECBF
:10050000B6F0550E0101876FEE0E0101886F010EE6
:10051000F2ECB6F0550E0101876FEE0E0101886F07
:10052000010EF2ECB6F0F28E920E0101876FF80E1A
:100530000101886FEBECB4F0710E01018E6FFC0EBF
:1005400001018F6FD8ECBDF07CEF93F0CAC17CF154
:10055000CBC17DF15C0E01017E6FF80E01017F6F52
:1005600074ECB7F00009D8B465D0F29E450E0101D5
:10057000876FEE0E0101886F010EF2ECB6F0450EAA
:100580000101876FEE0E0101886F010EF2ECB6F0EB
:10059000450E0101876FEE0E0101886F010EF2EC2E
:1005A000B6F0450E0101876FEE0E0101886F010E56
:1005B000F2ECB6F0450E0101876FEE0E0101886F77
:1005C000010EF2ECB6F0450E0101876FEE0E01014F
:1005D000886F010EF2ECB6F0450E0101876FEE0E4A
:1005E0000101886F010EF2ECB6F0450E0101876F34
:1005F000EE0E0101886F010EF2ECB6F0450E01011E
:10060000876FEE0E0101886F010EF2ECB6F0F28EEC
:10061000C70E0101876FF70E0101886FEBECB4F094
:10062000A40E01018E6FFB0E01018F6FD8ECBDF09F
:100630007CEF93F0A10E0101876FF70E0101886F27
:10064000EBECB4F0090E01018E6FFA0E01018F6F11
:10065000D8ECBDF07CEF93F02E0E0101876FF60E03
:100660000101886FEBECB4F0B70E0101876FFD0E4E
:100670000101886FEBECB4F0020E0101876FFF0EF1
:100680000101886FEBECB4F0520E0101876FFF0E91
:100690000101886FEBECB4F0170E0101876FEF0ECC
:1006A0000101886FEBECB4F07A0E0101876FF50E53
:1006B0000101886FEBECB4F0290E01018E6FFB0E87
:1006C00001018F6FD8ECBDF0A90E01018B6FFC0EFC
:1006D00001018C6F45ECA5F08F0E01018B6FFE0EB2
:1006E00001018C6F45ECA5F0A70E01018B6FFF0E89
:1006F00001018C6F45ECA5F0EC0E01018B6FFF0E34
:1007000001018C6F45ECA5F07CEF93F0CAC17CF140
:10071000CBC17DF1120E01017E6FFF0E01017F6FD3
:10072000D5ECB5F00009D8B4D0D2CAC17CF1CBC1A8
:100730007DF1170E01017E6FFA0E01017F6F34EC1F
:10074000B7F00009D8A457D2CAC17CF1CBC17DF162
:10075000AD0E01017E6FFF0E01017F6F34ECB7F02B
:100760000009D8A40FD0CAC17CF1CBC17DF1F00E35
:1007700001017E6FFF0E01017F6F34ECB7F00009BD
:10078000D8B427D2CAC17CF1CBC17DF1090E0101D9
:100790007E6FFB0E01017F6F74ECB7F00009D8A4E7
:1007A0000FD0CAC17CF1CBC17DF1500E01017E6F2B
:1007B000F90E01017F6F74ECB7F00009D8B453D083
:1007C000F29E710E0101876FEE0E0101886F010E1E
:1007D00020ECB0F0710E0101876FEE0E0101886F01
:1007E000010E20ECB0F0710E0101876FEE0E0101D9
:1007F000886F010E20ECB0F0710E0101876FEE0ED4
:100800000101886F010E20ECB0F0710E0101876FBD
:10081000EE0E0101886F010E20ECB0F0710E0101A7
:10082000876FEE0E0101886F010E20ECB0F0710EA3
:100830000101876FEE0E0101886F010E20ECB0F010
:10084000F28EE70E0101876FF60E0101886FEBEC67
:10085000B4F0890E01018E6FFA0E01018F6FD8EC92
:10086000BDF07CEF93F0CAC17CF1CBC17DF18D0E60
:1008700001017E6FFC0E01017F6F74ECB7F000097F
:10088000D8B45CD0F29EF50E0101876FED0E010128
:10089000886F010EF2ECB6F0F50E0101876FED0ED8
:1008A0000101886F010EF2ECB6F0F50E0101876FC1
:1008B000ED0E0101886F010EF2ECB6F0F50E0101AC
:1008C000876FED0E0101886F010EF2ECB6F0F50EA8
:1008D0000101876FED0E0101886F010EF2ECB6F099
:1008E000F50E0101876FED0E0101886F010EF2EC2C
:1008F000B6F0F50E0101876FED0E0101886F010E54
:10090000F2ECB6F0F50E0101876FED0E0101886F74
:10091000010EF2ECB6F0F28EE00E0101876FFB0ED5
:100920000101886FEBECB4F07F0E01018E6FFC0EBD
:1009300001018F6FD8ECBDF07CEF93F0CAC17CF160
:10094000CBC17DF1C20E01017E6FFB0E01017F6FF5
:1009500074ECB7F00009D8B465D0F29EE50E010141
:10096000876FED0E0101886F010EF2ECB6F0E50E17
:100970000101876FED0E0101886F010EF2ECB6F0F8
:10098000E50E0101876FED0E0101886F010EF2EC9B
:10099000B6F0E50E0101876FED0E0101886F010EC3
:1009A000F2ECB6F0E50E0101876FED0E0101886FE4
:1009B000010EF2ECB6F0E50E0101876FED0E0101BC
:1009C000886F010EF2ECB6F0E50E0101876FED0EB7
:1009D0000101886F010EF2ECB6F0E50E0101876FA0
:1009E000ED0E0101886F010EF2ECB6F0E50E01018B
:1009F000876FED0E0101886F010EF2ECB6F0F28EFA
:100A0000D90E0101876FFA0E0101886FEBECB4F08B
:100A1000B30E01018E6FFB0E01018F6FD8ECBDF09C
:100A20007CEF93F0CAC17CF1CBC17DF1830E010153
:100A30007E6FF90E01017F6F74ECB7F00009D8B436
:100A40005CD0F29E150E0101876FEE0E0101886FDA
:100A5000010EF2ECB6F0150E0101876FEE0E0101EA
:100A6000886F010EF2ECB6F0150E0101876FEE0EE5
:100A70000101886F010EF2ECB6F0150E0101876FCF
:100A8000EE0E0101886F010EF2ECB6F0150E0101B9
:100A9000876FEE0E0101886F010EF2ECB6F0150EB5
:100AA0000101876FEE0E0101886F010EF2ECB6F0C6
:100AB000150E0101876FEE0E0101886F010EF2EC39
:100AC000B6F0150E0101876FEE0E0101886F010E61
:100AD000F2ECB6F0F28EA40E0101876FF80E010160
:100AE000886FEBECB4F0D10E01018E6FFB0E0101AB
:100AF0008F6FD8ECBDF07CEF93F0CAC17CF1CBC115
:100B00007DF16E0E01017E6FF80E01017F6F74ECB6
:100B1000B7F00009D8B47CEF93F0F29E050E010106
:100B2000876FEE0E0101886F010EF2ECB6F0050E34
:100B30000101876FEE0E0101886F010EF2ECB6F035
:100B4000050E0101876FEE0E0101886F010EF2ECB8
:100B5000B6F0050E0101876FEE0E0101886F010EE0
:100B6000F2ECB6F0050E0101876FEE0E0101886F01
:100B7000010EF2ECB6F0050E0101876FEE0E0101D9
:100B8000886F010EF2ECB6F0050E0101876FEE0ED4
:100B90000101886F010EF2ECB6F0050E0101876FBE
:100BA000EE0E0101886F010EF2ECB6F0F28EDA0E55
:100BB0000101876FF70E0101886FEBECB4F0C90EED
:100BC00001018E6FFA0E01018F6FD8ECBDF07CEF42
:100BD00093F0190E0101876FFA0E0101886FEBEC9B
:100BE000B4F0190E01018E6FFA0E01018F6FD8EC6F
:100BF000BDF07CEF93F0130E0101876FF70E01013A
:100C0000886FEBECB4F0B70E0101876FFD0E0101A8
:100C1000886FEBECB4F0020E0101876FFF0E01014B
:100C2000886FEBECB4F0890E0101876FFF0E0101B4
:100C3000886FEBECB4F0040E0101876FFE0E01012A
:100C4000886FEBECB4F0170E0101876FEF0E010116
:100C5000886FEBECB4F05E0E0101876FF60E0101B8
:100C6000886FEBECB4F0290E01018E6FFA0E0101D2
:100C70008F6FD8ECBDF0550E01018B6FFD0E010199
:100C80008C6F45ECA5F08F0E01018B6FFE0E0101FC
:100C90008C6F45ECA5F0A70E01018B6FFF0E0101D3
:100CA0008C6F45ECA5F0EC0E01018B6FFF0E01017E
:100CB0008C6F45ECA5F0750E01018B6FFF0E0101E5
:100CC0008C6F45ECA5F07CEF93F0CAC17CF1CBC1F1
:100CD0007DF1A10E01017E6FFF0E01017F6F34ECEB
:100CE000B7F00009D8A41ED0CAC17CF1CBC17DF1F8
:100CF0009B0E01017E6FFF0E01017F6F34ECB7F098
:100D00000009D8A40FD0CAC17CF1CBC17DF1540E2B
:100D100001017E6FFE0E01017F6F34ECB7F0000918
:100D2000D8B4C6D1CAC17CF1CBC17DF1170E010187
:100D30007E6FFA0E01017F6F34ECB7F00009D8A482
:100D400065D1CAC17CF1CBC17DF1A10E01017E6FDD
:100D5000FF0E01017F6F34ECB7F00009D8B462D008
:100D6000CAC17CF1CBC17DF1050E01017E6FFD0E84
:100D700001017F6F34ECB7F00009D8B453D0F29E74
:100D80007D0E0101876FEE0E0101886F010E20ECD0
:100D9000B0F07D0E0101876FEE0E0101886F010E2C
:100DA00020ECB0F07D0E0101876FEE0E0101886F1F
:100DB000010E20ECB0F07D0E0101876FEE0E0101F7
:100DC000886F010E20ECB0F07D0E0101876FEE0EF2
:100DD0000101886F010E20ECB0F07D0E0101876FDC
:100DE000EE0E0101886F010E20ECB0F07D0E0101C6
:100DF000876FEE0E0101886F010E20ECB0F0F28ECD
:100E00005A0E0101876FF20E0101886FEBECB4F00E
:100E1000690E01018E6FFA0E01018F6FD8ECBDF0E3
:100E20007CEF93F0CAC17CF1CBC17DF19B0E010137
:100E30007E6FFF0E01017F6F34ECB7F00009D8B46C
:100E400062D0CAC17CF1CBC17DF12E0E01017E6F53
:100E5000FF0E01017F6F34ECB7F00009D8B453D016
:100E6000F29ED50E0101876FED0E0101886F010E14
:100E7000F2ECB6F0D50E0101876FED0E0101886F1F
:100E8000010EF2ECB6F0D50E0101876FED0E0101F7
:100E9000886F010EF2ECB6F0D50E0101876FED0EF2
:100EA0000101886F010EF2ECB6F0D50E0101876FDB
:100EB000ED0E0101886F010EF2ECB6F0D50E0101C6
:100EC000876FED0E0101886F010EF2ECB6F0D50EC2
:100ED0000101876FED0E0101886F010EF2ECB6F093
:100EE000F28E3F0E0101876FF40E0101886FEBEC6B
:100EF000B4F0630E01018E6FFC0E01018F6FD8EC10
:100F0000BDF07CEF93F0CAC17CF1CBC17DF19B0EAB
:100F100001017E6FFF0E01017F6F34ECB7F0000915
:100F2000D8B462D0CAC17CF1CBC17DF1B70E01014A
:100F30007E6FFE0E01017F6F34ECB7F00009D8B46C
:100F400053D0F29EC50E0101876FED0E0101886F2F
:100F5000010EF2ECB6F0C50E0101876FED0E010136
:100F6000886F010EF2ECB6F0C50E0101876FED0E31
:100F70000101886F010EF2ECB6F0C50E0101876F1A
:100F8000ED0E0101886F010EF2ECB6F0C50E010105
:100F9000876FED0E0101886F010EF2ECB6F0C50E01
:100FA0000101876FED0E0101886F010EF2ECB6F0C2
:100FB000C50E0101876FED0E0101886F010EF2EC85
:100FC000B6F0F28E1F0E0101876FF40E0101886FDB
:100FD000EBECB4F0950E01018E6FFB0E01018F6FEB
:100FE000D8ECBDF07CEF93F04A0E0101876FF80E4C
:100FF0000101886FEBECB4F0070E01018E6FFD0E5E
:1010000001018F6FD8ECBDF07CEF93F0D30E01019E
:10101000876FF40E0101886FEBECB4F0B70E01019D
:10102000876FFD0E0101886FEBECB4F0680E0101D3
:10103000876FFB0E0101886FEBECB4F0260E010107
:10104000876FF80E0101886FEBECB4F0170E010109
:10105000876FEF0E0101886FEBECB4F0A60E010173
:10106000876FF20E0101886FEBECB4F05E0E0101A8
:101070008B6FFE0E01018C6F45ECA5F08F0E010108
:101080008B6FFE0E01018C6F45ECA5F09B0E0101EC
:101090008B6FFF0E01018C6F45ECA5F0A10E0101D5
:1010A0008B6FFF0E01018C6F45ECA5F07CEF93F088
:1010B000CAC17CF1CBC17DF1B20E01017E6FF40E8D
:1010C00001017F6FD5ECB5F00009D8B43CD1CAC19D
:1010D0007CF1CBC17DF1170E01017E6FFA0E01018B
:1010E0007F6F34ECB7F00009D8A4FBD0CAC17CF103
:1010F000CBC17DF16E0E01017E6FFF0E01017F6F8E
:10110000D5ECB5F00009D8A40FD0CAC17CF1CBC191
:101110007DF1A50E01017E6FF90E01017F6FD5EC07
:10112000B5F00009D8B4CBD0CAC17CF1CBC17DF1F8
:10113000050E01017E6FFD0E01017F6F34ECB7F0EB
:101140000009D8A409D00B0E0101876FF50E01012B
:10115000886FEBECB4F000D0CAC188F1CBC189F143
:1011600044ECA6F088C1DEF589C1DFF58AC1E0F55F
:101170008BC1E1F50501E1BF0DD00501E15105018C
:10118000E01110E1E80E0501DE5D030E0501DF59F7
:10119000D8B008D00501E1BF05D0DEC5DCF5DFC55C
:1011A000DDF500D0FD0E0501DE191DE10501DF2989
:1011B0001AE10501E02917E17F0E0501E119D8A424
:1011C00012D05F0E0101876FF50E0101886FEBEC05
:1011D000B4F00D0E01018E6FFC0E01018F6FD8EC83
:1011E000BDF07CEF93F00501DDBF1AD00501DD51A4
:1011F00005E1650E0501DC5DD8A012D0340E0101B9
:10120000876FF20E0101886FEBECB4F0F90E01016B
:101210008E6FF90E01018F6FD8ECBDF07CEF93F06B
:101220000501DDAF12D07C0E0101876FF30E0101C5
:10123000886FEBECB4F0390E01018E6FFC0E0101EA
:101240008F6FD8ECBDF07CEF93F00501DC519AEC88
:10125000B3F0000E0101926F050E0101936FD10EE4
:101260000101946FF60E0101956FDCC596F1DDC5A5
:1012700097F187EC93F0000E0101876F050E0101D5
:10128000886FEBECB4F0000E0101926F050E0101C6
:10129000936F860E0101946FFB0E0101956FDCC503
:1012A00096F1DDC597F187EC93F0000E01018E6F8A
:1012B000050E01018F6FD8ECBDF07CEF93F01F0E8F
:1012C0000101876FF10E0101886FEBECB4F0390E6C
:1012D00001018E6FFA0E01018F6FD8ECBDF07CEF2B
:1012E00093F0E30E0101876FF50E0101886FEBECBF
:1012F000B4F05B0E0101876FEF0E0101886FEBEC1C
:10130000B4F00A0E0101876FF20E0101886FEBEC59
:10131000B4F0C70E01018B6FF90E01018C6F45EC23
:10132000A5F0360E01018B6FFE0E01018C6F45ECAE
:10133000A5F0220E01018B6FFE0E01018C6F45ECB2
:10134000A5F07CEF93F0CAC17CF1CBC17DF1C50E55
:1013500001017E6FFE0E01017F6FD5ECB5F0000933
:10136000D8B40AD1CAC17CF1CBC17DF1170E0101FD
:101370007E6FFA0E01017F6F34ECB7F00009D8A43C
:10138000C9D0CAC17CF1CBC17DF1050E01017E6FD0
:10139000FD0E01017F6F34ECB7F00009D8A407D02F
:1013A000CAC18BF1CBC18CF12FECA7F000D0CAC120
:1013B00088F1CBC189F144ECA6F088C1DEF589C182
:1013C000DFF58AC1E0F58BC1E1F50501E1BF0DD084
:1013D0000501E1510501E01110E1E80E0501DE5DB6
:1013E000030E0501DF59D8B008D00501E1BF05D0D3
:1013F000DEC5D8F5DFC5D9F500D0FD0E0501DE1933
:101400001DE10501DF291AE10501E02917E17F0E41
:101410000501E119D8A412D05F0E0101876FF50E06
:101420000101886FEBECB4F0FE0E01018E6FFB0E34
:1014300001018F6FD8ECBDF07CEF93F00501D9BFAF
:101440001AD00501D95105E1650E0501D85DD8A076
:1014500012D0500E0101876FF10E0101886FEBEC85
:10146000B4F0E90E01018E6FF90E01018F6FD8EC17
:10147000BDF07CEF93F00501D9AF12D0DF0E010172
:10148000876FF10E0101886FEBECB4F02B0E0101B8
:101490008E6FFC0E01018F6FD8ECBDF07CEF93F0E6
:1014A0000501D8515CECB1F0000E0101926F050E00
:1014B0000101936FFF0E0101946FF30E0101956F0F
:1014C000D8C596F1D9C597F187EC93F0000E0101CC
:1014D000876F050E0101886FEBECB4F0000E01017F
:1014E000926F050E0101936F770E0101946FFB0E51
:1014F0000101956FDCC596F1DDC597F187EC93F09E
:10150000000E01018E6F050E01018F6FD8ECBDF04A
:101510007CEF93F0AF0E0101876FF50E0101886F2C
:10152000EBECB4F09D0E0101876FEF0E0101886FA7
:10153000EBECB4F00A0E0101876FF20E0101886F27
:10154000EBECB4F0480E01018B6FFD0E01018C6FC6
:1015500045ECA5F0360E01018B6FFE0E01018C6F7C
:1015600045ECA5F02C0E01018B6FFE0E01018C6F76
:1015700045ECA5F07CEF93F0CAC17CF1CBC17DF1C5
:10158000E00E01017E6FFF0E01017F6FD5ECB5F01B
:101590000009D8B46CD1CAC17CF1CBC17DF1170E62
:1015A00001017E6FFA0E01017F6F34ECB7F0000984
:1015B000D8A41BD1CAC17CF1CBC17DF1050E0101BC
:1015C0007E6FFD0E01017F6F34ECB7F00009D8A4E7
:1015D00007D0CAC18BF1CBC18CF12FECA7F000D0A2
:1015E000CAC188F1CBC189F144ECA6F088C1DEF50F
:1015F00089C1DFF58AC1E0F58BC1E1F50501E1BFE5
:101600000DD00501E1510501E01110E1E80E0501E1
:10161000DE5D030E0501DF59D8B008D00501E1BF3A
:1016200005D0DEC5DAF5DFC5DBF500D0FD0E05011E
:10163000DE191DE10501DF291AE10501E02917E1A5
:101640007F0E0501E119D8A412D0BE0E0101876FEB
:10165000F30E0101886FEBECB4F0FA0E01018E6F0E
:10166000FC0E01018F6FD8ECBDF07CEF93F005010B
:10167000DBAF12D05E0E0101876FF40E0101886F9F
:10168000EBECB4F0F90E01018E6FFA0E01018F6FD1
:10169000D8ECBDF07CEF93F00501DBBF17D07D0ED9
:1016A0000501DB5DD8A012D0EF0E0101876FF40EAB
:1016B0000101886FEBECB4F0B90E01018E6FFA0EE8
:1016C00001018F6FD8ECBDF07CEF93F00501DA518A
:1016D0000501DB11D8B436D0000E0101926F050E62
:1016E0000101936F990E0101946FF40E0101956F42
:1016F000DAC596F1DBC597F187EC93F0000E010196
:10170000876F050E0101886FEBECB4F0000E01014C
:10171000926F050E0101936F0C0E0101946FF90E8B
:101720000101956FDCC596F1DDC597F187EC93F06B
:10173000000E01018E6F050E01018F6FD8ECBDF018
:101740007CEF93F08D82E80E01017C6F030E7D6FBC
:10175000000E7E6F000E7F6F38ECBAF00501DA5193
:10176000A3ECBAF08BC1C8F58CC1C9F5000E01011C
:10177000926F050E0101936F510E0101946FF70EE8
:101780000101956FDAC596F1DBC597F1C8C598F1EF
:10179000C9C599F187EC93F08D92000E0101876F16
:1017A000050E0101886FEBECB4F0000E0101926FA1
:1017B000050E0101936F140E0101946FFD0E0101DE
:1017C000956FDAC596F1DBC597F1C8C598F1C9C523
:1017D00099F187EC93F0000E01018E6F050E010167
:1017E0008F6FD8ECBDF07CEF93F0EA0E0101876FAC
:1017F000F80E0101886FEBECB4F07B0E0101876FEE
:10180000FD0E0101886FEBECB4F0B30E0101876FA0
:10181000FF0E0101886FEBECB4F0890E0101876FB8
:10182000EE0E0101886FEBECB4F0D30E0101876F6F
:10183000FC0E0101886FEBECB4F0CE0E01018B6F52
:10184000FE0E01018C6F45ECA5F0360E01018B6F89
:10185000FE0E01018C6F45ECA5F0370E01018B6F78
:10186000FC0E01018C6F45ECA5F07CEF93F0CAC132
:101870007CF1CBC17DF1E40E01017E6FFF0E010111
:101880007F6FD5ECB5F00009D8B4B1D2CAC17CF1F4
:10189000CBC17DF1170E01017E6FFA0E01017F6F42
:1018A00034ECB7F00009D8A438D2CAC17CF1CBC15E
:1018B0007DF14A0E01017E6FFF0E01017F6F34EC56
:1018C000B7F00009D8B4C2D0020EA3ECBAF0080EEB
:1018D00001018B250501CA6F000E01018C21050154
:1018E000CB6F000E01019A6FA00E01019B6F400E9D
:1018F00001019C6F000E01018B6F800E01018C6F46
:10190000440E01018D6FCAC584F1CBC585F1CEECC3
:10191000BEF084C188F185C189F186C18AF1D2EC1B
:10192000AAF088C197F189C198F18AC199F1C7ECF1
:10193000A8F097C1A6F198C1A7F199C1A8F129EC27
:10194000AAF0A6C1CCF5A7C1CDF5000E01019A6F92
:10195000FA0E01019B6F430E01019C6F000E010105
:101960008B6F800E01018C6F440E01018D6FCAC513
:1019700084F1CBC585F1CEECBEF084C188F185C180
:1019800089F186C18AF1D2ECAAF088C197F189C1A8
:1019900098F18AC199F1C7ECA8F097C1A6F198C156
:1019A000A7F199C1A8F129ECAAF0A6C1D2F5A7C167
:1019B000D3F5D2C57CF1D3C57DF1000E01017F6F57
:1019C000640E7E6FCCECB9F07CC1D2F57DC1D3F54D
:1019D000000E0101926F050E0101936FF00E0101DF
:1019E000946FF20E0101956FCCC596F1CDC597F1BC
:1019F000D2C598F1D3C599F187EC93F0000E01019F
:101A0000876F050E0101886FEBECB4F0000E010149
:101A1000926F050E0101936F990E0101946FFA0EFA
:101A20000101956FCCC596F1CDC597F1D2C598F15E
:101A3000D3C599F187EC93F0000E01018E6F050E6E
:101A400001018F6FD8ECBDF07CEF93F0CAC17CF13F
:101A5000CBC17DF1DB0E01017E6FFF0E01017F6FB7
:101A600034ECB7F00009D8B4A8D03BECAFF00009D3
:101A7000D8A48BD0000E0101BE6F050E0101BF6F0F
:101A800021EE00F001EEC0F0080EDBCFEBFFE80620
:101A9000FCE2000E0101C96F4AECAEF0000E01013C
:101AA000876F050E0101886FEBECB4F0CE0E0101DB
:101AB000876FF60E0101886FEBECB4F0000E0101A8
:101AC0008A6F000E60ECBDF03F0E01018A6FF90EC7
:101AD00001018B6FA7ECB8F001010451D8B423D0F9
:101AE000000E0101926F050E0101936FA40E01011A
:101AF000946FF60E0101956F07C196F10101976B86
:101B000006C198F10101996B02C19AF101019B6B29
:101B100001C19CF101019D6B00C19EF101019F6B10
:101B200087EC93F023D0000E0101926F050E0101A6
:101B3000936F8D0E0101946FF60E0101956F07C131
:101B400096F10101976B06C198F10101996B02C1F1
:101B50009AF101019B6B01C19CF101019D6B00C1D8
:101B60009EF101019F6B87EC93F000D0000E010104
:101B70008A6F010E60ECBDF0000E01018A6F050E48
:101B800001018B6FA7ECB8F0EBD3460E0101876F14
:101B9000F60E0101886FEBECB4F0000E01018A6FC4
:101BA000010E60ECBDF0610E01018A6FF90E0101BA
:101BB0008B6FA7ECB8F0D4D3D3D3CAC17CF1CBC11F
:101BC0007DF1F80E01017E6FFF0E01017F6F34EC95
:101BD000B7F00009D8B497D0CB0E0101876FF20E91
:101BE0000101886FEBECB4F05A0E0101876FF30E20
:101BF0000101886FEBECB4F0CAC17CF1CBC17DF17F
:101C0000000E01017F6F640E7E6FCBECBBF0D10E36
:101C10000101876FF40E0101886FEBECB4F000D086
:101C2000CAC1D9FFCBC1DAFFDF50D8B4F9D7CAC1D6
:101C30007CF1CBC17DF166ECB6F0CAC17CF1CBC1C1
:101C40007DF140EC9CF00009D8B448D021EE00F0C2
:101C500001EE84F0080EDBCFEBFFE806FCE2AFEC10
:101C6000A2F00009D8A430D0C90E0101876FF50E8B
:101C70000101886FEBECB4F03BECAFF0000E01011A
:101C8000BE6F050E0101BF6F21EE00F001EEC0F046
:101C9000080EDBCFEBFFE806FCE2000E0101C96F86
:101CA0004AECAEF0000E0101876F050E0101886F4E
:101CB000EBECB4F0CE0E0101876FF60E0101886FD8
:101CC000EBECB4F07CEF93F0430E0101876FF50E5F
:101CD0000101886FEBECB4F07CEF93F0FC0E010196
:101CE000876FF50E0101886FEBECB4F09D0E0101DA
:101CF000876FF30E0101886FEBECB4F07CEF93F08B
:101D00008FD77CEF93F0ED0E0101876FFC0E010180
:101D1000886FEBECB4F07CEF93F07C0E0101876FE1
:101D2000F40E0101886FEBECB4F0C20E0101876F75
:101D3000FD0E0101886FEBECB4F0180E0101876F06
:101D4000FE0E0101886FEBECB4F0670E0101876FA6
:101D5000FF0E0101886FEBECB4F0590E0101876FA3
:101D6000FF0E0101886FEBECB4F0D20E0101876F1A
:101D7000EE0E0101886FEBECB4F0DB0E0101876F12
:101D8000EF0E0101886FEBECB4F0280E0101876FB4
:101D9000F70E0101886FEBECB4F0D70E01018B6FE9
:101DA000FE0E01018C6F45ECA5F0360E01018B6F24
:101DB000FE0E01018C6F45ECA5F0420E01018B6F08
:101DC000FF0E01018C6F45ECA5F0D60E01018B6F63
:101DD000FF0E01018C6F45ECA5F0F40E01018B6F35
:101DE000FF0E01018C6F45ECA5F07CEF93F0CAC1AA
:101DF0007CF1CBC17DF1E80E01017E6FFF0E010188
:101E00007F6FD5ECB5F00009D8B447D1CAC17CF1D9
:101E1000CBC17DF1170E01017E6FFA0E01017F6FBC
:101E200034ECB7F00009D8A4F7D0CAC17CF1CBC11B
:101E30007DF1940E01017E6FF90E01017F6F74EC4C
:101E4000B7F00009D8B464D0F29E350E0101876F57
:101E5000EE0E0101886F010EF2ECB6F0350E0101B5
:101E6000876FEE0E0101886F010EF2ECB6F0350EB1
:101E70000101876FEE0E0101886F010EF2ECB6F0E2
:101E8000350E0101876FEE0E0101886F010EF2EC35
:101E9000B6F0350E0101876FEE0E0101886F010E5D
:101EA000F2ECB6F0350E0101876FEE0E0101886F7E
:101EB000010EF2ECB6F0350E0101876FEE0E010156
:101EC000886F010EF2ECB6F0350E0101876FEE0E51
:101ED0000101886F010EF2ECB6F0350E0101876F3B
:101EE000EE0E0101886F010EF2ECB6F0F28E8D0E4F
:101EF0000101876FF70E0101886FEBECB4F0EF0E74
:101F000001018E6FFB0E01018F6FD8ECBDF0F4D391
:101F1000CAC17CF1CBC17DF1800E01017E6FF80E4C
:101F200001017F6F74ECB7F00009D8B464D0F29E61
:101F3000250E0101876FEE0E0101886F010EF2EC94
:101F4000B6F0250E0101876FEE0E0101886F010EBC
:101F5000F2ECB6F0250E0101876FEE0E0101886FDD
:101F6000010EF2ECB6F0250E0101876FEE0E0101B5
:101F7000886F010EF2ECB6F0250E0101876FEE0EB0
:101F80000101886F010EF2ECB6F0250E0101876F9A
:101F9000EE0E0101886F010EF2ECB6F0250E010184
:101FA000876FEE0E0101886F010EF2ECB6F0250E80
:101FB0000101876FEE0E0101886F010EF2ECB6F0A1
:101FC000250E0101876FEE0E0101886F010EF2EC04
:101FD000B6F0F28E650E0101876FF70E0101886F72
:101FE000EBECB4F0E90E01018E6FFA0E01018F6F78
:101FF000D8ECBDF081D3B40E0101876FF70E01015B
:10200000886FEBECB4F0490E01018E6FFA0E0101FE
:102010008F6FD8ECBDF070D3760E0101876FF60E8E
:102020000101886FEBECB4F0B70E0101876FFD0E74
:102030000101886FEBECB4F0860E0101876FFE0E94
:102040000101886FEBECB4F0170E0101876FEF0E02
:102050000101886FEBECB4F0270E0101876FF50EDC
:102060000101886FEBECB4F09B0E01018B6FFC0E4D
:1020700001018C6F45ECA5F08F0E01018B6FFE0EF8
:1020800001018C6F45ECA5F0A70E01018B6FFF0ECF
:1020900001018C6F45ECA5F02FD3CAC17CF1CBC1F7
:1020A0007DF1170E01017E6FFA0E01017F6F74EC56
:1020B000B7F00009D8B45ED16F0E0101876FFD0E35
:1020C0000101886FEBECB4F00E0E0101876FFE0E7C
:1020D0000101886FEBECB4F0E00E0101876FFC0E9C
:1020E0000101886FEBECB4F0870E0101876FFD0EE4
:1020F0000101886FEBECB4F01D0E0101876FF90E42
:102100000101886FEBECB4F0CD0E0101876FFD0E7D
:102110000101886FEBECB4F0830E0101876FFF0EB5
:102120000101886FEBECB4F0580E0101876FF60ED9
:102130000101886FEBECB4F0FA0E0101876FFE0E1F
:102140000101886FEBECB4F0ED0E0101876FF00E2A
:102150000101886FEBECB4F0BB0E0101876FF60E46
:102160000101886FEBECB4F0590E0101876FFB0E93
:102170000101886FEBECB4F0000E01018A6F000ED4
:1021800060ECBDF0680E01018A6FFE0E01018B6FDD
:10219000A7ECB8F03BECAFF00009D8A47DD0000E5E
:1021A0000101BE6F050E0101BF6F21EE00F001EECF
:1021B000C0F0080EDBCFEBFFE806FCE2000E0101E9
:1021C000C96F4AECAEF0000E0101876F050E0101E8
:1021D000886FEBECB4F0CE0E0101876FF60E0101B3
:1021E000886FEBECB4F001010451D8B423D0000E99
:1021F0000101926F050E0101936FA40E0101946F0E
:10220000F60E0101956F07C196F10101976B06C1AA
:1022100098F10101996B02C19AF101019B6B01C117
:102220009CF101019D6B00C19EF101019F6B87EC48
:1022300093F023D0000E0101926F050E0101936F00
:102240008D0E0101946FF60E0101956F07C196F195
:102250000101976B06C198F10101996B02C19AF1D6
:1022600001019B6B01C19CF101019D6B00C19EF1BD
:1022700001019F6B87EC93F000D0000E01018A6F83
:10228000010E60ECBDF0000E01018A6F050E010128
:102290008B6FA7ECB8F016D0460E0101876FF60ED3
:1022A0000101886FEBECB4F0000E01018A6F010EA2
:1022B00060ECBDF0610E01018A6FF90E01018B6FB8
:1022C000A7ECB8F0000E01018A6F010E60ECBDF0C2
:1022D000470E01018B6FFC0E01018C6F45ECA5F0E0
:1022E000980E01018B6FFE0E01018C6F45ECA5F07D
:1022F000930E01018B6FFD0E01018C6F45ECA5F073
:10230000D80E01018B6FFD0E01018C6F45ECA5F01D
:10231000590E01018B6FFA0E01018C6F45ECA5F08F
:10232000400E01018B6FFE0E01018C6F45ECA5F094
:10233000CC0E01018B6FFF0E01018C6F45ECA5F0F7
:10234000D10E01018B6FFF0E01018C6F45ECA5F0E2
:102350008F0E01018B6FFF0E01018C6F45ECA5F014
:10236000000E0101D76F000ED86F000ED96F000E5E
:10237000DA6FC2D1CAC17CF1CBC17DF1950E0101EA
:102380007E6FFF0E01017F6F74ECB7F00009D8B4C7
:1023900029D0000E0101926F050E0101936F4A0EC4
:1023A0000101946FFE0E0101956F8FECBFF07CC1AF
:1023B00096F17DC197F17EC198F17FC199F187ECCB
:1023C00093F0000E0101876F050E0101886FEBECA1
:1023D000B4F0000E01018E6F050E01018F6FD8EC75
:1023E000BDF08AD1CAC17CF1CBC17DF1190E0101CA
:1023F0007E6FFB0E01017F6F34ECB7F00009D8A4AB
:102400002DD0CAC17CF1CBC17DF13A0E01017E6FA6
:10241000FF0E01017F6F34ECB7F00009D8A41ED085
:10242000CAC17CF1CBC17DF10A0E01017E6FFF0EA6
:1024300001017F6F34ECB7F00009D8A40FD0CAC1F6
:102440007CF1CBC17DF1E30E01017E6FFD0E010138
:102450007F6F34ECB7F00009D8B4BED0CAC17CF1AC
:10246000CBC17DF1050E01017E6FFD0E01017F6F75
:1024700034ECB7F00009D8A407D0CAC18BF1CBC1A6
:102480008CF12FECA7F000D0CAC188F1CBC189F143
:1024900044ECA6F088C1CEF589C1CFF58AC1D0F54C
:1024A0008BC1D1F50501D1510501D01108E1600EB4
:1024B0000501CE5D090E0501CF59D8A084D00501D4
:1024C000D15109E10501CE05C20E0501CF59010E1A
:1024D0000501D059D8B077D0CAC17CF1CBC17DF10C
:1024E000390E01017E6FFB0E01017F6F34ECB7F0F6
:1024F0000009D8B402D0000E45D0CAC17CF1CBC1CE
:102500007DF1B60E01017E6FF90E01017F6F34EC93
:10251000B7F00009D8B402D0010E34D0CAC17CF1A2
:10252000CBC17DF1B60E01017E6FF80E01017F6F08
:1025300034ECB7F00009D8B402D0020E23D0CAC1DF
:102540007CF1CBC17DF19F0E01017E6FFD0E01017B
:102550007F6F34ECB7F00009D8B402D0030E12D06C
:10256000CAC17CF1CBC17DF13B0E01017E6FFD0E36
:1025700001017F6F34ECB7F00009D8B402D0040E2B
:1025800001D0050E0501D46F000ED56F000ED66F79
:10259000000ED76F00D0050E0501D4190501D51125
:1025A0000501D6110501D711D8B4A6D0CEC5BEF10C
:1025B000CFC5BFF1D0C5C0F1D1C5C1F1D4C5C2F1FD
:1025C00001ECA4F099D03D0E0101876FF70E0101D7
:1025D000886FEBECB4F090D0CAC17CF1CBC17DF137
:1025E0007C0E01017E6FFF0E01017F6F34ECB7F0AE
:1025F0000009D8A45DD0CAC17CF1CBC17DF1550ED4
:1026000001017E6FFC0E01017F6F34ECB7F0000911
:10261000D8A44ED0CAC1D9FFCBC1DAFFDF5028EC15
:10262000BFF00009D8B457D0CAC17CF1CBC17DF14D
:10263000050E01017E6FFD0E01017F6F34ECB7F0D6
:102640000009D8A407D0CAC18BF1CBC18CF12FEC03
:10265000A7F000D0CAC188F1CBC189F144ECA6F043
:1026600088C1DEF589C1DFF58AC1E0F58BC1E1F5EE
:102670000501E1BF1FD00501E1510501E01108E1AD
:10268000600E0501DE5D090E0501DF59D8A012D0EC
:102690000501E1BF0DD00501E1510CE10501DE05A9
:1026A000C20E0501DF59010E0501E059D8B002D074
:1026B00000F022D0380E0101876FF80E0101886FFB
:1026C000EBECB4F0A90E01018E6FFA0E01018F6FD1
:1026D000D8ECBDF011D0380E0101876FF80E010162
:1026E000886FEBECB4F0A90E01018E6FFA0E0101B8
:1026F0008F6FD8ECBDF000D0CE0E0101876FF60EC3
:102700000101886FEBECB4F0010E12001200960E7E
:102710000101B16F010E0101B26FBBEF99F0250EFF
:102720000101BB19D8B40BD092C1D9FF93C1DAFF14
:10273000BBC1DFFF0101924B932BBBEF99F0000E61
:102740000101BA6F000EB96F000E0101BD6F000EDE
:10275000BC6F10D00101BC8708D00101BC8105D03D
:102760000101BD8702D00101BC850101944B952B6D
:1027700001D016D094C1F6FF95C1F7FF000EF86E98
:102780000800F550200AD8B4E8D7030AD8B4E8D72F
:102790000E0AD8B4DFD71D0AD8B4E5D701D0EAD7DE
:1027A0000101BCA703D00101BC9500D094C1F6FF84
:1027B00095C1F7FF000EF86E0800F55089ECBEF0E9
:1027C000D8A047D0000E0101BA6F000EB96F00D03B
:1027D000B9C17CF1BAC17DF1000E01017F6F0A0E13
:1027E0007E6FBCECBDF07CC1B9F17DC1BAF1D00EF9
:1027F0000101A26FFF0E0101A36F94C1F6FF95C105
:10280000F7FF000EF86E0800F5500101A46FA56BEC
:102810000101A2510101A4270101A3510101A52336
:102820000101A4510101B9270101A5510101BA23F8
:102830000101944B952B94C1F6FF95C1F7FF000E53
:10284000F86E0800F55089ECBEF0D8A01ED0C0D7B5
:102850001CD094C1F6FF95C1F7FF000EF86E08007A
:10286000F5502A0AD8A411D0B1C1D9FFB2C1DAFFFC
:10287000DECFB9F1DDCFBAF1020E0101B127000EB2
:10288000B2230101944B952B00D094C1F6FF95C162
:10289000F7FF000EF86E0800F5502E0AD8A45BD0A2
:1028A0000101BD8D0101944B952B94C1F6FF95C19B
:1028B000F7FF000EF86E0800F5502A0AD8A411D0D0
:1028C000B1C1D9FFB2C1DAFFDECFB7F1DDCFB8F1C8
:1028D000020E0101B127000EB2230101944B952B8A
:1028E000EFD0000E0101B86F000EB76F26D0B7C150
:1028F0007CF1B8C17DF1000E01017F6F0A0E7E6F81
:10290000BCECBDF094C1F6FF95C1F7FF000EF86E68
:102910000800F55001017C27000E01017D23D00E37
:1029200001017C250101B76FFF0E01017D2101012D
:10293000B86F0101944B952B00D094C1F6FF95C15F
:10294000F7FF000EF86E0800F55089ECBEF0D8A035
:10295000B7D0CDD7B5D0000E0101B86F000EB76F5C
:10296000AFD0CEEF99F00101BC89AAD00101BC8D96
:10297000D2D00101BC8B0101BC8FCDD00101B75178
:102980000101B811D8B40FD00101AF510101B75DF9
:102990000101B0510101B859D8B005D0B7C1AFF1AC
:1029A000B8C1B0F100D00101B9510101AF5D010121
:1029B000BA510101B059D8B009D00101AF5101019C
:1029C000B95F0101B0510101BA5B06D0000E0101EF
:1029D000BA6F000EB96F00D00101BCA70CD029D08E
:1029E0000AD092C1D9FF93C1DAFF200EDF6E010138
:1029F000924B932B00D00101B907D8A0BA0701016F
:102A0000B929EFE10101BA29D8B413D0EAD711D01E
:102A1000A7C1D9FFA8C1DAFF92C1E1FF93C1E2FFCC
:102A2000DFCFE7FF0101A74BA82B0101924B932BAE
:102A300000D00101AF07D8A0B0070101AF29E8E13C
:102A40000101B029D8A4E4D70101BCB70DD0BBEF78
:102A500099F00AD092C1D9FF93C1DAFF200EDF6E40
:102A60000101924B932B00D00101B907D8A0BA07FE
:102A70000101B929EFE10101BA29D8B4BBEF99F0FE
:102A8000E9D7BBEF99F0B1C1D9FFB2C1DAFFDF508E
:102A90000101BB6F020E0101B127000EB22300D06D
:102AA000BB0E0101A76F010E0101A86F000E01010D
:102AB000B06F010EAF6F62D7C00E0101BC132BD0F7
:102AC00094C1F6FF95C1F7FF0101944B952B000EC1
:102AD000F86E0800F5CFBBF10101BB51000AD8B474
:102AE000CEEF99F0580AD8B444D73B0AD8B4CBD724
:102AF000070AD8B410D00D0AD8B40DD0050AD8B43E
:102B000032D7030AD8B432D71A0AD8B4D5D70D0AA7
:102B1000D8B431D7C5D7C00E0101BC150101A26FD1
:102B2000000E0101BD150101A36F0101A2510101B8
:102B3000A311D8A435D00101BCA90ED0B1C1D9FFD1
:102B4000B2C1DAFFDECFB3F1DECFB4F1DECFB5F143
:102B5000DECFB6F1040E0FD0B1C1D9FFB2C1DAFF9A
:102B6000DECFB3F1DDCFB4F10101000EB4BFFF0E33
:102B7000B56FB66F020E0101B127000EB22300D06F
:102B80000101B6AF33D0030E0101BC130101B61F22
:102B9000B51FB41FB36D000EB423B523B62326D0E2
:102BA0000101BCA90ED0B1C1D9FFB2C1DAFFDECF9D
:102BB000B3F1DECFB4F1DECFB5F1DECFB6F1040E66
:102BC00010D0B1C1D9FFB2C1DAFFDECFA2F1DDCFA3
:102BD000A3F1A2C1B3F1A3C1B4F10101B56BB66B0E
:102BE000020E0101B127000EB22300D00101B7513E
:102BF0000101B811D8A499D00101B3510101B41158
:102C00000101B5110101B611D8A48FD00101B74B54
:102C1000B82B8BD000D0010E0101BB6F0A0E010151
:102C2000BB19D8B492D001D090D00101BB51040D92
:102C30001D0EF324F66EED0EF420F76EF86A000E0A
:102C4000F8220900F5500101B35D0900F5500101BA
:102C5000B4590900F5500101B5590900F5500101B9
:102C6000B659D8A072D001D070D00101BB2BD6D7F5
:102C70006CD0010E0101BB6F080E0101BB19D8B465
:102C800064D001D062D00101BB51040D450EF32484
:102C9000F66EED0EF420F76EF86A000EF8220900C9
:102CA000F5500101B35D0900F5500101B459090067
:102CB000F5500101B5590900F5500101B659D8A0E8
:102CC00044D001D042D00101BB2BD6D73ED0010E5B
:102CD0000101BB6F0C0E0101BB19D8B436D001D075
:102CE00034D00101BB51040DED0EF324F66EEC0E51
:102CF000F420F76EF86A000EF8220900F550010181
:102D0000B35D0900F5500101B4590900F550010106
:102D1000B5590900F5500101B659D8A016D001D017
:102D200014D00101BB2BD6D710D00101BC51C00B70
:102D3000000AD8B470D7400AD8B4C9D7C00AD8B4EA
:102D400098D7400AD8B467D700D0800E0101BBBF26
:102D50007F0E0101A26F0101B7510101BB5D0101AD
:102D6000B851800A0101A259D8B003D0B7C1BBF154
:102D700019D00101B851800A0101A26F0101BB51B4
:102D80000101B75D800E0101BBBF7F0E0101A25999
:102D9000D8B008D00101BB510101B76FB86BB7BF04
:102DA000B80700D00101B9510101BA11D8B415D04A
:102DB000030E0101BC150101A26F000E0101BD153A
:102DC0000101A36F0101A2510101A311D8B405D0E3
:102DD0000101B907D8A0BA0700D00101BDAD1FD0CD
:102DE0000101B9510101B75D0101B851800A01012A
:102DF000A26F0101BA51800A0101A259D8B009D0CD
:102E00000101B7510101B95F0101B8510101BA5B7C
:102E100006D0000E0101BA6F000EB96F00D0C40ECB
:102E20000101A26F080E0101A36FBCC1A4F1BDC1D5
:102E3000A5F10101A2510101A4170101A351010152
:102E4000A517400E0101A41910E1080E0101A519F2
:102E5000D8A40BD00101B9510101BA11D8B437D0AF
:102E60000101B907D8A0BA0732D0C00E0101A26F84
:102E7000080E0101A36FBCC1A4F1BDC1A5F1010100
:102E8000A2510101A4170101A3510101A517800E50
:102E90000101A4191CE1080E0101A519D8A417D03D
:102EA0000101BABF0ED00101BA5105E1030E0101C3
:102EB000B95DD8A006D00101FE0EB927FF0EBA23D6
:102EC00006D0000E0101BA6F000EB96F00D0800E5F
:102ED0000101BBBF7F0E0101A26F0101B9510101C8
:102EE000BB5D0101BA51800A0101A259D8B00BD0D3
:102EF0000101BB510101B95F000E0101BBBFFF0E13
:102F00000101BA5B06D0000E0101BA6F000EB96F65
:102F100000D00101BCA579D0030E0101BC1501014F
:102F2000A26F000E0101BD150101A36F0101A251A5
:102F30000101A311D8B40AD092C1D9FF93C1DAFF1D
:102F40002D0E0CD00101924B932B44D00101BCA15A
:102F500007D092C1D9FF93C1DAFF200EDF6EF2D7FE
:102F6000C00E0101A26F080E0101A36FBCC1A4F144
:102F7000BDC1A5F10101A2510101A4170101A35195
:102F80000101A517800E0101A41924E1080E010119
:102F9000A519D8A41FD092C1D9FF93C1DAFF300E72
:102FA000DF6E0101924B932B0101BCBB05D0000EDB
:102FB0000101AA6F780E04D0000E0101AA6F580E0D
:102FC000A96F00D092C1D9FF93C1DAFFA9C1DFFF79
:102FD000B9D700D00101B9510101BA11D8B49CD1BF
:102FE00092C1D9FF93C1DAFF300EDF6E0101924B1F
:102FF000932B0101B907D8A0BA070101B95101010A
:10300000BA11D8B489D1ECD787D10101B9510101E6
:10301000BA11D8B418D00101BCB715D092C1D9FFEC
:1030200093C1DAFF200EDF6E0101924B932B010159
:10303000B907D8A0BA070101B9510101BA11D8B432
:1030400002D0ECD700D0030E0101BC150101A26F24
:10305000000E0101BD150101A36F0101A251010183
:10306000A311D8B40AD092C1D9FF93C1DAFF2D0EB3
:103070000CD00101924B932B0BD00101BCA108D0C5
:1030800092C1D9FF93C1DAFF200EDF6EF2D700D0D4
:10309000C00E0101A26F080E0101A36FBCC1A4F113
:1030A000BDC1A5F10101A2510101A4170101A35164
:1030B0000101A517400E0101A4190CE1080E010140
:1030C000A519D8A407D092C1D9FF93C1DAFF300E59
:1030D000DF6E1ED1C00E0101A26F080E0101A36FA9
:1030E000BCC1A4F1BDC1A5F10101A2510101A41708
:1030F0000101A3510101A517800E0101A41904E1EA
:10310000080E0101A519D8A407D192C1D9FF93C116
:10311000DAFF300EDF6E0101924B932B0101BCBB35
:1031200005D0000E0101AC6F780E04D0000E010135
:10313000AC6F580EAB6F00D092C1D9FF93C1DAFFCC
:10314000ABC1DFFFE5D0E8D0CDD000D0B7C1A2F150
:10315000B8C1A3F10101D890A237A3370101D890DB
:10316000A237A3371D0E0101A225F66EED0EA32195
:10317000F76EF86A000EF8220900F5CF80F1090019
:10318000F5CF81F10900F5CF82F10A00F5CF83F187
:10319000B3C17CF1B4C17DF1B5C17EF1B6C17FF19F
:1031A00024ECB2F07CC189F17DC18AF17EC18BF142
:1031B0007FC18CF10A0E01018D6F000E8E6F000E23
:1031C0008F6F000E906F99ECB4F00101895186D099
:1031D000B3C17CF1B4C17DF1B5C17EF1B6C17FF15F
:1031E000B7C1A2F1B8C1A3F10101D890A237A337AA
:1031F0000101D890A237A337450E0101A225F66E32
:10320000ED0EA321F76EF86A000EF8220900F5CF43
:1032100080F10900F5CF81F10900F5CF82F10A00B4
:10322000F5CF83F124ECB2F001017C510F0B0101C9
:10323000A66F0101BCBB05D0D90E0101AD6FF80E20
:1032400004D0C80E0101AD6FF80E0101AE6F00D0C1
:103250000101A651010DADC1A2F1AEC1A3F1F35020
:103260000101A227F4500101A323A2C1F6FFA3C1CB
:10327000F7FF000EF86E0800F5CFBBF143D0B3C1E5
:103280007CF1B4C17DF1B5C17EF1B6C17FF1B7C1AA
:10329000A2F1B8C1A3F10101D890A237A33701016F
:1032A000D890A237A337ED0E0101A225F66EEC0EE1
:1032B000A321F76EF86A000EF8220900F5CF80F11D
:1032C0000900F5CF81F10900F5CF82F10A00F5CFB1
:1032D00083F124ECB2F001017C51070B300F0101A6
:1032E000BB6F10D00101BC51C00B000AD8B42ED75F
:1032F000400AD8B4C4D7C00AD8B46AD7400AD8B4F0
:1033000025D700D092C1D9FF93C1DAFFBBC1DFFF3F
:103310000101924B932B00D00101B707D8A0B80749
:103320000101B729DFE10101B829D8A4DBD70101E8
:10333000BCA721D00101BABF1ED00101BA5106E1DC
:103340000101B905D8B002D016D000D092C1D9FF82
:1033500093C1DAFF200EDF6E0101924B932B010126
:10336000B907D8A0BA070101B9510101BA11D8B4FF
:1033700002D0ECD700D094C1F6FF95C1F7FF010150
:10338000944B952B000EF86E0800F5CFBBF10101B0
:10339000BB51D8B403D08FEF93F000D092C1D9FFC6
:1033A00093C1DAFF000EDF6E12001200000E010161
:1033B000CD6F000E0101D26F000E0101CE6F000E25
:1033C000CF6F000ED06F000ED16F000E0101CC6FD9
:1033D000D3ECBFF09DECBBF0010EF3ECB3F059EC75
:1033E000BEF0C3ECBFF021ECBCF098ECBFF0BBEC3E
:1033F000BCF038ECADF07DECA9F07FC1CEF180C11E
:10340000CFF181C1D0F182C1D1F10101D1510101CE
:10341000D01108E1600E0101CE5D090E0101CF5906
:10342000D8A00FD00101D1510CE10101CE05C20E8F
:103430000101CF59010E0101D059D8B002D01FD0DF
:1034400000D0800E01019F6F250EA06F000EA16FAE
:10345000000EA26FB0ECAFF00009D8B403D0010E9B
:103460000101CC6F800E0101CE6F250ECF6F000ED3
:10347000D06F000ED16F000EF3ECBDF000D0CEC1C6
:1034800089F1CFC18AF1D0C18BF1D1C18CF119EC96
:10349000BFF001018D6F08ECA8F0130E0101876FDA
:1034A000F80E0101886FEBECB4F0C80E0101876FD4
:1034B000030E0101886FEBECB4F0CE0E0101876FB3
:1034C000F60E0101886FEBECB4F0000E0101CD6F38
:1034D000090E0101CD6501D01DD08C828C94500E57
:1034E00001017C6FC30E7D6F000E7E6F000E7F6F3B
:1034F00038ECBAF08C848C92500E01017C6FC30EB4
:103500007D6F000E7E6F000E7F6F38ECBAF0010108
:10351000CD2BDED78C94410E5CECB1F0140E010182
:103520007C6F000E7D6F000E7E6F000E7F6F38EC9B
:10353000BAF0000E01018A6F000E60ECBDF00101CF
:10354000CC510101D8B424D04E0E0101876FF00E8A
:103550000101886FEBECB4F0C50E01018A6FFC0E1F
:1035600001018B6FA7ECB8F0A00E01017C6F860EF5
:103570007D6F010E7E6F000E7F6F38ECBAF037EC76
:10358000BFF0000E01018A6F000E60ECBDF000D0AC
:10359000E90E01018A6FFE0E01018B6FA7ECB8F0F6
:1035A000AB0E0101876FFD0E0101886FEBECB4F0EB
:1035B000A00E01017C6F860E7D6F010E7E6F000EE6
:1035C0007F6F38ECBAF0000E01018A6F000E60ECDC
:1035D000BDF07C0E01018A6FFE0E01018B6FA7EC1E
:1035E000B8F0A00E01017C6F860E7D6F010E7E6F1C
:1035F000000E7F6F38ECBAF0000E01018A6F000EEA
:1036000060ECBDF0F90E01018A6FFD0E01018B6FB8
:10361000A7ECB8F0A00E01017C6F860E7D6F010E45
:103620007E6F000E7F6F38ECBAF0000E01018A6FDA
:10363000000E60ECBDF0AB0E01018A6FFD0E0101C2
:103640008B6FA7ECB8F0A00E01017C6F860E7D6F2A
:10365000010E7E6F000E7F6F38ECBAF0000E010194
:103660008A6F000E60ECBDF0620E01018A6FFD0EE4
:1036700001018B6FA7ECB8F0A00E01017C6F860EE4
:103680007D6F010E7E6F000E7F6F38ECBAF0000E7A
:1036900001018A6F000E60ECBDF0B70E01018A6F68
:1036A000FC0E01018B6FA7ECB8F0A00E01017C6F3E
:1036B000860E7D6F010E7E6F000E7F6F38ECBAF0C4
:1036C000000E01018A6F000E60ECBDF01C0E0101BE
:1036D0008A6FFC0E01018B6FA7ECB8F0A00E010100
:1036E0007C6F860E7D6F010E7E6F000E7F6F38EC53
:1036F000BAF0000E01018A6F000E60ECBDF0490EB9
:1037000001018A6FFB0E01018B6FA7ECB8F0A00ED0
:1037100001017C6F860E7D6F010E7E6F000E7F6F44
:1037200038ECBAF0000E01018A6F000E60ECBDF0BB
:10373000D80E01018A6FF90E01018B6FA7ECB8F06A
:10374000A00E01017C6F860E7D6F010E7E6F000E54
:103750007F6F38ECBAF0000E01018A6F010E60EC49
:10376000BDF0720E01018A6FFE0E01018B6FA7EC96
:10377000B8F0A00E01017C6F860E7D6F010E7E6F8A
:10378000000E7F6F38ECBAF0B60E0101876FF40EB1
:103790000101886FEBECB4F0640E0101D26F0101FE
:1037A000D2510101D8B415D001D013D00101D251AA
:1037B0009AECB3F0500E01017C6FC30E7D6F000ECA
:1037C0007E6F000E7F6F38ECBAF0050E0101D25FFC
:1037D000E6D7F90E8C160DECBEF00DECBEF00DEC3C
:1037E000BEF037ECBFF0000E01018A6F000E60ECF6
:1037F000BDF03E0E7BECBFF000D0A9EC9EF00101C5
:10380000DC5109E1190E0101DB5DD8B004D00101E2
:10381000DB4BDC2B03D08C928C9400D003016451E1
:10382000D8B4EBD70D0E03016419D8B419D00A0E21
:1038300003016419D8B414D0640E0101CA6F030ED9
:103840000101CB6F00EC80F00009D8B409D0CF0E95
:103850000101876FF40E0101886FEBECB4F000D02A
:10386000640E01017C6F030E01017D6F000E0101EA
:103870007F6F640E7E6FCBECBBF0BFD75EEF02F0C4
:10388000000E01017F6F7CC1D9FF7DC1DAFFDF50DF
:10389000D8B40CD07CC1D9FF7DC1DAFF200EDE1870
:1038A000D8A404D001017C4B7D2B00D07CC1D9FF72
:1038B0007DC1DAFF2F0EDF6413D07CC1D9FF7DC13B
:1038C000DAFF3A0EDF600CD07CC1D9FF7DC1DAFF90
:1038D000DF50D00F01017F6F01017C4B7D2B02D0A7
:1038E000000E12007CC1D9FF7DC1DAFF2F0EDF640C
:1038F00018D07CC1D9FF7DC1DAFF3A0EDF6011D04C
:103900000A0E01017F03F3507F6F7CC1D9FF7DC197
:10391000DAFFDF50D00F01017F2701017C4B7D2BA7
:103920000CD07CC1D9FF7DC1DAFF2F0EDE18D8B4D0
:1039300004D001D002D0000E12007FC187F17CC1FB
:10394000D9FF7DC1DAFF2F0EDE18D8A404D0010103
:103950007C4B7D2B02D0000E12007CC1D9FF7DC1B3
:10396000DAFF2F0EDF6413D07CC1D9FF7DC1DAFFEF
:103970003A0EDF600CD07CC1D9FF7DC1DAFFDF5089
:10398000D00F01017F6F01017C4B7D2B02D0000E17
:1039900012007CC1D9FF7DC1DAFF2F0EDF6418D081
:1039A0007CC1D9FF7DC1DAFF3A0EDF6011D00A0E6B
:1039B00001017F03F3507F6F7CC1D9FF7DC1DAFF26
:1039C000DF50D00F01017F2701017C4B7D2B0CD0F4
:1039D0007CC1D9FF7DC1DAFF2F0EDE18D8B404D028
:1039E00001D002D0000E12007FC186F17CC1D9FF48
:1039F0007DC1DAFF2F0EDE18D8A404D001017C4B64
:103A00007D2B02D0000E12007CC1D9FF7DC1DAFFF0
:103A10002F0EDF6413D07CC1D9FF7DC1DAFF3A0ECF
:103A2000DF600CD07CC1D9FF7DC1DAFFDF50D00F41
:103A300001017F6F01017C4B7D2B02D0000E120033
:103A40007CC1D9FF7DC1DAFF2F0EDF6418D07CC1A5
:103A5000D9FF7DC1DAFF3A0EDF6011D00A0E0101F5
:103A60007F03F3507F6F7CC1D9FF7DC1DAFFDF5048
:103A7000D00F01017F2701017C4B7D2B02D0000E6E
:103A800012007FC188F17CC1D9FF7DC1DAFF200E11
:103A9000DE18D8A404D001017C4B7D2B00D07CC162
:103AA000D9FF7DC1DAFF2F0EDF6413D07CC1D9FFAF
:103AB0007DC1DAFF3A0EDF600CD07CC1D9FF7DC139
:103AC000DAFFDF50D00F01017F6F01017C4B7D2BAE
:103AD00002D0000E12007CC1D9FF7DC1DAFF2F0E8B
:103AE000DF6418D07CC1D9FF7DC1DAFF3A0EDF60F8
:103AF00011D00A0E01017F03F3507F6F7CC1D9FF03
:103B00007DC1DAFFDF50D00F01017F2701017C4B1F
:103B10007D2B0CD07CC1D9FF7DC1DAFF3A0EDE18B7
:103B2000D8B404D001D002D0000E12007FC182F1BF
:103B30007CC1D9FF7DC1DAFF3A0EDE18D8A404D0CB
:103B400001017C4B7D2B02D0000E12007CC1D9FFFD
:103B50007DC1DAFF2F0EDF6413D07CC1D9FF7DC198
:103B6000DAFF3A0EDF600CD07CC1D9FF7DC1DAFFED
:103B7000DF50D00F01017F6F01017C4B7D2B02D004
:103B8000000E12007CC1D9FF7DC1DAFF2F0EDF6469
:103B900018D07CC1D9FF7DC1DAFF3A0EDF6011D0A9
:103BA0000A0E01017F03F3507F6F7CC1D9FF7DC1F5
:103BB000DAFFDF50D00F01017F2701017C4B7D2B05
:103BC0000CD07CC1D9FF7DC1DAFF3A0EDE18D8B423
:103BD00004D001D002D0000E12007FC181F17CC15F
:103BE000D9FF7DC1DAFF3A0EDE18D8A404D0010156
:103BF0007C4B7D2B02D0000E12007CC1D9FF7DC111
:103C0000DAFF2F0EDF6413D07CC1D9FF7DC1DAFF4C
:103C10003A0EDF600CD07CC1D9FF7DC1DAFFDF50E6
:103C2000D00F01017F6F01017C4B7D2B02D0000E74
:103C300012007CC1D9FF7DC1DAFF2F0EDF6418D0DE
:103C40007CC1D9FF7DC1DAFF3A0EDF6011D00A0EC8
:103C500001017F03F3507F6F7CC1D9FF7DC1DAFF83
:103C6000DF50D00F01017F2701017C4B7D2B02D05B
:103C7000000E12007FC180F17CC1D9FF7DC1DAFF47
:103C8000200EDE18D8A404D001017C4B7D2B00D07F
:103C90007CC1D9FF7DC1DAFF610EDE18D8A410D037
:103CA00001017C4B7D2B7CC1D9FF7DC1DAFF6D0EFC
:103CB000DE18D8A402D0000E17D0000E12001DD0BE
:103CC0007CC1D9FF7DC1DAFF700EDE18D8A4F5D70C
:103CD00001017C4B7D2B7CC1D9FF7DC1DAFF6D0ECC
:103CE000DE18D8A4EAD7010E0101846F06D0E5D70B
:103CF000120003D0E2D7120000D00D0E010187613F
:103D000015D0200E0101866111D0640E0101886179
:103D10000DD00D0E0101826109D03C0E01018161BF
:103D200005D03B0E0101806503D000D0000E1200CB
:103D300087C107F186C106F188C108F182C102F18D
:103D400081C101F180C100F184C104F1010E1200B2
:103D500012000A0E01017C6F000E7D6F000E7E6F57
:103D6000000E7F6F38ECBAF00101DA510101D91170
:103D700013E1A70E0101D75D610E0101D859D8B03A
:103D80000BD0010E0101D727000ED823D923DA2347
:103D9000010E0101096F1200A70E0101D71908E1F8
:103DA000610E0101D8190101D9110101DA11D8A45C
:103DB0001200010E0101D727000ED823D923DA23E0
:103DC000000E0101096F01010C51D8A40FD0000EA3
:103DD00001010B6F37ECBFF0000E01018A6F000E7E
:103DE00060ECBDF03E0E7BECBFF0120001010B2B2E
:103DF00001010B05D8A411D037ECBFF0000E010172
:103E00008A6F010E60ECBDF00E0E01018A6F010E8B
:103E100001018B6FA7ECB8F0DCD1020E01010B1988
:103E2000D8A42CD037ECBFF0000E01018A6F000E31
:103E300060ECBDF00E0E01018A6F010E01018B6F67
:103E4000A7ECB8F0000E01018A6F010E60ECBDF026
:103E50001E0E01018A6F010E01018B6FA7ECB8F0F5
:103E60000E0E01017C6F010E01017D6F000E01013C
:103E70007F6F100E7E6FCBECBBF0ABD1030E010158
:103E80000B19D8A42CD037ECBFF0000E01018A6FBB
:103E9000000E60ECBDF01E0E01018A6F010E0101E3
:103EA0008B6FA7ECB8F0000E01018A6F010E60EC79
:103EB000BDF02E0E01018A6F010E01018B6FA7EC80
:103EC000B8F01E0E01017C6F010E01017D6F000E26
:103ED00001017F6F100E7E6FCBECBBF07AD1040E28
:103EE00001010B19D8A42CD037ECBFF0000E010152
:103EF0008A6F000E60ECBDF02E0E01018A6F010E7C
:103F000001018B6FA7ECB8F0000E01018A6F010E62
:103F100060ECBDF03E0E01018A6F010E01018B6F56
:103F2000A7ECB8F02E0E01017C6F010E01017D6F30
:103F3000000E01017F6F100E7E6FCBECBBF049D1FC
:103F4000050E01010B19D8A42CD037ECBFF0000EE0
:103F500001018A6F000E60ECBDF03E0E01018A6F18
:103F6000010E01018B6FA7ECB8F0000E01018A6F02
:103F7000010E60ECBDF04E0E01018A6F010E0101D1
:103F80008B6FA7ECB8F03E0E01017C6F010E0101B2
:103F90007D6F000E01017F6F100E7E6FCBECBBF0CA
:103FA00018D1060E01010B19D8A42CD037ECBFF0A4
:103FB000000E01018A6F000E60ECBDF04E0E010193
:103FC0008A6F010E01018B6FA7ECB8F0000E0101A2
:103FD0008A6F010E60ECBDF05E0E01018A6F010E6A
:103FE00001018B6FA7ECB8F04E0E01017C6F010E42
:103FF00001017D6F000E01017F6F100E7E6FCBEC13
:10400000BBF0E7D0070E01010B19D8A42CD037EC78
:10401000BFF0000E01018A6F000E60ECBDF05E0E75
:1040200001018A6F010E01018B6FA7ECB8F0000E41
:1040300001018A6F010E60ECBDF02D0E01018A6F47
:10404000000E01018B6FA7ECB8F05E0E01017C6FD2
:10405000010E01017D6F000E01017F6F100E7E6F5A
:10406000CBECBBF0B6D0080E01010B19D8A42CD0B4
:1040700037ECBFF0000E01018A6F000E60ECBDF05E
:104080002D0E01018A6F000E01018B6FA7ECB8F0B5
:10409000000E01018A6F010E60ECBDF03D0E0101C2
:1040A0008A6F000E01018B6FA7ECB8F02D0E010195
:1040B0007C6F000E01017D6F000E01017F6F100EFD
:1040C0007E6FCBECBBF085D0090E01010B19D8A493
:1040D0002CD037ECBFF0000E01018A6F000E60ECAF
:1040E000BDF03D0E01018A6F000E01018B6FA7EC40
:1040F000B8F0000E01018A6F010E60ECBDF0DF0E1A
:1041000001018A6F000E01018B6FA7ECB8F03D0E24
:1041100001017C6F000E01017D6F000E01017F6FB8
:10412000100E7E6FCBECBBF054D00A0E01010B19C0
:10413000D8A42CD037ECBFF0000E01018A6F000E1E
:1041400060ECBDF0DF0E01018A6F000E01018B6F84
:10415000A7ECB8F0000E01018A6F010E60ECBDF013
:10416000670E01018A6F020E01018B6FA7ECB8F098
:10417000DF0E01017C6F000E01017D6F000E010159
:104180007F6F100E7E6FCBECBBF023D00B0E0101C6
:104190000B19D8A41ED037ECBFF0000E01018A6FB6
:1041A000000E60ECBDF0670E01018A6F020E010186
:1041B0008B6FA7ECB8F0670E01017C6F020E010156
:1041C0007D6F000E01017F6F100E7E6FCBECBBF098
:1041D00000D001010B5101010C5DD8B006D0000EDA
:1041E00001010C6F000E01010B6F980E0101D76FDA
:1041F0003A0ED86F000ED96F000EDA6F120012005F
:10420000000E0C6E000E0D6E480E0F6E000E086E46
:10421000000E096E000E0A6E000E0B6E000E0E6E82
:10422000470E0E6401D03FD00E50020DF350012412
:10423000D96EF4500220DA6E800EDE5C700EDE580D
:10424000D8A010D00E50020DF3500124D96EF450B6
:104250000220DA6EDE047D0EDE58D8B003D0020EE6
:1042600012001FD00E50020DF3500124D96EF450ED
:104270000220DA6EDE520A0EDE5CD8A012D00E509A
:10428000020DF3500124D96EF4500220DA6E810E33
:10429000DE5C0C0EDE58D8B004D00EC00FF003D098
:1042A00000D00E2ABDD70F50066E076A061E071EE5
:1042B000064A072A480E0626000E072207BE06D029
:1042C000075006E1480E065CD8B002D0000E12007E
:1042D0000F2A0F50020DF3500124D96EF450022022
:1042E000DA6E600EDE5C040EDE58D8A00ED00F50E1
:1042F000020DF3500124D96EF4500220DA6EE10E63
