:0400000074EF02F0A7
:10000800FACF66F1FBCF67F1E9CF68F1E0EF02F0D4
:10001800D8CF64F0E8CF65F0E0CF66F0FACF67F0AC
:10002800FBCF68F0E9CF69F0EACF6AF0E1CF6BF077
:10003800E2CF6CF0D9CF6DF0DACF6EF0F3CF6FF07E
:10004800F4CF70F0F6CF71F0F7CF72F0F8CF73F00D
:10005800F5CF74F0F29C9EAA50D19D9AAB98000EF1
:100068000001EA6F000EE96F000E0001EC6FA7ECCB
:1000780006F00001ED6F3E0E0001F219D8A40BD076
:100088003E0E0001ED19D8A406D00001F351D8A402
:1000980002D000F02ED10A0E0001ED19D8B4D1D04B
:1000A8000D0E0001ED19D8B4CCD07F0E0001ED196A
:1000B800D8B405D0080E0001ED19D8A487D00001E6
:1000C800F351D8B416D1FC0E0C6EFF0E0D6E5FEC1A
:1000D800BBF0000E0001EA6F000EE96F0AD04E0E69
:1000E8000C6EF90E0D6E5FECBBF00001E94BEA2BCC
:1000F80000D00001F3510001606F616B0001E9510C
:100108000001605D00016151800A0001626F000119
:10011800EA51800A00016259D8B0E1D7FC0E0C6E92
:10012800FF0E0D6E5FECBBF0D10E0C6EF40E0D6E73
:100138005FECBBF00001F3070001F351010D750EF0
:10014800F324D96E000EF420DA6E000EDF6E750E01
:100158000C6E000E0D6E5FECBBF00F0E0001F3612C
:10016800C8D0000E0001EC6F0E0E0001EC6501D046
:1001780017D00001EC51010D750EF324D96E000E55
:10018800F420DA6E0001EC51010DD90EF324E16E72
:10019800000EF420E26EDFCFE7FF0001EC2BE4D77E
:1001A80029EC08F0000E0F6E000E20EC07F03E0E52
:1001B8001EEC08F0010E0F6E000E20EC07F0D90EB1
:1001C8000F6E000E106E22ECBFF093D00001ED51BF
:1001D800FCEC07F00009D8B48CD0000E086E000EB5
:1001E800096E0001ED5171ECBEF00F0E0001F361D4
:1001F80005D00001ED511EEC08F000D00001F351CC
:10020800010D750EF324D96E000EF420DA6EEDC0E0
:10021800DFFF0001F32B620E0001F3656AD0800E48
:100228000C6EF20E0D6E5FECBBF0750E016E000EDB
:10023800026E000E046E640E036EAEEC05F055D02F
:1002480058D00A0E0001ED19D8B405D00D0E0001E2
:10025800ED19D8A40FD00001F351D8A40BD0750E16
:10026800016E000E026E000E046E640E036EAEEC9C
:1002780005F03FD0000175510001D8A413D000014A
:100288007651D8B40FD0750E096E000E0A6E000EA6
:100298000B6E030E0C6E640E0D6E010E0E6E7FEC6F
:1002A800B9F00FD0750E096E000E0A6E000E0B6EB7
:1002B800030E0C6E640E0D6E000E0E6E7FECB9F020
:1002C80000D029EC08F0000E0F6E000E20EC07F0AD
:1002D8003E0E1EEC08F0750E016E000E026E000E4A
:1002E800046E640E036EAEEC05F0000E0001F36FB1
:1002F80000D09E9A9D8AAB88CFD0F2A0AED0F2965D
:1003080000F000F085EC08F00001EB6F000E000132
:10031800EF6F000EEE6F0001F0510001EB19D8B439
:1003280097D0D6500001EE27000EEF23D7500001DA
:10033800EF27480E0001F1615FD0F294F28AA3EC36
:1003480008F00001F151D8B424D0FE0E0001606F0E
:10035800FF0E0001616F0001F1510001626F636BD4
:10036800D8900001623763370001605100016227AD
:100378000001615100016323640E00016225D96EFA
:10038800040E00016321DA6EEEC0DEFFEFC0DDFF70
:1003980000D0800E0001EE5D700E0001EF59D8A06C
:1003A80028D00001EE057D0E0001EF59D8B021D00C
:1003B800020E0001F86F0001F4510001F51100016F
:1003C800F6110001F711D8B40FD0F80E476E000EE1
:1003D800486EF4C049F0F5C04AF0F6C04BF0F7C0DB
:1003E8004CF0DEECB0F000D0EEC064F4EFC065F481
:1003F80000D00001F12B00D0480E0001F119D8A45B
:1004080027D0F294F29A640E016E040E026EF40E76
:10041800036E000E046E010E056EE5ECA2F00001FD
:10042800F86F0001F851D8B40FD0F80E476E000EDF
:10043800486EF4C049F0F5C04AF0F6C04BF0F7C07A
:100448004CF0DEECB0F000D0000E0001F16F00D0EF
:10045800EBC0F0F0F290F2861FD0F2A40FD0640E39
:10046800016E040E026EF1C003F0046A0EEC05F092
:10047800000E0001F16FF294F29A0ED0F2A203D0AE
:10048800F292F29809D09EA005D0F4ECA0F09E90CC
:100498009D8002D000F000D0F28C74C0F5FF73C0CC
:1004A800F8FF72C0F7FF71C0F6FF70C0F4FF6FC0AD
:1004B800F3FF6EC0DAFF6DC0D9FF6CC0E2FF6BC0FE
:1004C800E1FF6AC0EAFF69C0E9FF68C0FBFF67C0D7
:1004D800FAFF66C0E0FF65C0E8FF64C0D8FF1000FF
:1004E800C5EFBAF0000E0101826F000E816F0101A5
:1004F8007F698069020E0101766F680E0DECAEF01F
:1005080076C181F177C182F1010182BF15D0010165
:1005180081BD16D00101818D020E0101766F81C166
:1005280077F1680E79ECB5F001017E6F01017E511B
:1005380001017F6F806B04D001017F69806900D061
:10054800010180AF12008EEC07F0120012000101C9
:10055800876F000EC26E0A0E010187650ED0950ED8
:1005680001017F6FF50E0101806F24ECBAF0000ED7
:100578000101846F000E836F120001018745E84670
:10058800FC0BC212A00EC012060EC012C2809D9CA7
:10059800C28200D0C2B2FED7C4500101866F856BFB
:1005A800C350010185250101836F000E01018621D9
:1005B8000101846F12001200EACF69F1E1CF6AF1FC
:1005C800E2CF6BF1D9CF6CF1DACF6DF1F3CF6EF1E9
:1005D800F4CF6FF1F6CF70F1F7CF71F1F8CF72F178
:1005E800F5CF73F173C1F5FF72C1F8FF71C1F7FF61
:1005F80070C1F6FF6FC1F4FF6EC1F3FF6DC1DAFF82
:100608006CC1D9FF6BC1E2FF6AC1E1FF69C1EAFFB2
:1006180068C1E9FF67C1FBFF66C1FAFF1100000E60
:1006280001017A6F000E0101796F74C177F175C10C
:1006380078F1000E01017A6F070E01017A6501D089
:100648000CD0010177A102D00101792B0101D890CA
:100658007833773301017A2BEFD7030E010176192E
:10066800D8A407D0010179B102D0010E1200000E02
:100678001200010179A102D0010E1200000E120031
:10068800120027D0B2EC07F074C1D9FF75C1DAFFA8
:10069800DF6E0101744B752B00D0C5B6FED7A1A63D
:1006A80002D0FF0E1200C6500F0B080AD8B405D0AE
:1006B800C6500F0B0B0AD8A40CD0010176510101CA
:1006C800D8B407D0C59AC58800D0C5A802D0FDD730
:1006D80000D00101760701017629D8A4D3D7000EEE
:1006E80012001200000E01017B6F000E01017B6FEA
:1006F80012D001017B51020DF35001017425D96E0E
:10070800F45001017521DA6E000EDE6E000EDD6E0A
:1007180001017B2B00D001017B510101786F796BBE
:10072800010176510101785D01017951800A0101C9
:100738007A6F01017751800A01017A59D8A0D9D777
:1007480012009592959495909280949494929684A0
:100758009692949694988B96C80E0101746F000E29
:10076800756F000E766F000E776FC6ECBFF094863B
:10077800F80E8C168D928B9292969298929A9690E9
:100788009598959E959C959AC70E89161F0E8C165E
:100798008D9093889380D08EF28CF28E1200000E8A
:1007A80001017B6F000E01017B6F10D001017B51AD
:1007B800010DF35001017425D96EF4500101752122
:1007C800DA6E000EDF6E01017B2B00D001017B5138
:1007D8000101786F796B010176510101785D0101A2
:1007E8007951800A01017A6F01017751800A01016C
:1007F8007A59D8A0DBD71200000E01018A6F000ECB
:1008080001017A6F400E7B6F9C0E7C6F000E7D6F2E
:1008180088C174F189C175F1030E0101776FE80E83
:10082800766F07EC06F0010174C17EF1010175C114
:100838007FF10101806B816BA4ECAEF001017A05B8
:1008480001018A6F8AC1CBFF120010ECACF077C1AE
:10085800A1F178C1A2F179C1A3F17AC1A4F1040E82
:1008680064EC07F0010177510101A56F050EEDEC6D
:10087800A9F077C1A6F178C1A7F179C1A8F17AC129
:10088800A9F121EEA1F001EE98F0080EDBCFEBFF05
:10089800E806FCE212001200000E0101776F000E5C
:1008A800766F000E0101776F000E766F01017751A8
:1008B8000BE1800E0101765DD8B006D001017651BA
:1008C80001017711D8A406D0000E0101776F7F0EC1
:1008D800766F00D076C1C8FF800E0101746F080ED4
:1008E800A0EC07F01200000E066E000E076E000E58
:1008F800086E000E096E0FD0000E0A6E280E0A64EC
:1009080001D003D000F00A2AF9D71F0E0626000EE0
:100918000722082209220150065C0250075803509A
:1009280008580950800A056E0450800A0558D8A056
:10093800E3D71200000E01017F6F000E7E6F000EDC
:100948000101806F000E0101766F680E0DECAEF0AC
:1009580076C17EF177C17FF1000E0101766F01014A
:100968007E517F0B0101776F680E79ECB5F00101BC
:10097800806F010180AF12008EEC07F012001200A8
:10098800000E076E000E066E01C004F002C005F0EE
:10099800000E076E070E076401D007D004B0062AC0
:1009A800D89005320432072AF5D7030E0318D8A4C5
:1009B80006D006B002D0010E1200000E120006A0EA
:1009C80002D0010E1200000E12001200F19EF190EA
:1009D80077EC08F00001F06F08EC08F0640E0101F4
:1009E800746F040E0101756F000E0101776F480ED8
:1009F800766F76EC03F0000E0001F46F000EF56FD1
:100A0800000EF66F000EF76FB5EC08F0F294F29A4C
:100A1800F2861200000E086E000E086E0ED0085006
:100A2800020DF3500124D96EF4500220DA6E000E44
:100A3800DE6E000EDD6E082A00D00850056E066ACC
:100A48000350055C0650800A076E0450800A075858
:100A5800D8A0E5D71200000EF2BE010E0101776F93
:100A680001017551030BAA6E74C1A9FF76C1A8FFD5
:100A7800A69EA69CA684F29E13EC08F0A68200D03F
:100A8800A6B2FED7A694010177510101D8B412008D
:100A9800F28E1200120001017E6F01017E518C124C
:100AA800C10E0101746F020E756F000E766F000E95
:100AB800776FC6ECBFF001017E51FF0A8C16760EE7
:100AC8000101746F070E756F000E766F000E776F59
:100AD800C6ECBFF0120001017E6F01017E518C123D
:100AE800A30E0101746F070E756F000E766F000E6E
:100AF800776FC6ECBFF001017E51FF0A8C16C10E5C
:100B08000101746F020E756F000E766F000E776F1D
:100B1800C6ECBFF012000101836F0101835101018E
:100B2800D8A402D0000E01D0400E0101846F00D07D
:100B3800010182510101841301011251D8A412004C
:100B4800000E01017E6F010184518009D0ECB2F0E2
:100B580012001200000E086E000E086E0CD008502D
:100B6800010DF3500124D96EF4500220DA6E000E04
:100B7800DF6E082A00D00850056E066A0350055C2F
:100B88000650800A076E0450800A0758D8A0E7D795
:100B98001200000EF2BE010E0101766FA69EA69C01
:100BA80001017551030BAA6E74C1A9FFF29EA680BC
:100BB80000D0A6B0FED700F000F001017651010187
:100BC800D8A4F28EA8CF74F10101756B120029EC3C
:100BD80004F021EEAAF0080EEBCFDBFFE806FCE2FA
:100BE800AAC100F1ABC101F1ACC102F1ADC103F181
:100BF800AEC104F1AFC105F1B0C106F1B1C107F151
:100C0800B2C108F112000101745101017603F3CF5A
:100C180078F1F4CF79F10101745101017703F350B0
:100C2800010179270101755101017603F350010192
:100C3800792778C174F179C175F112001200000E9C
:100C4800F2BE010E046E0250030BAA6E01C0A9FF8A
:100C580003C0A8FFA69EA69CA684F29E3FEC08F0BF
:100C6800A68200D0A6B2FED7A6940450D8B412002B
:100C7800F28E12001200EFEC07F0000E0101826FF5
:100C8800010E8FEC05F086C182F187C183F135EC46
:100C9800BEF0010E0101126F000E0101C76F000EB8
:100CA800C86F000EC96F000ECA6F12000101796F7C
:100CB800000E0101756F040E746F79C176F12FEC87
:100CC80005F0C3EC07F00101786F010179510101CA
:100CD8007819D8A402D0010E1200000E12001200DA
:100CE800F20E01011517ABAC07D001011591ABA0AD
:100CF80003D00101158100D0ABA402D001011585F4
:100D0800ABA202D001011587AECF74F10101745175
:100D1800120012008C8EC40E0101746F090E756FDB
:100D2800000E766F000E776FC6ECBFF08C9EC40E77
:100D38000101746F090E756F000E766F000E776FE4
:100D4800C6ECBFF01200F20E01011517ABAC07D0CC
:100D580001011591ABA003D00101158100D0ABA40E
:100D680002D001011585ABA202D001011587AECFD3
:100D780001F0015012001200000EF2BE010E036EC7
:100D8800A69EA69C0250030BAA6E01C0A9FFF29E64
:100D9800A68000D0A6B0FED700F000F00350D8A47B
:100DA800F28EA8CF01F0026A1200000E0101896FCD
:100DB8003C0E886F00EC04F0000E22ECB8F0FC0E3C
:100DC800CA1605D000F005D002D0CA8002D0CA8861
:100DD80000D0CA840C0EBD12120001017F6F010100
:100DE8007F510101746F756B766B8E0E0101776F01
:100DF800000E0101786FCAECAFF074C17CF175C1C7
:100E08007DF176C17EF1120012000101766F000EAD
:100E18000101756F3A0E0101766108D02F0E0101AC
:100E2800766504D0010E0101756F00D075C174F1AB
:100E38000101743112001200106E1050D8A402D0B3
:100E4800000E01D0400E116E00D00F50111201019A
:100E58001251D8A41200000E0B6E1150800944ECF8
:100E6800B6F0120012008C8EC40E016E090E026ECE
:100E7800000E036E000E046E77EC04F08C9EC40E18
:100E8800016E090E026E000E036E000E046E77EC02
:100E980004F012007CC174F17DC175F10101766B1B
:100EA8008E0E0101776F000E0101786FCAECAFF06A
:100EB80074C17CF175C17DF176C17EF1120012001A
:100EC80001017B6F7BC174F10101756BCDEC05F0FD
:100ED8000101745101017C6F01017C510101776F9F
:100EE800786B796B7A6B12001200066E000E026E38
:100EF800040E016E06C003F023EC06F034EC08F093
:100F0800056E06500518D8A402D0010E1200000E76
:100F180012001200C69A94968B96C80E0101746F3F
:100F2800000E756F000E766F000E776FC6ECBFF07F
:100F3800948650EC04F012000101756F3F0EC7163D
:100F4800000EC66E000EC56E01017551C612010174
:100F58007451C71294869488C68A1200C6500F0B23
:100F6800080AD8B405D0C6500F0B0B0AD8A402D073
:100F7800C58600D0C7A0FED7C95012001200000EC7
:100F88000101756F040E746FCDEC05F00101745109
:100F98000101776F01017751120012000101746F8E
:100FA8002F0E0101746506D03A0E0101746102D05A
:100FB800010E1200000E120012000101826F010ED4
:100FC80001017E6F01018251D0ECB2F099EC08F07A
:100FD800FCECBFF01200000E01017E6F010ED0EC98
:100FE800B2F0000E01017E6F020ED0ECB2F01200DA
:100FF800016E1F0E016405D07F0E016002D0010E44
:101008001200000E12001200B3EC08F0F194D59C07
:10101800D59AD596D550F80B0409D56E1200550E01
:10102800A76EAA0EA76EA68200D0A6B2FED700F0C1
:1010380000F012000F6E010E0B6E0F5044ECB6F06C
:101048009EEC08F0ACEC08F01200000E0B6E010EDE
:1010580044ECB6F0000E0B6E020E44ECB6F0120033
:10106800000E026E040E016EC0EC06F00150046E14
:10107800045012001200550EA76EAA0EA76EA68283
:1010880000D0A6B2FED700F000F01200312E305F7B
:10109800445730610000000000000000000000001C
:1010A80000D0C5CF74F11F0E01017417D8B4C7B4AE
:1010B800F8D7120000C174F101C175F102C176F1CF
:1010C80003C177F11200CD8ECD92300ECD129F90D4
:1010D800FCECBFF012009EEC04F076EC02F0020E7D
:1010E800ABEC02F0120081A802D0010E1200000E33
:1010F800120012000101746F000EB86E74C1B8FFBF
:10110800120081A802D0010E1200000E1200120077
:1011180081A002D0010E1200000E12001200000E73
:1011280022ECB8F00C0EBA121200000ECF6E020EAE
:10113800CE6E1200000ECF6E020ECE6E1200000EA2
:10114800D76E020ED66E120000D0D3A6FED71200BC
:10115800CD809E909D801200A86100001900D59E48
:061168001200D58E1200FA
:10ECC00000010000000800000040000000000200F9
:10ECD0000000100000008000000000040000002080
:10ECE00000000000010000000800000040000000DB
:10ECF00000010000000A00000064000000E80300BA
:10ED00000010270000A086010040420F0080969866
:10ED10000000E1F50500CA9A3B0100000010000068
:10ED200000000100000010000000000100000010C1
:10ED300000000000010000001000000000000000C2
:10ED400000000000020000000000000000000000C1
:10ED500001000000000000000000010000000000B1
:10ED600000000000000002000000000000000000A1
:10ED70000000000200000000000000000000000190
:10ED80000000000000000000000200000000000081
:10ED9000000000000001000000000101000100006F
:10EDA000000000000100000001000101000100005E
:10EDB000000000010000000001000101000100014D
:10EDC0000000000000000000000001010001000040
:10EDD000010000000000000000000101000100002F
:10EDE000000001000000000000000101000100001F
:10EDF000000100000000000000000101000100000F
:10EE000000000000010001000000010100010000FD
:10EE100000000001000001000000010100010000ED
:10EE200000000000010000000000010100010000DE
:10EE300000000001000000000002020202020200C5
:10EE400000010000000002020202020000010000B6
:10EE500000020002020202000001000000546F20C4
:10EE60007265616420616E6420616463206368611F
:10EE70006E6E656C2C2074797065207468652063F3
:10EE80006F6D6D616E640D0A2041444320666F6CA6
:10EE90006C6F77656420627920274368616E6E65C8
:10EEA0006C27200D0A00546F20636F6D6D616E64D6
:10EEB00020746865205254432C2074797065207446
:10EEC000686520616374696F6E0D0A20666F6C6CF3
:10EED0006F77656420627920746865207061726163
:10EEE0006D6574657273200D0A0A00546F20636F9C
:10EEF0006E74726F6C20612064657669636520654D
:10EF00006E74657220746865206465766963652037
:10EF1000666F6C6C6F77656420627920273D2720CF
:10EF2000616E6420274F6E2F4F6666270D0A0054CE
:10EF30006F207365742074652050574D206272698C
:10EF40006768746E65737320656E746572202752EE
:10EF50006564204C4544206272696768746E65730D
:10EF600073203D20647574796379636C65270D0A9D
:10EF700000546F2073657420436F6E7472617374F4
:10EF80002050574D206272696768746E65737320F4
:10EF9000656E7465722027436F6E7472617374209E
:10EFA0003D20647574796379636C65270D0A00668A
:10EFB00075727468657220737562206D656E757305
:10EFC00020617661696C61626C6520627920656E92
:10EFD000746572696E672074686520616374696F17
:10EFE0006E20616E64206120273F2700537973747F
:10EFF000656D20426175642077696C6C20626520C4
:10F0000073657420746F20256C752077697468208F
:10F010004576656E20706172697479206269740D3D
:10F020000A004572726F723A20436F756C64206EED
:10F030006F74206275726E2064656661756C7420F1
:10F0400042617564207261746520696E746F204D31
:10F05000656D6F72790D0A0053797374656D204286
:10F060006175642077696C6C20626520736574201B
:10F07000746F20256C752077697468204F64642054
:10F08000706172697479206269740D0A0053797332
:10F0900074656D20426175642077696C6C206265CF
:10F0A0002073657420746F20256C752077697468EF
:10F0B000206E6F20706172697479206269740D0A24
:10F0C00000466F72204465766963652068656C70E0
:10F0D00020656E7465722064657669636520666F6D
:10F0E0006C6C6F776564206279206120273F272050
:10F0F0000D0A007265646C656420776861743F3F37
:10F100003F20446F20796F75206D65616E205265D8
:10F1100064204C6564204272696768746E6573731D
:10F120003F3F3F00496E76616C696420436F6E74A7
:10F13000726173742044757479206379636C653AE5
:10F140002047726561746572207468616E20313089
:10F15000300D0A0053797374656D20426175642027
:10F1600077696C6C2062652073657420746F20254C
:10F170006C752077697468205370616365206269DB
:10F18000740D0A0053797374656D204261756420B3
:10F1900077696C6C2062652073657420746F20251C
:10F1A0006C752077697468204D61726B2062697498
:10F1B0000D0A004572726F723A20436F756C6420BD
:10F1C0006E6F74206275726E20495220436F6465C1
:10F1D00020696E746F204D656D6F72790D0A00495C
:10F1E0006E76616C696420436F6E74726173742013
:10F1F00044757479204379636C653A204C65737368
:10F20000207468616E20300D0A0077686572652091
:10F2100074686520647574796379636C65206973BB
:10F220002061206E756D6265722030202D20313096
:10F23000300D0A00496E76616C69642044757479FA
:10F240006379636C653A20477265617465722074F6
:10F2500068616E203130300D0A0043687269737442
:10F260006D6173205472656520436F6C6F726564C5
:10F27000204C696768747320546F67676C6564001D
:10F280000D0A427566666572206F766572666C6FF0
:10F2900077212044656C6574696E672042756666E7
:10F2A0006572200D0A00692E652E2043687269730D
:10F2B000746D617320436F6C6F726564206C696755
:10F2C000687473203D204F6E0D0A00456E746572A0
:10F2D0002054696D65204D4D2F44442F59592048C5
:10F2E000483A4D4D3A535320414D206F720D0A005C
:10F2F000203320566F6C7420525443204261747442
:10F3000065727920566F6C74616765203D202564B5
:10F310002E256400253032642F253032642F3230A0
:10F320002530326420253032643A253032643A2563
:10F3300030326420414D00253032642F2530326454
:10F340002F32302530326420253032643A25303275
:10F35000643A2530326420504D00456E7465722049
:10F3600054696D65204D4D2F44442F59592048480C
:10F370003A4D4D3A535320504D0D0A00496E766177
:10F380006C696420447574796379636C653A204CC8
:10F39000657373207468616E20300D0A00466F72C9
:10F3A0006D6174206973204D4D2F44442F595920AD
:10F3B00048483A4D4D3A535320414D0D0A0045728D
:10F3C000726F723A206F6E6C7920757365206F6E64
:10F3D0006520657175616C207369676E0D0A002583
:10F3E0003032642F253032642F32302530326420A1
:10F3F000253032643A253032643A25303264004395
:10F400006F6E7472617374204475747920437963EC
:10F410006C652073657420746F2025640D0A0043A9
:10F4200068726973746D61732054726565205768E2
:10F43000697465204C6967687473204F6666004381
:10F4400068726973746D61732054726565205768C2
:10F45000697465204C6967687473204F6E0045724B
:10F46000726F723A204E6F206E65676174697665BF
:10F47000206368616E6E656C730D0A005265616C85
:10F480002054696D6520436C6F636B2048656C7018
:10F49000204D656E750D0A0A004368616E6E656CDD
:10F4A000202564206973206E6F7420636F6E666917
:10F4B0006775726564000D0A456E74657220273F9A
:10F4C0002720666F722048656C70204D656E750D43
:10F4D0000A3E004368726973746D617320747265CB
:10F4E000652048656C70204D656E750D0A0A0045F3
:10F4F00072726F723A20696E2070617273696E6702
:10F5000020636F6D6D616E640D0A007468657265CD
:10F51000206973206E6F207175657374696F6E203A
:10F520006D61726B0D0A00692E652E204A6F65733E
:10F5300020726F6F6D206C69676874203D204F6E7C
:10F540000D0A000D0A54696D65204E6F74205365D5
:10F5500074205375636365737366756C6C790045CD
:10F5600072726F723A204E6F206E756D62657220F6
:10F57000656E74657265640D0A00692E652E204CF7
:10F580006976696E67726F6F6D2066616E203D20CF
:10F590004F6E0D0A00414443204368616E6E656CF6
:10F5A000204F7574206F6620426F756E6473004340
:10F5B0006F6E74726173742050574D2048656C7083
:10F5C000204D656E750D0A0A000D0A54696D65209F
:10F5D000536574205375636365737366756C6C79DA
:10F5E0000D0A00526564204C45442050574D204878
:10F5F000656C70204D656E750D0A0A000D0A496E26
:10F6000076616C69642054696D6520456E7465721D
:10F6100065640D0A004C6976696E67726F6F6D20C4
:10F620004C6967687420546F67676C6564004C6947
:10F6300076696E67726F6F6D2048656C70204D65DE
:10F640006E750D0A0A004552524F523A2043616EC0
:10F6500027742052656164205254430D0A00692EBC
:10F66000652E20426564726F6F6D2066616E203D6D
:10F67000204F6E0D0A004A6F657320526F6F6D2028
:10F6800048656C70204D656E750D0A0A0025303294
:10F69000642F2530326420253032643A25303264BC
:10F6A00020414D00253032642F2530326420253032
:10F6B00032643A2530326420504D00692E652E2088
:10F6C000204C6976696E67726F6F6D3F0D0A0D0A87
:10F6D00000447574796379636C6520736574207474
:10F6E0006F2025640D0A00426564726F6F6D204CB7
:10F6F0006967687420546F67676C65640053797339
:10F7000074656D2050726F6772616D204661696C1F
:10F710000D0A00426564726F6F6D2048656C702041
:10F720004D656E750D0A0A00692E652E20525443F0
:10F73000205365742054696D653F0D0A0042617560
:10F7400064204F7574206F662072616E67650D0AC4
:10F7500000414443206368616E6E656C202564201F
:10F760003D202564004A6F657320726F6F6D206CB9
:10F7700069676874204F6666006C6976696E6772A7
:10F780006F6F6D6C696768743D6F6666004A6F6580
:10F79000277320726F6F6D206C69676874204F6EDD
:10F7A000004C6976696E67726F6F6D205461736B80
:10F7B0003F3F3F004A6F65277320726F6F6D207760
:10F7C0006861743F3F3F004C6976696E67726F6F86
:10F7D0006D2046616E204F666600426564726F6FF1
:10F7E0006D205368616B6572204F6666006C6976A8
:10F7F000696E67726F6F6D6C696768743D6F6E00DC
:10F8000053797374656D2042617564206973202596
:10F810006C75004669726D7761726520566572730A
:10F82000696F6E3A2000636F6C6F726564206C695B
:10F83000676874730D0A0A00496E76616C6964200A
:10F84000436F6D6D616E640D0A0043687269737475
:10F850006D617320576861743F3F3F006C69766942
:10F860006E67726F6F6D66616E3D6F666600626592
:10F8700064726F6F6D7368616B65723D6F66660071
:10F880006A6F6573726F6F6D6C696768743D6F66E0
:10F8900066004C6976696E67726F6F6D2046616EA7
:10F8A000204F6E00426564726F6F6D205368616B0C
:10F8B0006572204F6E00776974686576656E706159
:10F8C0007269747962697400303132333435363795
:10F8D00038394142434445460030313233343536BD
:10F8E0003738396162636465660041444320486586
:10F8F0006C70204D656E750D0A0A004C4544204819
:10F90000656C70204D656E750D0A0A0043686E6C5B
:10F910002073657420746F2025640D0A004368729B
:10F920006973746D617320547265650D0A00692EE8
:10F93000652E204C454431203D204F6E0D0A00526B
:10F9400054432054696D652069733A2020202000BB
:10F95000626564726F6F6D6C696768743D6F66662F
:10F96000005254432069736E7420776F726B696E16
:10F9700067006C6976696E67726F6F6D66616E3D68
:10F980006F6E00626564726F6F6D7368616B657234
:10F990003D6F6E006A6F6573726F6F6D6C6967683B
:10F9A000743D6F6E007265646C656462726967684D
:10F9B000746E65737300776974686F6464706172E4
:10F9C00069747962697400526564204C454420432F
:10F9D0006F6E7472617374005374617274696E67D0
:10F9E0002E2E2E2E2E2E2E2E004552523A20434ED3
:10F9F0005354203E20313030004552523A20447555
:10FA00007479203E20313030004C564E4720526DE4
:10FA1000205461736B3F3F3F00426564726F6F6DAE
:10FA2000205461736B3F3F3F00426564726F6F6D9E
:10FA30002048656C703F3F3F00526564204C454450
:10FA400020576861743F3F3F004A6F6520726F6FB7
:10FA50006D20776861743F3F004368726973746D0D
:10FA6000617320547265653F00584D415320436FC8
:10FA70006C6F722054474C44004C564E4720526DD8
:10FA8000204C742054474C4400426564726F6F6D83
:10FA9000204C742054474C44005254432042747903
:10FAA000203D2025642E256400496E76616C6964D2
:10FAB00020436F6D6D616E64004552523A20436180
:10FAC0006E7420706172736500426564726F6F6D51
:10FAD00020534B52204F666600426564726F6F6D13
:10FAE0002046616E204F6666004A6F6520726F6F18
:10FAF0006D206C74204F6666004552523A20557353
:10FB000065202B2043686E6C00626564726F6F6DB8
:10FB10006C696768743D6F6E006261756477696CCB
:10FB20006C6265736574746F004C564E4720526D5D
:10FB3000204C742068656C7000776974686E6F7013
:10FB40006172697479626974005374617274696E68
:10FB5000672E2E2E2E2E2E2E0043757272656E7419
:10FB60002054696D650D0A007768697465206C69B9
:10FB7000676874730D0A00434E53542073657420F4
:10FB8000746F202564004475747920736574207443
:10FB90006F20256400584D415320576869746520D3
:10FBA0004F6666004C564E4720526D204C74204FD5
:10FBB000666600426564726F6F6D204C74204F66FC
:10FBC0006600626564726F6F6D66616E3D6F66663A
:10FBD00000426564726F6F6D20534B52204F6E0070
:10FBE000426564726F6F6D2046616E204F6E004AF1
:10FBF0006F6520726F6F6D206C74204F6E004552E0
:10FC0000523A204E6F206E756D62657200455252F9
:10FC10003A206E6F206E756D62657200537461726A
:10FC200074696E672E2E2E2E2E2E004552523A20CB
:10FC3000434E5354203C2030004552523A204475E4
:10FC40007479203C203000446576696365204D65F9
:10FC50006E75733A00656E74657262617564726187
:10FC6000746500584D4153205768697465204F6E84
:10FC7000004C564E4720526D204C74204F6E00426F
:10FC80006564726F6F6D204C74204F6E0062656406
:10FC9000726F6F6D66616E3D6F6E004A6F652072A8
:10FCA0006F6F6D204D656E75004C564E47726F6FCD
:10FCB0006D204D656E75005374617274696E672EA8
:10FCC0002E2E2E2E004572723A2042617564204D10
:10FCD000656D00692E652E2041444320300D0A00D9
:10FCE0004C6976696E67726F6F6D0D0A00525443EE
:10FCF00020576861743F3F3F0A004552523A2055F1
:10FD000073652031203D00584D4153205768617480
:10FD10003F3F3F0043686E6C202564203D202564F2
:10FD2000004C45443020546F67676C6564004C4557
:10FD3000443120546F67676C656400776974687339
:10FD400070616365626974004C434420436F6E7454
:10FD50007261737400426564726F6F6D204D656EE1
:10FD600075005374617274696E672E2E2E2E0044D6
:10FD70006576696365733A0D0A0A004368616E6EC1
:10FD8000656C733A0D0A004A6F657320726F6F6D70
:10FD90000D0A004C6976696E67726F6F6D3F007770
:10FDA0006974686D61726B62697400537461727416
:10FDB000696E672E2E2E00446576696365733A0D71
:10FDC0000A00416374696F6E733A0D0A00436F6EE7
:10FDD00074726173740D0A004A6F657320526F6FFD
:10FDE0006D3F006368616E676562617564006C6990
:10FDF00076696E67726F6F6D005374617274696EAD
:10FE0000672E2E007368616B65720D0A0A004265E9
:10FE100064726F6F6D0D0A00426174746572790DC2
:10FE20000A00526564204C45443D2300436F6E74C4
:10FE3000726173742300436F6D6D616E64733A0079
:10FE4000436F6E74726173743F0042415544203DAC
:10FE5000202564006368726973746D617300584D86
:10FE60004153204D656E750048656C70204D656E80
:10FE70007500456E74657220273F270053746172C8
:10FE800074696E672E004C696768740D0A0A004435
:10FE90006576696365733A00426564726F6F6D3FA2
:10FEA000004C454430204F6666004C454431204F9D
:10FEB0006666006C6564303D6F6666006C65643133
:10FEC0003D6F666600636F6E7472617374004144C7
:10FED00043204D656E7500525443204D656E75008C
:10FEE0004C4544204D656E75005374617274696EA3
:10FEF00067004C4544310D0A0A00426175640D0AE1
:10FF00000A006C696768740D0A0073657462617534
:10FF10006400626564726F6F6D004C454430204F21
:10FF20006E004C454431204F6E006C6564303D6F6F
:10FF30006E006C6564313D6F6E007265736574743C
:10FF40006F004261747465727900626174746572E5
:10FF5000790066616E0D0A0A005365740D0A0A0085
:10FF60004C4544300D0A00526561640D0A0072650B
:10FF7000646C6564005368616B65720062617564EE
:10FF80006973004144430D0A0066616E0D0A004228
:10FF90006175643F00626175643F007768697465EC
:10FFA00000636F6C6F72004C69676874006C6967FE
:10FFB000687400300D0A0A004C454430006C6564DA
:10FFC00030004C454431006C656431004144433F8E
:10FFD000005254433F0052656164007265616400E1
:10FFE00061646300727463006A6F650046616E004D
:10FFF00066616E0053657400736574000D00000047
:020000040001F9
:10000000000E0601DB6F140EDA6F000E0601C96FD9
:10001000000EC86F000E0601CB6F000ECA6F000EF7
:100020000601CD6F000ECC6F000E0601D36F000EDF
:10003000D26F000E0601DD6F000EDC6F000E0601B0
:10004000D96F000ED86F000E0601CE6F000ECF6F75
:10005000000ED06F000ED16F000E0601D46F000E9F
:10006000D56F000ED66F000ED76FE70E01017F6FC0
:10007000EE0E0101806F24ECBAF0C2C174F1C3C16D
:1000800075F1F4ECBBF0C2C183F1C3C184F112EC91
:10009000BBF0C2C174F1C3C175F1D10E0101766F1D
:1000A000F40E0101776F02ECBDF00009D8B404D062
:1000B000000E12007CEF93F0C2C174F1C3C175F160
:1000C000710E0101766FFF0E0101776FAAECBBF094
:1000D0000009D8B441D1C2C174F1C3C175F1170E82
:1000E0000101766FFA0E0101776FC2ECBCF00009D6
:1000F000D8A4E0D0C2C174F1C3C175F1BD0E010135
:10010000766FFF0E0101776F02ECBDF00009D8B4E5
:1001100014D0020E8C1A210E01017F6FFD0E010119
:10012000806F24ECBAF0210E0101866FFD0E0101F3
:10013000876F3FEC06F07CEF93F0C2C174F1C3C14E
:1001400075F12A0E0101766FFF0E0101776F02EC47
:10015000BDF00009D8B413D08C821A0E01017F6F54
:10016000FF0E0101806F24ECBAF01A0E0101866FB8
:10017000FF0E0101876F3FEC06F07CEF93F0C2C1E8
:1001800074F1C3C175F1B30E0101766FFE0E01016A
:10019000776F02ECBDF00009D8B413D08C92A10E99
:1001A00001017F6FFE0E0101806F24ECBAF0A10EF9
:1001B0000101866FFE0E0101876F3FEC06F07CEFB8
:1001C00093F0C2C174F1C3C175F1C70E0101766F1E
:1001D000FF0E0101776F02ECBDF00009D8B414D016
:1001E000040E8C1A2E0E01017F6FFD0E0101806F2F
:1001F00024ECBAF02E0E0101866FFD0E0101876F0F
:100200003FEC06F07CEF93F0C2C174F1C3C175F10D
:10021000320E0101766FFF0E0101776F02ECBDF027
:100220000009D8B413D08C84220E01017F6FFF0E19
:100230000101806F24ECBAF0220E0101866FFF0EDF
:100240000101876F3FEC06F07CEF93F0C2C174F1BF
:10025000C3C175F1BC0E0101766FFE0E0101776F0F
:1002600002ECBDF00009D8B413D08C94AA0E0101A1
:100270007F6FFE0E0101806F24ECBAF0AA0E01011F
:10028000866FFE0E0101876F3FEC06F07CEF93F066
:100290003D0E01017F6FFA0E0101806F24ECBAF070
:1002A0003D0E0101866FFA0E0101876F3FEC06F0EB
:1002B0007CEF93F0FB0E01017F6FF80E0101806F60
:1002C00024ECBAF0B70E01017F6FFD0E0101806FC3
:1002D00024ECBAF0600E01017F6FFF0E0101806F08
:1002E00024ECBAF0F20E01017F6FFE0E0101806F67
:1002F00024ECBAF0EB0E01017F6FEE0E0101806F6E
:1003000024ECBAF02E0E01017F6FF90E0101806F0F
:1003100024ECBAF0E00E0101836FFE0E0101846F40
:100320002AECA7F08F0E0101836FFE0E0101846F8E
:100330002AECA7F0B80E0101836FFF0E0101846F54
:100340002AECA7F0C20E0101836FFF0E0101846F3A
:100350002AECA7F07CEF93F0C2C174F1C3C175F130
:10036000EE0E0101766FFD0E0101776FAAECBBF076
:100370000009D8B4CBD1C2C174F1C3C175F1170E55
:100380000101766FFA0E0101776FC2ECBCF0000933
:10039000D8A462D1C2C174F1C3C175F1ED0E0101DF
:1003A000766FF70E0101776F02ECBDF00009D8A45B
:1003B0000FD0C2C174F1C3C175F1790E0101766F1E
:1003C000F70E0101776F02ECBDF00009D8B453D0ED
:1003D000F29E390E01017F6FEE0E0101806F010E5A
:1003E000A4ECB4F0390E01017F6FEE0E0101806FB5
:1003F000010EA4ECB4F0390E01017F6FEE0E010185
:10040000806F010EA4ECB4F0390E01017F6FEE0E87
:100410000101806F010EA4ECB4F0390E01017F6F71
:10042000EE0E0101806F010EA4ECB4F0390E010153
:100430007F6FEE0E0101806F010EA4ECB4F0390E57
:1004400001017F6FEE0E0101806F010EA4ECB4F08C
:10045000F28E150E01017F6FF60E0101806F24EC04
:10046000BAF0790E0101866FFA0E0101876F3FEC39
:1004700006F07CEF93F0C2C174F1C3C175F1720E46
:100480000101766FF90E0101776F02ECBDF00009F2
:10049000D8B45CD0F29E290E01017F6FEE0E0101EF
:1004A000806F010E80ECBCF0290E01017F6FEE0E13
:1004B0000101806F010E80ECBCF0290E01017F6FFD
:1004C000EE0E0101806F010E80ECBCF0290E0101DF
:1004D0007F6FEE0E0101806F010E80ECBCF0290EE3
:1004E00001017F6FEE0E0101806F010E80ECBCF008
:1004F000290E01017F6FEE0E0101806F010E80EC6D
:10050000BCF0290E01017F6FEE0E0101806F010E1C
:1005100080ECBCF0290E01017F6FEE0E0101806FAF
:10052000010E80ECBCF0F28E920E01017F6FF80E8E
:100530000101806F24ECBAF0710E0101866FFC0E90
:100540000101876F3FEC06F07CEF93F0C2C174F1BC
:10055000C3C175F15C0E0101766FF80E0101776F72
:1005600002ECBDF00009D8B465D0F29E190E01016D
:100570007F6FEE0E0101806F010E80ECBCF0190E52
:1005800001017F6FEE0E0101806F010E80ECBCF067
:10059000190E01017F6FEE0E0101806F010E80ECDC
:1005A000BCF0190E01017F6FEE0E0101806F010E8C
:1005B00080ECBCF0190E01017F6FEE0E0101806F1F
:1005C000010E80ECBCF0190E01017F6FEE0E0101EF
:1005D000806F010E80ECBCF0190E01017F6FEE0EF2
:1005E0000101806F010E80ECBCF0190E01017F6FDC
:1005F000EE0E0101806F010E80ECBCF0190E0101BE
:100600007F6FEE0E0101806F010E80ECBCF0F28E68
:10061000C70E01017F6FF70E0101806F24ECBAF065
:10062000A40E0101866FFB0E0101876F3FEC06F0FF
:100630007CEF93F0A10E01017F6FF70E0101806F37
:1006400024ECBAF0090E0101866FFA0E0101876FE2
:100650003FEC06F07CEF93F02E0E01017F6FF60E5B
:100660000101806F24ECBAF0B70E01017F6FFD0E1F
:100670000101806F24ECBAF0020E01017F6FFF0EC2
:100680000101806F24ECBAF0520E01017F6FFF0E62
:100690000101806F24ECBAF0EB0E01017F6FEE0ECA
:1006A0000101806F24ECBAF07A0E01017F6FF50E24
:1006B0000101806F24ECBAF0290E0101866FFB0E58
:1006C0000101876F3FEC06F0A90E0101836FFC0E5C
:1006D0000101846F2AECA7F08F0E0101836FFE0EDB
:1006E0000101846F2AECA7F0A70E0101836FFF0EB2
:1006F0000101846F2AECA7F0EC0E0101836FFF0E5D
:100700000101846F2AECA7F07CEF93F0C2C174F171
:10071000C3C175F1120E0101766FFF0E0101776FF3
:10072000AAECBBF00009D8B4D0D2C2C174F1C3C1E5
:1007300075F1170E0101766FFA0E0101776FC2ECA9
:10074000BCF00009D8A457D2C2C174F1C3C175F17D
:10075000AD0E0101766FFF0E0101776FC2ECBCF0A8
:100760000009D8A40FD0C2C174F1C3C175F1F00E55
:100770000101766FFF0E0101776FC2ECBCF000093A
:10078000D8B427D2C2C174F1C3C175F1090E0101F9
:10079000766FFB0E0101776F02ECBDF00009D8A463
:1007A0000FD0C2C174F1C3C175F1500E0101766F53
:1007B000F90E0101776F02ECBDF00009D8B453D0F7
:1007C000F29E450E01017F6FEE0E0101806F010E5A
:1007D000A4ECB4F0450E01017F6FEE0E0101806FB5
:1007E000010EA4ECB4F0450E01017F6FEE0E010185
:1007F000806F010EA4ECB4F0450E01017F6FEE0E88
:100800000101806F010EA4ECB4F0450E01017F6F71
:10081000EE0E0101806F010EA4ECB4F0450E010153
:100820007F6FEE0E0101806F010EA4ECB4F0450E57
:1008300001017F6FEE0E0101806F010EA4ECB4F098
:10084000F28EE70E01017F6FF60E0101806F24EC3E
:10085000BAF0890E0101866FFA0E0101876F3FEC35
:1008600006F07CEF93F0C2C174F1C3C175F18D0E37
:100870000101766FFC0E0101776F02ECBDF00009FB
:10088000D8B45CD0F29EC90E01017F6FED0E01015C
:10089000806F010E80ECBCF0C90E01017F6FED0E80
:1008A0000101806F010E80ECBCF0C90E01017F6F69
:1008B000ED0E0101806F010E80ECBCF0C90E01014C
:1008C0007F6FED0E0101806F010E80ECBCF0C90E50
:1008D00001017F6FED0E0101806F010E80ECBCF015
:1008E000C90E01017F6FED0E0101806F010E80ECDA
:1008F000BCF0C90E01017F6FED0E0101806F010E8A
:1009000080ECBCF0C90E01017F6FED0E0101806F1C
:10091000010E80ECBCF0F28EE00E01017F6FFB0E49
:100920000101806F24ECBAF07F0E0101866FFC0E8E
:100930000101876F3FEC06F07CEF93F0C2C174F1C8
:10094000C3C175F1C20E0101766FFB0E0101776F15
:1009500002ECBDF00009D8B465D0F29EB90E0101D9
:100960007F6FED0E0101806F010E80ECBCF0B90EBF
:1009700001017F6FED0E0101806F010E80ECBCF074
:10098000B90E01017F6FED0E0101806F010E80EC49
:10099000BCF0B90E01017F6FED0E0101806F010EF9
:1009A00080ECBCF0B90E01017F6FED0E0101806F8C
:1009B000010E80ECBCF0B90E01017F6FED0E01015C
:1009C000806F010E80ECBCF0B90E01017F6FED0E5F
:1009D0000101806F010E80ECBCF0B90E01017F6F48
:1009E000ED0E0101806F010E80ECBCF0B90E01012B
:1009F0007F6FED0E0101806F010E80ECBCF0F28E76
:100A0000D90E01017F6FFA0E0101806F24ECBAF05C
:100A1000B30E0101866FFB0E0101876F3FEC06F0FC
:100A20007CEF93F0C2C174F1C3C175F1830E010173
:100A3000766FF90E0101776F02ECBDF00009D8B4B2
:100A40005CD0F29EE90E01017F6FED0E0101806F17
:100A5000010E80ECBCF0E90E01017F6FED0E01018B
:100A6000806F010E80ECBCF0E90E01017F6FED0E8E
:100A70000101806F010E80ECBCF0E90E01017F6F77
:100A8000ED0E0101806F010E80ECBCF0E90E01015A
:100A90007F6FED0E0101806F010E80ECBCF0E90E5E
:100AA00001017F6FED0E0101806F010E80ECBCF043
:100AB000E90E01017F6FED0E0101806F010E80ECE8
:100AC000BCF0E90E01017F6FED0E0101806F010E98
:100AD00080ECBCF0F28EA40E01017F6FF80E0101D4
:100AE000806F24ECBAF0D10E0101866FFB0E01017C
:100AF000876F3FEC06F07CEF93F0C2C174F1C3C185
:100B000075F16E0E0101766FF80E0101776F02EC40
:100B1000BDF00009D8B47CEF93F0F29ED90E01012C
:100B20007F6FED0E0101806F010E80ECBCF0D90EDD
:100B300001017F6FED0E0101806F010E80ECBCF0B2
:100B4000D90E01017F6FED0E0101806F010E80EC67
:100B5000BCF0D90E01017F6FED0E0101806F010E17
:100B600080ECBCF0D90E01017F6FED0E0101806FAA
:100B7000010E80ECBCF0D90E01017F6FED0E01017A
:100B8000806F010E80ECBCF0D90E01017F6FED0E7D
:100B90000101806F010E80ECBCF0D90E01017F6F66
:100BA000ED0E0101806F010E80ECBCF0F28EDA0ECA
:100BB00001017F6FF70E0101806F24ECBAF0C90EBE
:100BC0000101866FFA0E0101876F3FEC06F07CEFA2
:100BD00093F0190E01017F6FFA0E0101806F24EC72
:100BE000BAF0190E0101866FFA0E0101876F3FEC12
:100BF00006F07CEF93F0130E01017F6FF70E0101F9
:100C0000806F24ECBAF0B70E01017F6FFD0E010179
:100C1000806F24ECBAF0020E01017F6FFF0E01011C
:100C2000806F24ECBAF0890E01017F6FFF0E010185
:100C3000806F24ECBAF0040E01017F6FFE0E0101FB
:100C4000806F24ECBAF0EB0E01017F6FEE0E010114
:100C5000806F24ECBAF05E0E01017F6FF60E010189
:100C6000806F24ECBAF0290E0101866FFA0E0101A3
:100C7000876F3FEC06F0550E0101836FFD0E0101F9
:100C8000846F2AECA7F08F0E0101836FFE0E010125
:100C9000846F2AECA7F0A70E0101836FFF0E0101FC
:100CA000846F2AECA7F0EC0E0101836FFF0E0101A7
:100CB000846F2AECA7F0750E0101836FFF0E01010E
:100CC000846F2AECA7F07CEF93F0C2C174F1C3C12A
:100CD00075F1A10E0101766FFF0E0101776FC2EC75
:100CE000BCF00009D8A41ED0C2C174F1C3C175F113
:100CF0009B0E0101766FFF0E0101776FC2ECBCF015
:100D00000009D8A40FD0C2C174F1C3C175F1540E4B
:100D10000101766FFE0E0101776FC2ECBCF0000995
:100D2000D8B4C6D1C2C174F1C3C175F1170E0101A7
:100D3000766FFA0E0101776FC2ECBCF00009D8A4FF
:100D400065D1C2C174F1C3C175F1A10E0101766F05
:100D5000FF0E0101776FC2ECBCF00009D8B462D07D
:100D6000C2C174F1C3C175F1050E0101766FFD0EAC
:100D70000101776FC2ECBCF00009D8B453D0F29EE9
:100D8000510E01017F6FEE0E0101806F010EA4EC88
:100D9000B4F0510E01017F6FEE0E0101806F010E64
:100DA000A4ECB4F0510E01017F6FEE0E0101806FD3
:100DB000010EA4ECB4F0510E01017F6FEE0E0101A3
:100DC000806F010EA4ECB4F0510E01017F6FEE0EA6
:100DD0000101806F010EA4ECB4F0510E01017F6F90
:100DE000EE0E0101806F010EA4ECB4F0510E010172
:100DF0007F6FEE0E0101806F010EA4ECB4F0F28E55
:100E00005A0E01017F6FF20E0101806F24ECBAF0DF
:100E1000690E0101866FFA0E0101876F3FEC06F043
:100E20007CEF93F0C2C174F1C3C175F19B0E010157
:100E3000766FFF0E0101776FC2ECBCF00009D8B4E9
:100E400062D0C2C174F1C3C175F12E0E0101766F7B
:100E5000FF0E0101776FC2ECBCF00009D8B453D08B
:100E6000F29EA90E01017F6FED0E0101806F010E50
:100E700080ECBCF0A90E01017F6FED0E0101806FC7
:100E8000010E80ECBCF0A90E01017F6FED0E010197
:100E9000806F010E80ECBCF0A90E01017F6FED0E9A
:100EA0000101806F010E80ECBCF0A90E01017F6F83
:100EB000ED0E0101806F010E80ECBCF0A90E010166
:100EC0007F6FED0E0101806F010E80ECBCF0A90E6A
:100ED00001017F6FED0E0101806F010E80ECBCF00F
:100EE000F28E3F0E01017F6FF40E0101806F24EC42
:100EF000BAF0630E0101866FFC0E0101876F3FECB3
:100F000006F07CEF93F0C2C174F1C3C175F19B0E82
:100F10000101766FFF0E0101776FC2ECBCF0000992
:100F2000D8B462D0C2C174F1C3C175F1B70E01016A
:100F3000766FFE0E0101776FC2ECBCF00009D8B4E9
:100F400053D0F29E990E01017F6FED0E0101806F6B
:100F5000010E80ECBCF0990E01017F6FED0E0101D6
:100F6000806F010E80ECBCF0990E01017F6FED0ED9
:100F70000101806F010E80ECBCF0990E01017F6FC2
:100F8000ED0E0101806F010E80ECBCF0990E0101A5
:100F90007F6FED0E0101806F010E80ECBCF0990EA9
:100FA00001017F6FED0E0101806F010E80ECBCF03E
:100FB000990E01017F6FED0E0101806F010E80EC33
:100FC000BCF0F28E1F0E01017F6FF40E0101806FE5
:100FD00024ECBAF0950E0101866FFB0E0101876FBC
:100FE0003FEC06F07CEF93F04A0E01017F6FF80EA4
:100FF0000101806F24ECBAF0070E0101866FFD0E2F
:101000000101876F3FEC06F07CEF93F0D30E0101F6
:101010007F6FF40E0101806F24ECBAF0B70E01016E
:101020007F6FFD0E0101806F24ECBAF0680E0101A4
:101030007F6FFB0E0101806F24ECBAF0260E0101D8
:101040007F6FF80E0101806F24ECBAF0EB0E010106
:101050007F6FEE0E0101806F24ECBAF0A60E010145
:101060007F6FF20E0101806F24ECBAF05E0E010179
:10107000836FFE0E0101846F2AECA7F08F0E010131
:10108000836FFE0E0101846F2AECA7F09B0E010115
:10109000836FFF0E0101846F2AECA7F0A10E0101FE
:1010A000836FFF0E0101846F2AECA7F07CEF93F0B1
:1010B000C2C174F1C3C175F1B20E0101766FF40EB5
:1010C0000101776FAAECBBF00009D8B43CD1C2C1D2
:1010D00074F1C3C175F1170E0101766FFA0E0101AB
:1010E000776FC2ECBCF00009D8A4FBD0C2C174F188
:1010F000C3C175F16E0E0101766FFF0E0101776FAE
:10110000AAECBBF00009D8A40FD0C2C174F1C3C1CE
:1011100075F1A50E0101766FF90E0101776FAAEC4A
:10112000BBF00009D8B4CBD0C2C174F1C3C175F112
:10113000050E0101766FFD0E0101776FC2ECBCF068
:101140000009D8A409D00B0E01017F6FF50E010133
:10115000806F24ECBAF000D0C2C180F1C3C181F12C
:1011600029ECA8F080C1DEF681C1DFF682C1E0F68D
:1011700083C1E1F60601E1BF0DD00601E151060190
:10118000E01110E1E80E0601DE5D030E0601DF59F5
:10119000D8B008D00601E1BF05D0DEC6DCF6DFC658
:1011A000DDF600D0FD0E0601DE191DE10601DF2986
:1011B0001AE10601E02917E17F0E0601E119D8A422
:1011C00012D05F0E01017F6FF50E0101806F24ECDC
:1011D000BAF00D0E0101866FFC0E0101876F3FEC26
:1011E00006F07CEF93F00601DDBF1AD00601DD5159
:1011F00005E1650E0601DC5DD8A012D0340E0101B8
:101200007F6FF20E0101806F24ECBAF0F90E01013C
:10121000866FF90E0101876F3FEC06F07CEF93F0CB
:101220000601DDAF12D07C0E01017F6FF30E0101CC
:10123000806F24ECBAF0390E0101866FFC0E0101BB
:10124000876F3FEC06F07CEF93F00601DC5122EC57
:10125000B8F0000E01018A6F060E01018B6FD10EEE
:1012600001018C6FF60E01018D6FDCC68EF1DDC6BB
:101270008FF187EC93F0000E01017F6F060E0101E4
:10128000806F24ECBAF0000E01018A6F060E010196
:101290008B6F860E01018C6FFB0E01018D6FDCC61A
:1012A0008EF1DDC68FF187EC93F0000E0101866FA1
:1012B000060E0101876F3FEC06F07CEF93F0F30E12
:1012C00001017F6FF00E0101806F24ECBAF0390E3E
:1012D0000101866FFA0E0101876F3FEC06F07CEF8B
:1012E00093F0E30E01017F6FF50E0101806F24EC96
:1012F000BAF02F0E01017F6FEF0E0101806F24EC19
:10130000BAF00A0E01017F6FF20E0101806F24EC2A
:10131000BAF0C70E0101836FF90E0101846F2AEC48
:10132000A7F0360E0101836FFE0E0101846F2AECD7
:10133000A7F0220E0101836FFE0E0101846F2AECDB
:10134000A7F07CEF93F0C2C174F1C3C175F1C50E73
:101350000101766FFE0E0101776FAAECBBF0000968
:10136000D8B40AD1C2C174F1C3C175F1170E01011D
:10137000766FFA0E0101776FC2ECBCF00009D8A4B9
:10138000C9D0C2C174F1C3C175F1050E0101766FF8
:10139000FD0E0101776FC2ECBCF00009D8A407D0A4
:1013A000C2C183F1C3C184F114ECA9F000D0C2C161
:1013B00080F1C3C181F129ECA8F080C1DEF681C1C2
:1013C000DFF682C1E0F683C1E1F60601E1BF0DD090
:1013D0000601E1510601E01110E1E80E0601DE5DB3
:1013E000030E0601DF59D8B008D00601E1BF05D0D1
:1013F000DEC6D8F6DFC6D9F600D0FD0E0601DE192E
:101400001DE10601DF291AE10601E02917E17F0E3F
:101410000601E119D8A412D05F0E01017F6FF50E0D
:101420000101806F24ECBAF0FE0E0101866FFB0E05
:101430000101876F3FEC06F07CEF93F00601D9BF06
:101440001AD00601D95105E1650E0601D85DD8A074
:1014500012D0240E01017F6FF10E0101806F24EC88
:10146000BAF0E90E0101866FF90E0101876F3FECBA
:1014700006F07CEF93F00601D9AF12D0DF0E010128
:101480007F6FF10E0101806F24ECBAF02B0E010189
:10149000866FFC0E0101876F3FEC06F07CEF93F046
:1014A0000601D851E0ECB5F0000E01018A6F060E7E
:1014B00001018B6FFF0E01018C6FF30E01018D6F27
:1014C000D8C68EF1D9C68FF187EC93F0000E0101DA
:1014D0007F6F060E0101806F24ECBAF0000E01014F
:1014E0008A6F060E01018B6F770E01018C6FFB0E68
:1014F00001018D6FDCC68EF1DDC68FF187EC93F0B4
:10150000000E0101866F060E0101876F3FEC06F0A9
:101510007CEF93F0AF0E01017F6FF50E0101806F3C
:1015200024ECBAF0710E01017F6FEF0E0101806FA4
:1015300024ECBAF00A0E01017F6FF20E0101806FF8
:1015400024ECBAF0480E0101836FFD0E0101846F97
:101550002AECA7F0360E0101836FFE0E0101846FA5
:101560002AECA7F02C0E0101836FFE0E0101846F9F
:101570002AECA7F07CEF93F0C2C174F1C3C175F1FE
:10158000E00E0101766FFF0E0101776FAAECBBF050
:101590000009D8B46CD1C2C174F1C3C175F1170E82
:1015A0000101766FFA0E0101776FC2ECBCF0000901
:1015B000D8A41BD1C2C174F1C3C175F1050E0101DC
:1015C000766FFD0E0101776FC2ECBCF00009D8A464
:1015D00007D0C2C183F1C3C184F114ECA9F000D0DB
:1015E000C2C180F1C3C181F129ECA8F080C1DEF64F
:1015F00081C1DFF682C1E0F683C1E1F60601E1BFF9
:101600000DD00601E1510601E01110E1E80E0601DE
:10161000DE5D030E0601DF59D8B008D00601E1BF38
:1016200005D0DEC6DAF6DFC6DBF600D0FD0E060119
:10163000DE191DE10601DF291AE10601E02917E1A3
:101640007F0E0601E119D8A412D0BE0E01017F6FF2
:10165000F30E0101806F24ECBAF0FA0E0101866FDF
:10166000FC0E0101876F3FEC06F07CEF93F0060162
:10167000DBAF12D05E0E01017F6FF40E0101806FAF
:1016800024ECBAF0F90E0101866FFA0E0101876FA2
:101690003FEC06F07CEF93F00601DBBF17D07D0E28
:1016A0000601DB5DD8A012D0EF0E01017F6FF40EB2
:1016B0000101806F24ECBAF0B90E0101866FFA0EB9
:1016C0000101876F3FEC06F07CEF93F00601DA51E1
:1016D0000601DB11D8B436D0000E01018A6F060E68
:1016E00001018B6F990E01018C6FF40E01018D6F5A
:1016F000DAC68EF1DBC68FF187EC93F0000E0101A4
:101700007F6F060E0101806F24ECBAF0000E01011C
:101710008A6F060E01018B6F0C0E01018C6FF90EA2
:1017200001018D6FDCC68EF1DDC68FF187EC93F081
:10173000000E0101866F060E0101876F3FEC06F077
:101740007CEF93F08D82E80E0101746F030E756FCC
:10175000000E766F000E776FC6ECBFF00601DA510F
:10176000ABEC02F083C1C8F684C1C9F6000E0101DA
:101770008A6F060E01018B6F510E01018C6FF70EFF
:1017800001018D6FDAC68EF1DBC68FF1C8C690F10C
:10179000C9C691F187EC93F08D92000E01017F6F25
:1017A000060E0101806F24ECBAF0000E01018A6F71
:1017B000060E01018B6F140E01018C6FFD0E0101ED
:1017C0008D6FDAC68EF1DBC68FF1C8C690F1C9C63F
:1017D00091F187EC93F0000E0101866F060E010176
:1017E000876F3FEC06F07CEF93F0EA0E01017F6F0C
:1017F000F80E0101806F24ECBAF07B0E01017F6FBF
:10180000FD0E0101806F24ECBAF0B30E01017F6F71
:10181000FF0E0101806F24ECBAF05D0E01017F6FB5
:10182000EE0E0101806F24ECBAF0D30E01017F6F40
:10183000FC0E0101806F24ECBAF0CE0E0101836F23
:10184000FE0E0101846F2AECA7F0360E0101836FB2
:10185000FE0E0101846F2AECA7F0370E0101836FA1
:10186000FC0E0101846F2AECA7F07CEF93F0C2C15B
:1018700074F1C3C175F1E40E0101766FFF0E010131
:10188000776FAAECBBF00009D8B4B1D2C2C174F131
:10189000C3C175F1170E0101766FFA0E0101776F62
:1018A000C2ECBCF00009D8A438D2C2C174F1C3C1E3
:1018B00075F14A0E0101766FFF0E0101776FC2ECE0
:1018C000BCF00009D8B4C2D0020EABEC02F0080E96
:1018D000010183250601CA6F000E01018421060162
:1018E000CB6F000E0101926FA00E0101936F400EAD
:1018F0000101946F000E0101836F800E0101846F5E
:10190000440E0101856FCAC67CF1CBC67DF14EEC59
:1019100007F07CC180F17DC181F17EC182F164EC70
:10192000ADF080C18FF181C190F182C191F1A5EC40
:10193000AAF08FC19EF190C19FF191C1A0F1BBECC3
:10194000ACF09EC1CCF69FC1CDF6000E0101926FA6
:10195000FA0E0101936F430E0101946F000E010115
:10196000836F800E0101846F440E0101856FCAC62A
:101970007CF1CBC67DF14EEC07F07CC180F17DC1DE
:1019800081F17EC182F164ECADF080C18FF181C143
:1019900090F182C191F1A5ECAAF08FC19EF190C1A6
:1019A0009FF191C1A0F1BBECACF09EC1D2F69FC1FA
:1019B000D3F6D2C674F1D3C675F1000E0101776F6C
:1019C000640E766F5AECBFF074C1D2F675C1D3F6CF
:1019D000000E01018A6F060E01018B6FF00E0101EE
:1019E0008C6FF20E01018D6FCCC68EF1CDC68FF1DA
:1019F000D2C690F1D3C691F187EC93F0000E0101AD
:101A00007F6F060E0101806F24ECBAF0000E010119
:101A10008A6F060E01018B6F990E01018C6FFA0E11
:101A200001018D6FCCC68EF1CDC68FF1D2C690F17B
:101A3000D3C691F187EC93F0000E0101866F060E7C
:101A40000101876F3FEC06F07CEF93F0C2C174F1A7
:101A5000C3C175F1DB0E0101766FFF0E0101776FD7
:101A6000C2ECBCF00009D8B4A8D0BFECB3F00009B8
:101A7000D8A48BD0000E0101B66F060E0101B76F1E
:101A800021EE09F001EEB8F0080EDBCFEBFFE8061F
:101A9000FCE2000E0101C16F57ECB2F0000E010133
:101AA0007F6F060E0101806F24ECBAF0CE0E0101AB
:101AB0007F6FF60E0101806F24ECBAF0000E010179
:101AC000826F000E8FEC05F03F0E0101826FF90E60
:101AD0000101836F35ECBEF001010D51D8B423D064
:101AE000000E01018A6F060E01018B6FA40E010129
:101AF0008C6FF60E01018D6F10C18EF101018F6B9D
:101B00000FC190F10101916B0BC192F10101936B37
:101B10000AC194F10101956B09C196F10101976B1E
:101B200087EC93F023D0000E01018A6F060E0101AD
:101B30008B6F8D0E01018C6FF60E01018D6F10C140
:101B40008EF101018F6B0FC190F10101916B0BC1FF
:101B500092F10101936B0AC194F10101956B09C1E6
:101B600096F10101976B87EC93F000D0000E010114
:101B7000826F010E8FEC05F0000E0101826F060EE0
:101B80000101836F35ECBEF0EBD3460E01017F6F90
:101B9000F60E0101806F24ECBAF0000E0101826F95
:101BA000010E8FEC05F0610E0101826FF90E01014B
:101BB000836F35ECBEF0D4D3D3D3C2C174F1C3C1AB
:101BC00075F1F80E0101766FFF0E0101776FC2EC1F
:101BD000BCF00009D8B497D0CB0E01017F6FF20E94
:101BE0000101806F24ECBAF05A0E01017F6FF30EF1
:101BF0000101806F24ECBAF0C2C174F1C3C175F168
:101C0000000E0101776F640E766FD3EC03F0D10EF6
:101C100001017F6FF40E0101806F24ECBAF000D057
:101C2000C2C1D9FFC3C1DAFFDF50D8B4F9D7C2C1EE
:101C300074F1C3C175F1F4ECBBF0C2C174F1C3C15E
:101C400075F13FEC9CF00009D8B448D021EE09F0C2
:101C500001EE7CF0080EDBCFEBFFE806FCE294EC33
:101C6000A4F00009D8A430D0C90E01017F6FF50E91
:101C70000101806F24ECBAF0BFECB3F0000E01015B
:101C8000B66F060E0101B76F21EE09F001EEB8F054
:101C9000080EDBCFEBFFE806FCE2000E0101C16F8E
:101CA00057ECB2F0000E01017F6F060E0101806F4C
:101CB00024ECBAF0CE0E01017F6FF60E0101806FA9
:101CC00024ECBAF07CEF93F0430E01017F6FF50E28
:101CD0000101806F24ECBAF07CEF93F0FC0E01015F
:101CE0007F6FF50E0101806F24ECBAF09D0E0101AB
:101CF0007F6FF30E0101806F24ECBAF07CEF93F05C
:101D00008FD77CEF93F0ED0E01017F6FFC0E010188
:101D1000806F24ECBAF07CEF93F07C0E01017F6FB2
:101D2000F40E0101806F24ECBAF0C20E01017F6F46
:101D3000FD0E0101806F24ECBAF0180E01017F6FD7
:101D4000FE0E0101806F24ECBAF0670E01017F6F77
:101D5000FF0E0101806F24ECBAF0590E01017F6F74
:101D6000FF0E0101806F24ECBAF0A60E01017F6F17
:101D7000EE0E0101806F24ECBAF0AF0E01017F6F0F
:101D8000EF0E0101806F24ECBAF0280E01017F6F85
:101D9000F70E0101806F24ECBAF0D70E0101836FBA
:101DA000FE0E0101846F2AECA7F0360E0101836F4D
:101DB000FE0E0101846F2AECA7F0420E0101836F31
:101DC000FF0E0101846F2AECA7F0D60E0101836F8C
:101DD000FF0E0101846F2AECA7F0F40E0101836F5E
:101DE000FF0E0101846F2AECA7F07CEF93F0C2C1D3
:101DF00074F1C3C175F1E80E0101766FFF0E0101A8
:101E0000776FAAECBBF00009D8B447D1C2C174F116
:101E1000C3C175F1170E0101766FFA0E0101776FDC
:101E2000C2ECBCF00009D8A4F7D0C2C174F1C3C1A0
:101E300075F1940E0101766FF90E0101776F02ECD6
:101E4000BDF00009D8B464D0F29E090E01017F6F85
:101E5000EE0E0101806F010E80ECBCF0090E010155
:101E60007F6FEE0E0101806F010E80ECBCF0090E59
:101E700001017F6FEE0E0101806F010E80ECBCF05E
:101E8000090E01017F6FEE0E0101806F010E80ECE3
:101E9000BCF0090E01017F6FEE0E0101806F010E93
:101EA00080ECBCF0090E01017F6FEE0E0101806F26
:101EB000010E80ECBCF0090E01017F6FEE0E0101F6
:101EC000806F010E80ECBCF0090E01017F6FEE0EF9
:101ED0000101806F010E80ECBCF0090E01017F6FE3
:101EE000EE0E0101806F010E80ECBCF0F28E8D0EC3
:101EF00001017F6FF70E0101806F24ECBAF0EF0E45
:101F00000101866FFB0E0101876F3FEC06F0F4D3F1
:101F1000C2C174F1C3C175F1800E0101766FF80E74
:101F20000101776F02ECBDF00009D8B464D0F29ED5
:101F3000F90E01017F6FED0E0101806F010E80EC43
:101F4000BCF0F90E01017F6FED0E0101806F010EF3
:101F500080ECBCF0F90E01017F6FED0E0101806F86
:101F6000010E80ECBCF0F90E01017F6FED0E010156
:101F7000806F010E80ECBCF0F90E01017F6FED0E59
:101F80000101806F010E80ECBCF0F90E01017F6F42
:101F9000ED0E0101806F010E80ECBCF0F90E010125
:101FA0007F6FED0E0101806F010E80ECBCF0F90E29
:101FB00001017F6FED0E0101806F010E80ECBCF01E
:101FC000F90E01017F6FED0E0101806F010E80ECB3
:101FD000BCF0F28E650E01017F6FF70E0101806F7C
:101FE00024ECBAF0E90E0101866FFA0E0101876F49
:101FF0003FEC06F081D3B40E01017F6FF70E0101B3
:10200000806F24ECBAF0490E0101866FFA0E0101CF
:10201000876F3FEC06F070D3760E01017F6FF60EEE
:102020000101806F24ECBAF0B70E01017F6FFD0E45
:102030000101806F24ECBAF0860E01017F6FFE0E65
:102040000101806F24ECBAF0EB0E01017F6FEE0E00
:102050000101806F24ECBAF0270E01017F6FF50EAD
:102060000101806F24ECBAF09B0E0101836FFC0E1E
:102070000101846F2AECA7F08F0E0101836FFE0E21
:102080000101846F2AECA7F0A70E0101836FFF0EF8
:102090000101846F2AECA7F02FD3C2C174F1C3C130
:1020A00075F1170E0101766FFA0E0101776F02ECE0
:1020B000BDF00009D8B45ED16F0E01017F6FFD0E37
:1020C0000101806F24ECBAF00E0E01017F6FFE0E4D
:1020D0000101806F24ECBAF0E00E01017F6FFC0E6D
:1020E0000101806F24ECBAF0870E01017F6FFD0EB5
:1020F0000101806F24ECBAF01D0E01017F6FF90E13
:102100000101806F24ECBAF0CD0E01017F6FFD0E4E
:102110000101806F24ECBAF0830E01017F6FFF0E86
:102120000101806F24ECBAF0580E01017F6FF60EAA
:102130000101806F24ECBAF0FA0E01017F6FFE0EF0
:102140000101806F24ECBAF0C10E01017F6FF00E27
:102150000101806F24ECBAF0BB0E01017F6FF60E17
:102160000101806F24ECBAF0590E01017F6FFB0E64
:102170000101806F24ECBAF0000E0101826F000EA5
:102180008FEC05F0680E0101826FFE0E0101836F76
:1021900035ECBEF0BFECB3F00009D8A47DD0000E42
:1021A0000101B66F060E0101B76F21EE09F001EED5
:1021B000B8F0080EDBCFEBFFE806FCE2000E0101F1
:1021C000C16F57ECB2F0000E01017F6F060E0101E6
:1021D000806F24ECBAF0CE0E01017F6FF60E010184
:1021E000806F24ECBAF001010D51D8B423D0000E59
:1021F00001018A6F060E01018B6FA40E01018C6F25
:10220000F60E01018D6F10C18EF101018F6B0FC1B0
:1022100090F10101916B0BC192F10101936B0AC125
:1022200094F10101956B09C196F10101976B87EC5F
:1022300093F023D0000E01018A6F060E01018B6F0F
:102240008D0E01018C6FF60E01018D6F10C18EF1A4
:1022500001018F6B0FC190F10101916B0BC192F1E4
:102260000101936B0AC194F10101956B09C196F1CB
:102270000101976B87EC93F000D0000E0101826F93
:10228000010E8FEC05F0000E0101826F060E0101B8
:10229000836F35ECBEF016D0460E01017F6FF60E4F
:1022A0000101806F24ECBAF0000E0101826F010E73
:1022B0008FEC05F0610E0101826FF90E0101836F51
:1022C00035ECBEF0000E0101826F010E8FEC05F0BF
:1022D000470E0101836FFC0E0101846F2AECA7F009
:1022E000980E0101836FFE0E0101846F2AECA7F0A6
:1022F000930E0101836FFD0E0101846F2AECA7F09C
:10230000D80E0101836FFD0E0101846F2AECA7F046
:10231000590E0101836FFA0E0101846F2AECA7F0B8
:10232000400E0101836FFE0E0101846F2AECA7F0BD
:10233000CC0E0101836FFF0E0101846F2AECA7F020
:10234000D10E0101836FFF0E0101846F2AECA7F00B
:102350008F0E0101836FFF0E0101846F2AECA7F03D
:10236000000E0101C76F000EC86F000EC96F000E8E
:10237000CA6FC2D1C2C174F1C3C175F1950E01011A
:10238000766FFF0E0101776F02ECBDF00009D8B443
:1023900029D0000E01018A6F060E01018B6F4A0ED3
:1023A00001018C6FFE0E01018D6F5EEC08F074C1AF
:1023B0008EF175C18FF176C190F177C191F187EC03
:1023C00093F0000E01017F6F060E0101806F24EC77
:1023D000BAF0000E0101866F060E0101876F3FEC17
:1023E00006F08AD1C2C174F1C3C175F1190E0101A1
:1023F000766FFB0E0101776FC2ECBCF00009D8A428
:102400002DD0C2C174F1C3C175F13A0E0101766FCE
:10241000FF0E0101776FC2ECBCF00009D8A41ED0FA
:10242000C2C174F1C3C175F10A0E0101766FFF0ECE
:102430000101776FC2ECBCF00009D8A40FD0C2C173
:1024400074F1C3C175F1E30E0101766FFD0E010158
:10245000776FC2ECBCF00009D8B4BED0C2C174F131
:10246000C3C175F1050E0101766FFD0E0101776F95
:10247000C2ECBCF00009D8A407D0C2C183F1C3C12B
:1024800084F114ECA9F000D0C2C180F1C3C181F184
:1024900029ECA8F080C1CEF681C1CFF682C1D0F67A
:1024A00083C1D1F60601D1510601D01108E1600EB9
:1024B0000601CE5D090E0601CF59D8A084D00601D1
:1024C000D15109E10601CE05C20E0601CF59010E18
:1024D0000601D059D8B077D0C2C174F1C3C175F12B
:1024E000390E0101766FFB0E0101776FC2ECBCF073
:1024F0000009D8B402D0000E45D0C2C174F1C3C1E6
:1025000075F1B60E0101766FF90E0101776FC2EC1D
:10251000BCF00009D8B402D0010E34D0C2C174F1AD
:10252000C3C175F1B60E0101766FF80E0101776F28
:10253000C2ECBCF00009D8B402D0020E23D0C2C154
:1025400074F1C3C175F19F0E0101766FFD0E01019B
:10255000776FC2ECBCF00009D8B402D0030E12D0E1
:10256000C2C174F1C3C175F13B0E0101766FFD0E5E
:102570000101776FC2ECBCF00009D8B402D0040EA0
:1025800001D0050E0601D46F000ED56F000ED66F78
:10259000000ED76F00D0050E0601D4190601D51123
:1025A0000601D6110601D711D8B4A6D0CEC6B6F111
:1025B000CFC6B7F1D0C6B8F1D1C6B9F1D4C6BAF119
:1025C000E6ECA5F099D03D0E01017F6FF70E0101F9
:1025D000806F24ECBAF090D0C2C174F1C3C175F120
:1025E0007C0E0101766FFF0E0101776FC2ECBCF02B
:1025F0000009D8A45DD0C2C174F1C3C175F1550EF4
:102600000101766FFC0E0101776FC2ECBCF000098E
:10261000D8A44ED0C2C1D9FFC3C1DAFFDF50D2EC7B
:1026200007F00009D8B457D0C2C174F1C3C175F125
:10263000050E0101766FFD0E0101776FC2ECBCF053
:102640000009D8A407D0C2C183F1C3C184F114EC3E
:10265000A9F000D0C2C180F1C3C181F129ECA8F07A
:1026600080C1DEF681C1DFF682C1E0F683C1E1F60A
:102670000601E1BF1FD00601E1510601E01108E1AA
:10268000600E0601DE5D090E0601DF59D8A012D0EA
:102690000601E1BF0DD00601E1510CE10601DE05A6
:1026A000C20E0601DF59010E0601E059D8B002D072
:1026B00000F022D0380E01017F6FF80E0101806F0B
:1026C00024ECBAF0A90E0101866FFA0E0101876FA2
:1026D0003FEC06F011D0380E01017F6FF80E0101BA
:1026E000806F24ECBAF0A90E0101866FFA0E010189
:1026F000876F3FEC06F000D0CE0E01017F6FF60E23
:102700000101806F24ECBAF0010E120012008E0E4F
:102710000101A96F010E0101AA6FBBEF99F0250E0F
:102720000101B319D8B40BD08AC1D9FF8BC1DAFF2C
:10273000B3C1DFFF01018A4B8B2BBBEF99F0000E79
:102740000101B26F000EB16F000E0101B56F000EF6
:10275000B46F10D00101B48708D00101B48105D055
:102760000101B58702D00101B48501018C4B8D2B8D
:1027700001D016D08CC1F6FF8DC1F7FF000EF86EA8
:102780000800F550200AD8B4E8D7030AD8B4E8D72F
:102790000E0AD8B4DFD71D0AD8B4E5D701D0EAD7DE
:1027A0000101B4A703D00101B49500D08CC1F6FF9C
:1027B0008DC1F7FF000EF86E0800F55009EC07F028
:1027C000D8A047D0000E0101B26F000EB16F00D04B
:1027D000B1C174F1B2C175F1000E0101776F0A0E3B
:1027E000766F07EC06F074C1B1F175C1B2F1D00E8D
:1027F00001019A6FFF0E01019B6F8CC1F6FF8DC125
:10280000F7FF000EF86E0800F55001019C6F9D6BFC
:1028100001019A5101019C2701019B5101019D2356
:1028200001019C510101B12701019D510101B22318
:1028300001018C4B8D2B8CC1F6FF8DC1F7FF000E73
:10284000F86E0800F55009EC07F0D8A01ED0C0D7EC
:102850001CD08CC1F6FF8DC1F7FF000EF86E08008A
:10286000F5502A0AD8A411D0A9C1D9FFAAC1DAFF0C
:10287000DECFB1F1DDCFB2F1020E0101A927000ECA
:10288000AA2301018C4B8D2B00D08CC1F6FF8DC18A
:10289000F7FF000EF86E0800F5502E0AD8A45BD0A2
:1028A0000101B58D01018C4B8D2B8CC1F6FF8DC1C3
:1028B000F7FF000EF86E0800F5502A0AD8A411D0D0
:1028C000A9C1D9FFAAC1DAFFDECFAFF1DDCFB0F1E8
:1028D000020E0101A927000EAA2301018C4B8D2BAA
:1028E000EFD0000E0101B06F000EAF6F26D0AFC168
:1028F00074F1B0C175F1000E0101776F0A0E766FA9
:1029000007EC06F08CC1F6FF8DC1F7FF000EF86EE4
:102910000800F55001017427000E01017523D00E47
:10292000010174250101AF6FFF0E01017521010145
:10293000B06F01018C4B8D2B00D08CC1F6FF8DC187
:10294000F7FF000EF86E0800F55009EC07F0D8A06C
:10295000B7D0CDD7B5D0000E0101B06F000EAF6F6C
:10296000AFD0CEEF99F00101B489AAD00101B48DA6
:10297000D2D00101B48B0101B48FCDD00101AF5190
:102980000101B011D8B40FD00101A7510101AF5D11
:102990000101A8510101B059D8B005D0AFC1A7F1CC
:1029A000B0C1A8F100D00101B1510101A75D010141
:1029B000B2510101A859D8B009D00101A7510101B4
:1029C000B15F0101A8510101B25B06D0000E010107
:1029D000B26F000EB16F00D00101B4A70CD029D0A6
:1029E0000AD08AC1D9FF8BC1DAFF200EDF6E010148
:1029F0008A4B8B2B00D00101B107D8A0B20701018F
:102A0000B129EFE10101B229D8B413D0EAD711D02E
:102A10009FC1D9FFA0C1DAFF8AC1E1FF8BC1E2FFEC
:102A2000DFCFE7FF01019F4BA02B01018A4B8B2BCE
:102A300000D00101A707D8A0A8070101A729E8E154
:102A40000101A829D8A4E4D70101B4B70DD0BBEF88
:102A500099F00AD08AC1D9FF8BC1DAFF200EDF6E50
:102A600001018A4B8B2B00D00101B107D8A0B2071E
:102A70000101B129EFE10101B229D8B4BBEF99F00E
:102A8000E9D7BBEF99F0A9C1D9FFAAC1DAFFDF509E
:102A90000101B36F020E0101A927000EAA2300D085
:102AA000B30E01019F6F010E0101A06F000E010125
:102AB000A86F010EA76F62D7C00E0101B4132BD00F
:102AC0008CC1F6FF8DC1F7FF01018C4B8D2B000EE1
:102AD000F86E0800F5CFB3F10101B351000AD8B484
:102AE000CEEF99F0580AD8B444D73B0AD8B4CBD724
:102AF000070AD8B410D00D0AD8B40DD0050AD8B43E
:102B000032D7030AD8B432D71A0AD8B4D5D70D0AA7
:102B1000D8B431D7C5D7C00E0101B41501019A6FE1
:102B2000000E0101B51501019B6F01019A510101D0
:102B30009B11D8A435D00101B4A90ED0A9C1D9FFE9
:102B4000AAC1DAFFDECFABF1DECFACF1DECFADF163
:102B5000DECFAEF1040E0FD0A9C1D9FFAAC1DAFFB2
:102B6000DECFABF1DDCFACF10101000EACBFFF0E4B
:102B7000AD6FAE6F020E0101A927000EAA2300D08F
:102B80000101AEAF33D0030E0101B4130101AE1F3A
:102B9000AD1FAC1FAB6D000EAC23AD23AE2326D012
:102BA0000101B4A90ED0A9C1D9FFAAC1DAFFDECFB5
:102BB000ABF1DECFACF1DECFADF1DECFAEF1040E86
:102BC00010D0A9C1D9FFAAC1DAFFDECF9AF1DDCFBB
:102BD0009BF19AC1ABF19BC1ACF10101AD6BAE6B46
:102BE000020E0101A927000EAA2300D00101AF5156
:102BF0000101B011D8A499D00101AB510101AC1170
:102C00000101AD110101AE11D8A48FD00101AF4B6C
:102C1000B02B8BD000D0010E0101B36F0A0E010161
:102C2000B319D8B492D001D090D00101B351040DA2
:102C3000F10EF324F66EEC0EF420F76EF86A000E37
:102C4000F8220900F5500101AB5D0900F5500101C2
:102C5000AC590900F5500101AD590900F5500101C9
:102C6000AE59D8A072D001D070D00101B32BD6D705
:102C70006CD0010E0101B36F080E0101B319D8B475
:102C800064D001D062D00101B351040D190EF324B8
:102C9000F66EED0EF420F76EF86A000EF8220900C9
:102CA000F5500101AB5D0900F5500101AC59090077
:102CB000F5500101AD590900F5500101AE59D8A0F8
:102CC00044D001D042D00101B32BD6D73ED0010E63
:102CD0000101B36F0C0E0101B319D8B436D001D085
:102CE00034D00101B351040DC10EF324F66EEC0E85
:102CF000F420F76EF86A000EF8220900F550010181
:102D0000AB5D0900F5500101AC590900F550010116
:102D1000AD590900F5500101AE59D8A016D001D027
:102D200014D00101B32BD6D710D00101B451C00B80
:102D3000000AD8B470D7400AD8B4C9D7C00AD8B4EA
:102D400098D7400AD8B467D700D0800E0101B3BF2E
:102D50007F0E01019A6F0101AF510101B35D0101C5
:102D6000B051800A01019A59D8B003D0AFC1B3F174
:102D700019D00101B051800A01019A6F0101B351CC
:102D80000101AF5D800E0101B3BF7F0E01019A59B1
:102D9000D8B008D00101B3510101AF6FB06BAFBF24
:102DA000B00700D00101B1510101B211D8B415D062
:102DB000030E0101B41501019A6F000E0101B51552
:102DC00001019B6F01019A5101019B11D8B405D0FB
:102DD0000101B107D8A0B20700D00101B5AD1FD0E5
:102DE0000101B1510101AF5D0101B051800A010142
:102DF0009A6F0101B251800A01019A59D8B009D0E5
:102E00000101AF510101B15F0101B0510101B25B9C
:102E100006D0000E0101B26F000EB16F00D0C40EDB
:102E200001019A6F080E01019B6FB4C19CF1B5C1FD
:102E30009DF101019A5101019C1701019B51010172
:102E40009D17400E01019C1910E1080E01019D190A
:102E5000D8A40BD00101B1510101B211D8B437D0BF
:102E60000101B107D8A0B20732D0C00E01019A6F9C
:102E7000080E01019B6FB4C19CF1B5C19DF1010128
:102E80009A5101019C1701019B5101019D17800E70
:102E900001019C191CE1080E01019D19D8A417D04D
:102EA0000101B2BF0ED00101B25105E1030E0101D3
:102EB000B15DD8A006D00101FE0EB127FF0EB223EE
:102EC00006D0000E0101B26F000EB16F00D0800E6F
:102ED0000101B3BF7F0E01019A6F0101B1510101E0
:102EE000B35D0101B251800A01019A59D8B00BD0EB
:102EF0000101B3510101B15F000E0101B3BFFF0E2B
:102F00000101B25B06D0000E0101B26F000EB16F7D
:102F100000D00101B4A579D0030E0101B41501015F
:102F20009A6F000E0101B51501019B6F01019A51C5
:102F300001019B11D8B40AD08AC1D9FF8BC1DAFF35
:102F40002D0E0CD001018A4B8B2B44D00101B4A172
:102F500007D08AC1D9FF8BC1DAFF200EDF6EF2D70E
:102F6000C00E01019A6F080E01019B6FB4C19CF164
:102F7000B5C19DF101019A5101019C1701019B51BD
:102F800001019D17800E01019C1924E1080E010129
:102F90009D19D8A41FD08AC1D9FF8BC1DAFF300E8A
:102FA000DF6E01018A4B8B2B0101B4BB05D0000EF3
:102FB0000101A26F780E04D0000E0101A26F580E1D
:102FC000A16F00D08AC1D9FF8BC1DAFFA1C1DFFF99
:102FD000B9D700D00101B1510101B211D8B49CD1CF
:102FE0008AC1D9FF8BC1DAFF300EDF6E01018A4B37
:102FF0008B2B0101B107D8A0B2070101B15101012A
:10300000B211D8B489D1ECD787D10101B1510101F6
:10301000B211D8B418D00101B4B715D08AC1D9FF04
:103020008BC1DAFF200EDF6E01018A4B8B2B010171
:10303000B107D8A0B2070101B1510101B211D8B452
:1030400002D0ECD700D0030E0101B41501019A6F34
:10305000000E0101B51501019B6F01019A5101019B
:103060009B11D8B40AD08AC1D9FF8BC1DAFF2D0ECB
:103070000CD001018A4B8B2B0BD00101B4A108D0DD
:103080008AC1D9FF8BC1DAFF200EDF6EF2D700D0E4
:10309000C00E01019A6F080E01019B6FB4C19CF133
:1030A000B5C19DF101019A5101019C1701019B518C
:1030B00001019D17400E01019C190CE1080E010150
:1030C0009D19D8A407D08AC1D9FF8BC1DAFF300E71
:1030D000DF6E1ED1C00E01019A6F080E01019B6FB9
:1030E000B4C19CF1B5C19DF101019A5101019C1738
:1030F00001019B5101019D17800E01019C1904E102
:10310000080E01019D19D8A407D18AC1D9FF8BC12E
:10311000DAFF300EDF6E01018A4B8B2B0101B4BB4D
:1031200005D0000E0101A46F780E04D0000E01013D
:10313000A46F580EA36F00D08AC1D9FF8BC1DAFFEC
:10314000A3C1DFFFE5D0E8D0CDD000D0AFC19AF168
:10315000B0C19BF10101D8909A379B370101D890FB
:103160009A379B37F10E01019A25F66EEC0E9B21E2
:10317000F76EF86A000EF8220900F5CF78F1090021
:10318000F5CF79F10900F5CF7AF10A00F5CF7BF19F
:10319000ABC174F1ACC175F1ADC176F1AEC177F1DF
:1031A000A8ECB6F074C181F175C182F176C183F1EA
:1031B00077C184F10A0E0101856F000E866F000E43
:1031C000876F000E886FD2ECB9F00101815186D073
:1031D000ABC174F1ACC175F1ADC176F1AEC177F19F
:1031E000AFC19AF1B0C19BF10101D8909A379B37DA
:1031F0000101D8909A379B37190E01019A25F66E76
:10320000ED0E9B21F76EF86A000EF8220900F5CF4B
:1032100078F10900F5CF79F10900F5CF7AF10A00CC
:10322000F5CF7BF1A8ECB6F0010174510F0B010151
:103230009E6F0101B4BB05D0D90E0101A56FF80E38
:1032400004D0C80E0101A56FF80E0101A66F00D0D1
:1032500001019E51010DA5C19AF1A6C19BF1F35048
:1032600001019A27F45001019B239AC1F6FF9BC1EB
:10327000F7FF000EF86E0800F5CFB3F143D0ABC1F5
:1032800074F1ACC175F1ADC176F1AEC177F1AFC1EA
:103290009AF1B0C19BF10101D8909A379B37010197
:1032A000D8909A379B37C10E01019A25F66EEC0E25
:1032B0009B21F76EF86A000EF8220900F5CF78F12D
:1032C0000900F5CF79F10900F5CF7AF10A00F5CFC1
:1032D0007BF1A8ECB6F001017451070B300F01012E
:1032E000B36F10D00101B451C00B000AD8B42ED76F
:1032F000400AD8B4C4D7C00AD8B46AD7400AD8B4F0
:1033000025D700D08AC1D9FF8BC1DAFFB3C1DFFF57
:1033100001018A4B8B2B00D00101AF07D8A0B00769
:103320000101AF29DFE10101B029D8A4DBD70101F8
:10333000B4A721D00101B2BF1ED00101B25106E1F4
:103340000101B105D8B002D016D000D08AC1D9FF92
:103350008BC1DAFF200EDF6E01018A4B8B2B01013E
:10336000B107D8A0B2070101B1510101B211D8B41F
:1033700002D0ECD700D08CC1F6FF8DC1F7FF010160
:103380008C4B8D2B000EF86E0800F5CFB3F10101C8
:10339000B351D8B403D08FEF93F000D08AC1D9FFD6
:1033A0008BC1DAFF000EDF6E12001200000E010169
:1033B000C56F000E0101C66F000E0101C46FA8ECBD
:1033C00008F0A5EC03F0010E2CECB9F0D9EC06F0F6
:1033D00093EC08F050EC04F06FEC08F03AECAFF02E
:1033E000EBEC05F0010103510101021108E1600E4F
:1033F0000101005D090E01010159D8A00FD00101A2
:1034000003510CE101010005C20E01010159010E39
:1034100001010259D8B002D02FD000D0800E010196
:10342000006F250E016F000E026F000E036F000E7D
:103430000101046F21EE00F001EEA9F0080EDBCFD0
:10344000EBFFE806FCE2030E0101B26F000EB36F62
:10345000000EB46F000EB56FD4ECB8F00101A951A5
:103460000101AA110101AB110101AC11D8A404D0D2
:10347000010E0101C46F00D0EBEC05F000C181F139
:1034800001C182F102C183F103C184F104C185F15C
:103490005BECABF0130E01017F6FF80E0101806F42
:1034A00024ECBAF0940E01017F6F030E0101806FCE
:1034B00024ECBAF0CE0E01017F6FF60E0101806F91
:1034C00024ECBAF0000E0101C56F090E0101C565BB
:1034D00001D01DD08C828C94500E0101746FC30EEC
:1034E000756F000E766F000E776FC6ECBFF08C84A0
:1034F0008C92500E0101746FC30E756F000E766FC3
:10350000000E776FC6ECBFF00101C52BDED78C949F
:10351000410EE0ECB5F0140E0101746F000E756FF2
:10352000000E766F000E776FC6ECBFF0000E010143
:10353000826F000E8FEC05F00101C4510101D8B477
:1035400024D0220E01017F6FF00E0101806F24EC68
:10355000BAF0C50E0101826FFC0E0101836F35ECDC
:10356000BEF0A00E0101746F860E756F010E766FAE
:10357000000E776FC6ECBFF0EFEC07F0000E010114
:10358000826F000E8FEC05F000D0E90E0101826F12
:10359000FE0E0101836F35ECBEF0AB0E01017F6FB3
:1035A000FD0E0101806F24ECBAF0A00E0101746FD2
:1035B000860E756F010E766F000E776FC6ECBFF04A
:1035C000000E0101826F000E8FEC05F07C0E0101F0
:1035D000826FFE0E0101836F35ECBEF0A00E01017B
:1035E000746F860E756F010E766F000E776FC6ECE6
:1035F000BFF0000E0101826F000E8FEC05F0F90E96
:103600000101826FFD0E0101836F35ECBEF0A00E4B
:103610000101746F860E756F010E766F000E776F65
:10362000C6ECBFF0000E0101826F000E8FEC05F0BA
